:020000040800F2
:100000000000012039400008D93E0008DD3E00080C
:10001000E13E0008E53E0008E93E0008000000005F
:10002000000000000000000000000000ED3E00089D
:10003000F13E000800000000F53E0008F93E00080F
:10004000894000088940000889400008894000086C
:100050008940000889400008153F000889400008D1
:10006000894000088940000889400008894000084C
:10007000894000088940000889400008894000083C
:10008000413F000889400008894000080000000046
:10009000000000000000000000000000894000088F
:1000A000894000088940000889400008894000080C
:1000B00089400008894000088940000889400008FC
:1000C00089400008894000088940000889400008EC
:1000D00089400008894000088940000800000000AD
:1000E000894000088940000889400008000000009D
:1000F000000000000000000000000000894000082F
:10010000000000008940000889400008894000087C
:1001100000000000000000000000000000000000DF
:10012000894000088940000889400008353F0008E0
:1001300089400008000000000000000000000000EE
:1001400000000000000000000000000089400008DE
:10015000894000088940000889400008894000085B
:1001600089400008894000080000000000000000ED
:10017000000000000000000000000000000000007F
:10018000000000008940000800000000000000009E
:04019000894000089A
:1001A00010B5054C237833B9044B13B10448AFF3B1
:1001B00000800123237010BD7401002000000000A6
:1001C000BCED000808B5034B1BB103490348AFF36E
:1001D000008008BD0000000078010020BCED000890
:1001E0002DE9F04F82B001904FF000744FF000788D
:1001F0004FF000054FF0000952F804CB52F804EB21
:100200000868CB6DC0FB0C45D1F88000CEF1000E24
:10021000C3FB0E45D1F8DC30C0FB0C89C3FB0E8953
:1002200052F804CB52F804EB48688B6DC0FB0C45C8
:10023000D1F88400CEF1000EC3FB0E45D1F8D830C2
:10024000C0FB0C89C3FB0E8952F804CB52F804EBB7
:1002500088684B6DC0FB0C45D1F88800CEF1000ECC
:10026000C3FB0E45D1F8D430C0FB0C89C3FB0E890B
:1002700052F804CB52F804EBC8680B6DC0FB0C4578
:10028000D1F88C00CEF1000EC3FB0E45D1F8D03072
:10029000C0FB0C89C3FB0E8952F804CB52F804EB67
:1002A0000869CB6CC0FB0C45D1F89000CEF1000E74
:1002B000C3FB0E45D1F8CC30C0FB0C89C3FB0E89C3
:1002C00052F804CB52F804EB48698B6CC0FB0C4528
:1002D000D1F89400CEF1000EC3FB0E45D1F8C83022
:1002E000C0FB0C89C3FB0E8952F804CB52F804EB17
:1002F00088694B6CC0FB0C45D1F89800CEF1000E1C
:10030000C3FB0E45D1F8C430C0FB0C89C3FB0E897A
:1003100052F804CB52F804EBC8690B6CC0FB0C45D7
:10032000D1F89C00CEF1000EC3FB0E45D1F8C030D1
:10033000C0FB0C89C3FB0E8901984FF4FE4E4EF0B2
:10034000FF0E4FEA946444EA851404F30F044FEA65
:10035000986848EA891808F30F080480A0F802801A
:1003600002F5707201F580514FF000744FF0007883
:100370004FF000054FF0000952F804CB0868D1F89F
:100380008030C0FB0C45C3FB0C8952F804CB486895
:10039000D1F88430C0FB0C45C3FB0C8952F804CB68
:1003A0008868D1F88830C0FB0C45C3FB0C8952F833
:1003B00004CBC868D1F88C30C0FB0C45C3FB0C895A
:1003C00052F804CB0869D1F89030C0FB0C45C3FB50
:1003D0000C8952F804CB4869D1F89430C0FB0C4525
:1003E000C3FB0C8952F804CB8869D1F89830C0FB64
:1003F0000C45C3FB0C8952F804CBC869D1F89C307A
:10040000C0FB0C45C3FB0C8901984FF4FE4E4EF027
:10041000FF0E4FEA946444EA851404F30F044FEA94
:10042000986848EA891808F30F08A0F84040A0F837
:100430004280A2F57872A1F570614FF00F0C00F1C7
:100440000400CDF800C001904FF000744FF0007828
:100450004FF000764FF0007A4FF000054FF00009A2
:100460004FF000074FF0000B52F804CB52F804EBAA
:100470000868CB6DC0FB0C45C0FB0E67CEF1000ECB
:10048000C3FB0C67C3FB0E45D1F8DC30D1F880000C
:10049000C3FB0E89C3FB0CABCEF1000EC0FB0C8975
:1004A000C0FB0EAB52F804CB52F804EB48688B6DDE
:1004B000C0FB0C45C0FB0E67CEF1000EC3FB0C6702
:1004C000C3FB0E45D1F8D830D1F88400C3FB0E89A8
:1004D000C3FB0CABCEF1000EC0FB0C89C0FB0EAB16
:1004E00052F804CB52F804EB88684B6DC0FB0C4506
:1004F000C0FB0E67CEF1000EC3FB0C67C3FB0E45BD
:10050000D1F8D430D1F88800C3FB0E89C3FB0CAB03
:10051000CEF1000EC0FB0C89C0FB0EAB52F804CB31
:1005200052F804EBC8680B6DC0FB0C45C0FB0E67AE
:10053000CEF1000EC3FB0C67C3FB0E45D1F8D030E3
:10054000D1F88C00C3FB0E89C3FB0CABCEF1000EBF
:10055000C0FB0C89C0FB0EAB52F804CB52F804EB85
:100560000869CB6CC0FB0C45C0FB0E67CEF1000EDA
:10057000C3FB0C67C3FB0E45D1F8CC30D1F890001B
:10058000C3FB0E89C3FB0CABCEF1000EC0FB0C8984
:10059000C0FB0EAB52F804CB52F804EB48698B6CED
:1005A000C0FB0C45C0FB0E67CEF1000EC3FB0C6711
:1005B000C3FB0E45D1F8C830D1F89400C3FB0E89B7
:1005C000C3FB0CABCEF1000EC0FB0C89C0FB0EAB25
:1005D00052F804CB52F804EB88694B6CC0FB0C4515
:1005E000C0FB0E67CEF1000EC3FB0C67C3FB0E45CC
:1005F000D1F8C430D1F89800C3FB0E89C3FB0CAB13
:10060000CEF1000EC0FB0C89C0FB0EAB52F804CB40
:1006100052F804EBC8690B6CC0FB0C45C0FB0E67BD
:10062000CEF1000EC3FB0C67C3FB0E45D1F8C03002
:10063000D1F89C00C3FB0E89C3FB0CABCEF1000EBE
:10064000C0FB0C89C0FB0EAB01F5807101984FF423
:10065000FE4E4EF0FF0E4FEA946444EA851404F314
:100660000F044FEA986848EA891808F30F084FEA20
:10067000966646EA871606F30F064FEA9A6A4AEA32
:100680008B1A0AF30F0ADDF800C000EBCC0E2EF82F
:10069000026B2EF802AB20F8024B20F8028BBCF163
:1006A000010C7FF4CEAE02B0BDE8F08F2DE9F04F23
:1006B00082B001904FF000744FF0000552F804CB67
:1006C00052F804EB0868CB6DCEF1000EC0FB0C4570
:1006D000C3FB0E4552F804CB52F804EB48688B6D0F
:1006E000CEF1000EC0FB0C45C3FB0E4552F804CB07
:1006F00052F804EB88684B6DCEF1000EC0FB0C4540
:10070000C3FB0E4552F804CB52F804EBC8680B6DDE
:10071000CEF1000EC0FB0C45C3FB0E4552F804CBD6
:1007200052F804EB0869CB6CCEF1000EC0FB0C450F
:10073000C3FB0E4552F804CB52F804EB48698B6CAE
:10074000CEF1000EC0FB0C45C3FB0E4552F804CBA6
:1007500052F804EB88694B6CCEF1000EC0FB0C45DF
:10076000C3FB0E4552F804CB52F804EBC8690B6C7E
:10077000CEF1000EC0FB0C45C3FB0E4501984FF4B3
:10078000FE4E4EF0FF0E4FEA946444EA851404F3E3
:100790000F04048002F5707201F580514FF000746F
:1007A0004FF0000552F804CB0868C0FB0C4552F826
:1007B00004CB4868C0FB0C4552F804CB8868C0FBEA
:1007C0000C4552F804CBC868C0FB0C4552F804CB6A
:1007D0000869C0FB0C4552F804CB4869C0FB0C45C6
:1007E00052F804CB8869C0FB0C4552F804CBC869A9
:1007F000C0FB0C4501984FF4FE4E4EF0FF0E4FEA41
:10080000946444EA851404F30F040484A2F5787216
:10081000A1F570614FF00F0C00F10200CDF800C09F
:1008200001904FF000744FF000764FF000054FF04C
:10083000000752F804CB52F804EB0868CB6DC0FBFC
:100840000C45C0FB0E67CEF1000EC3FB0E45C3FB8B
:100850000C6752F804CB52F804EB48688B6DC0FB70
:100860000C45C0FB0E67CEF1000EC3FB0E45C3FB6B
:100870000C6752F804CB52F804EB88684B6DC0FB50
:100880000C45C0FB0E67CEF1000EC3FB0E45C3FB4B
:100890000C6752F804CB52F804EBC8680B6DC0FB30
:1008A0000C45C0FB0E67CEF1000EC3FB0E45C3FB2B
:1008B0000C6752F804CB52F804EB0869CB6CC0FB10
:1008C0000C45C0FB0E67CEF1000EC3FB0E45C3FB0B
:1008D0000C6752F804CB52F804EB48698B6CC0FBF0
:1008E0000C45C0FB0E67CEF1000EC3FB0E45C3FBEB
:1008F0000C6752F804CB52F804EB88694B6CC0FBD0
:100900000C45C0FB0E67CEF1000EC3FB0E45C3FBCA
:100910000C6752F804CB52F804EBC8690B6CC0FBAF
:100920000C45C0FB0E67CEF1000EC3FB0E45C3FBAA
:100930000C6701F5807101984FF4FE4E4EF0FF0EEA
:100940004FEA946444EA851404F30F044FEA966670
:1009500046EA871606F30F06DDF800C000EB8C0EA2
:100960002EF8026B20F8024BBCF1010C7FF456AF5D
:1009700002B0BDE8F08F034613F8012B002AFBD12B
:10098000181A013870470000000000000000000045
:1009900001F0FF01102A2BDB10F0070F08D010F830
:1009A000013B013A8B422DD010F0070F42B3F6D134
:1009B000F0B441EA012141EA014122F007047FF04D
:1009C00000070023F0E80256083C85EA010586EAA4
:1009D000010685FA47F5A3FA87F586FA47F6A5FAE0
:1009E00087F68EB9EED1F0BC01F0FF0102F00702EC
:1009F00032B110F8013B013A83EA010313B1F8D197
:100A00000020704701387047002D06BF3546033877
:100A1000073815F0010F07D1013015F4807F02BFB0
:100A2000013015F4C03F0130F0BC0138704700BF01
:100A30007BB972B90029BEBF00204FF0004106E02B
:100A400008BF00281CBF6FF000414FF0FF3000F0DE
:100A5000A7B9ADF1080C6DE904CE002909DB002B24
:100A60001ADB00F035F8DDF804E0DDE9022304B01C
:100A70007047404261EB4101002B1BDB00F028F87E
:100A8000DDF804E0DDE9022304B0404261EB4101FE
:100A9000524263EB43037047524263EB430300F05F
:100AA00017F8DDF804E0DDE9022304B0404261EB11
:100AB00041017047524263EB430300F009F8DDF84F
:100AC00004E0DDE9022304B0524263EB43037047C4
:100AD0002DE9F047089D04468E46002B4DD18A42F1
:100AE000944669D9B2FA82F252B101FA02F3C2F124
:100AF000200120FA01F10CFA02FC41EA030E9440B5
:100B00004FEA1C48210CBEFBF8F61FFA8CF708FBD5
:100B100016E341EA034306FB07F199420AD91CEBAD
:100B2000030306F1FF3080F01F81994240F21C81DF
:100B3000023E63445B1AA4B2B3FBF8F008FB103327
:100B400044EA034400FB07F7A7420AD91CEB04045C
:100B500000F1FF3380F00A81A74240F2078164442C
:100B6000023840EA0640E41B00261DB1D4400023B1
:100B7000C5E900433146BDE8F0878B4209D9002D15
:100B800000F0EF800026C5E9000130463146BDE89F
:100B9000F087B3FA83F6002E4AD18B4202D3824209
:100BA00000F2F980841A61EB030301209E46002DB8
:100BB000E0D0C5E9004EDDE702B9FFDEB2FA82F20D
:100BC000002A40F09280A1EB0C014FEA1C471FFA6B
:100BD0008CFE0126200CB1FBF7F307FB131140EA52
:100BE00001410EFB03F0884208D91CEB010103F11F
:100BF000FF3802D2884200F2CB804346091AA4B2E1
:100C0000B1FBF7F007FB101144EA01440EFB00FEB4
:100C1000A64508D91CEB040400F1FF3102D2A64519
:100C200000F2BB800846A4EB0E0440EA03409CE7B8
:100C3000C6F12007B34022FA07FC4CEA030C20FA65
:100C400007F401FA06F31C43F9404FEA1C4900FA85
:100C500006F3B1FBF9F8200C1FFA8CFE09FB181102
:100C600040EA014108FB0EF0884202FA06F20BD975
:100C70001CEB010108F1FF3A80F08880884240F2C5
:100C80008580A8F102086144091AA4B2B1FBF9F009
:100C900009FB101144EA014100FB0EFE8E4508D904
:100CA0001CEB010100F1FF346CD28E456AD9023889
:100CB000614440EA0840A0FB0294A1EB0E01A1426E
:100CC000C846A64656D353D05DB1B3EB080261EBDC
:100CD0000E0101FA07F722FA06F3F1401F43C5E9B6
:100CE000007100263146BDE8F087C2F12003D840EC
:100CF0000CFA02FC21FA03F3914001434FEA1C472E
:100D00001FFA8CFEB3FBF7F007FB10360B0C43EA1F
:100D1000064300FB0EF69E4204FA02F408D91CEBCF
:100D2000030300F1FF382FD29E422DD902386344CD
:100D30009B1B89B2B3FBF7F607FB163341EA03416D
:100D400006FB0EF38B4208D91CEB010106F1FF38BC
:100D500016D28B4214D9023E6144C91A46EA0046B3
:100D600038E72E46284605E70646E3E61846F8E645
:100D70004B45A9D2B9EB020864EB0C0E0138A3E78E
:100D80004646EAE7204694E74046D1E7D0467BE76F
:100D9000023B614432E7304609E76444023842E7E7
:100DA000704700BF2DE9F04F93B00792AA4A0F9306
:100DB0001378DDF874A05C1EE4100134042C0A944E
:100DC00000F3998055780695EB1AE400651E03EB55
:100DD000D37301245B10AC4004FA03F31193002990
:100DE00000F08C80012900F03581022908BF4F21D5
:100DF000137A54680B948B4203D8527A8A4280F05B
:100E00001F81069A002A76D00F9B013B9BB210935C
:100E1000079B013B9BB2029312FB02F303931E9BC1
:100E2000002103FB02F9531E0D9108930C910991C7
:100E30000E910A9B012B63D0022B00F0C280032B82
:100E400000F0C4800B9BD3F800B01946DDE90E23F7
:100E50000A9C1A4421440D9B0B91109953440D9305
:100E6000B3FBF9F3CF180E93DDE90813994292B260
:100E7000BFB24AD0002B77D00C9B0026C3EB0328CF
:100E8000344635461EE008998C421FD011990B421A
:100E90001C9B08BFFF230193079B00975919029BD6
:100EA0005644B6FBF9F52B449BB289B2CDE9040256
:100EB00003F0D0FB069B0134A342DDE9040208F1F4
:100EC000FF080CD00BFA04F3002CDCD1039BB8FB19
:100ED000F3F3DBB243F47F0343F47F43DBE71A46CB
:100EE0000C9B13449B46099B069ACDF830B0013306
:100EF000934209939DD113B0BDE8F08F202177E78D
:100F00000B9B93F800B01946A0E700296BD00C9B0F
:100F1000069903EB010B0026CBEB0B28CDF830B084
:100F2000DDF81CB0C3EB03253446039BB5FBF3F39C
:100F3000DBB243F47F0343F47F430193029B0097AA
:100F40000BEB04015644B6FBF9F4234489B2FF3598
:100F50009BB2CDE9040203F07DFB4545DDE90402C7
:100F6000E3D1DDF830B0BEE71C4606990C9B03EBDD
:100F7000010BCBEB0B28CDF830B0DDF81CB0C3EB88
:100F800003252646039BB5FBF3F3DBB243F47F0353
:100F900043F47F430193029B00970BEB04015644FB
:100FA000B6FBF9F4234489B2FF359BB2CDE90402C4
:100FB00003F050FB4545DDE90402E3D1DDF830B034
:100FC00091E70B9BB3F800B019463FE70B9A92F8F4
:100FD00002B053784FEA0B4B4BEA032B13781146C0
:100FE0004BEA030B32E70C9B0C46069903EB010B13
:100FF000CBEB0B28CDF830B0DDF81CB0C3EB0325EC
:101000002646039BB5FBF3F3DBB243F47F0343F4C3
:101010007F430193029B00970BEB04015644B6FB00
:10102000F9F4234489B2FF359BB2CDE9040203F001
:1010300011FB4545DDE90402E3D1DDF830B052E7AC
:101040000A9ACB1ADBB202FB03F3069A02FB0343B4
:101050000B93D6E65821CBE6040000202DE9F04F93
:1010600095B003929B4A119313785C1EE4100134EF
:10107000042C0C9400F3CF8055780995EB1AE4000A
:10108000651E03EBD37301245B10AC4004FA03F339
:101090001393002900F0C280012900F0E0810229A9
:1010A00008BF4F21137A54680D948B4203D8527AAB
:1010B0008A4280F0CA81099A002A00F0AC80119B14
:1010C000854C013B9BB21293039B013B9BB2049363
:1010D00012FB02F305931F9B002103FB02F3013A6D
:1010E0000F910A920B9110919B460E910C9B012B34
:1010F00000F09680022B00F04781032B00F048811E
:101100000D9BD3F800A01E99DDE910231A440F9B14
:101110000B44DDE90C5129440D9112990F93B3FB57
:10112000FBF301EB03081093DDE90A13994292B235
:101130001FFA88F878D0002B00F0D4800E9B00278F
:10114000C3EB03293D463E46069723E00A9FBD4276
:1011500026D013990B426149614B18BF0B4601938E
:10116000039BCDF8008099191E9B069E1E44049B8C
:101170000696B6FBFBF633449BB289B2CDE9070273
:1011800003F068FA099B0135AB42DDE9070209F17A
:10119000FF0933D06FF079010AFA05F3002DD5D19C
:1011A0006FF03107059BB9FBF3F3DBB207FB03FCE0
:1011B00084FB0C7E03FB01F1E6444FEAEC7CACEBD4
:1011C000EE1C84FB017E8E44C917ACF1330CA1EBFD
:1011D000EE11A3EB83035FFA8CFC7B399B014FEA92
:1011E0000C4CC9B24CEA012184FB037C9C44DB1704
:1011F000A3EBEC133F33DBB20B43B0E71A460E9B75
:10120000134408930B9B089A0E92099A0133934258
:101210000B937FF46BAF15B0BDE8F08F202141E751
:101220000D9B93F800A06EE7002900F0BB800E999B
:10123000099B0026CB180893C1EB012AC3EB0329B5
:101240003546039BCDF8008059191E9B6FF0790538
:101250001E44059BBAFBF3F3DBB205FB03FC84FBE6
:101260000C7E6FF0310505FB03F5E6444FEAEC7C9C
:10127000ACEBEE1C84FB057EAE44ED17A5EBEE1542
:10128000ACF17B0CA3EB83035FFA8CFC333D9B0139
:10129000EDB24FEA0C2C4CEA054C84FB03751D445F
:1012A000DB17A3EBE5133F33DBB24CEA03030193F7
:1012B000049BB6FBFBF52B4489B20AF1FF0A9BB2F3
:1012C000CDE9060203F0C6F9CA45DDE90602B8D148
:1012D00098E700BF0400002081808080FF901E00FE
:1012E0009314FF000E991D46099BCB180893C1EB80
:1012F000012AC3EB03292E46039BCDF80080591920
:101300001E9B6FF031051E44059BBAFBF3F3DBB265
:1013100005FB03FC84FB0C7E6FF0790505FB03F5F0
:10132000E6444FEAEC7CACEBEE1C84FB057EAE445D
:10133000ED17A5EBEE15ACF1330CA3EB83035FFACD
:101340008CFC7B3D9B01EDB24FEA0C4C4CEA052C2A
:1013500084FB03751D44DB17A3EBE5133F33DBB2BE
:101360004CEA03030193049BB6FBFBF52B4489B2C3
:101370000AF1FF0A9BB2CDE9060203F06BF9CA45F8
:10138000DDE90602B8D13DE70D9BB3F800A0BAE64F
:101390000D998B781A044B7842EA03220B7842EAC3
:1013A000030AB0E60D46099B0E99CB180893C3EBD0
:1013B00003234746C1EB012A2E469846039B00971C
:1013C00059191E9B6FF079051E44059BBAFBF3F378
:1013D000DBB205FB03FC84FB0C9E6FF0310505FBC3
:1013E00003F5E6444FEAEC7CACEBEE1C84FB059E77
:1013F000AE44ED17A5EBEE15ACF17B0CA3EB83032C
:101400005FFA8CFC333D9B01EDB24FEA0C2C4CEAA9
:10141000054C84FB03E51D44DB17A3EBE5133F33C9
:10142000DBB24CEA03030193049BB6FBFBF52B44B0
:1014300089B20AF1FF0A9BB2CDE9060203F00AF96C
:10144000C245DDE90602B9D1DCE60C9ACB1ADBB263
:1014500002FB03F3099A02FB03430D932BE6582189
:1014600020E600BF2DE9F04F8FB04FF0000983F860
:101470000090CDE90C23189B82F80090029083F82D
:101480000090002900F0D0804B1E012450FA83FE0A
:1014900001FB03030193CDE90711631ACDE9099418
:1014A00005930B190B94049300904FF0FF3B4E46AD
:1014B000CDF81890CDF80C904D46029B5B441A462F
:1014C0000C464FF0010C002703E0013C0127724558
:1014D0000BD012F8010F0128F9D00028F5D0724581
:1014E0004FF0000C4FF00107F3D104FB0CFC189AED
:1014F000AC45B8BFAC4682F800C0002F79D0029846
:10150000002200EB090488464FF0010A104607E06C
:1015100008F1FF3838460132D5B2A9420C440CD943
:101520002578012DF7D0002DF2D00132D5B2A94295
:1015300038464FF0000A0C44F2D80AFB08F8C445BC
:10154000189AB8BFC4465FFA8CF5157000285AD0B7
:10155000009A1278012A05D0002A42D1079A013A4E
:10156000CDE90602019A1278012A05D0002A3CD161
:10157000089A013ACDE9082013F8012F002A08BF84
:1015800006467345F8D1059A03EB010E019B1344FF
:101590000193049A009B09F10109134400935FFA37
:1015A00089F399428B44039387D8079A0A9B089939
:1015B00002FB03F30B9A01FB02F29342B8BF1346FE
:1015C0009C456746B8BF1F46189B1F70069B5BB3C0
:1015D000099B13B3002E14BF002002200FB0BDE8FA
:1015E000F08F002206900A92BCE7002209900B922D
:1015F000C2E7039B03F1010B0C9B012083F800B0B1
:101600000FB0BDE8F08F039B03F1010B0D9B384633
:1016100083F800B00FB0BDE8F08F0D9A0698022352
:1016200013700C9A1370EBE70D9A012313700C9A48
:10163000184613700FB0BDE8F08F00BF2DE9F04FD2
:101640002DED028B9FB004AF7B6197F8A0307865D9
:10165000FB60002B00F05D8111FB01F48B46002C38
:1016600000F04081431E92461C44002213F8011FE3
:10167000501C01B9C2B29C42F8D1002A00F032815C
:1016800002EB42039B00073323F007036A46ADEBEE
:10169000030D0DF1130308EE102A9A0823F003033B
:1016A0003A60FB61BBF1000F00F0A1817B69012B67
:1016B0000CBF01214FF0FF317960796D00230BF1F0
:1016C000FF32C7E90831BA600BFB0212BB623A6114
:1016D0007B6A013BBB6400237B64BB6C13F8015F36
:1016E000BB6465B17B6C0133DBB29B4500F0EE80DF
:1016F0007B64BB6C13F8015FBB64002DF2D183F8EF
:1017000000A0BB6A7D63D7E9072103EB4303C7E968
:101710000EBB02F8231002EB83037A6CB9685A708F
:101720007A6DBB615D60012352FA81F6FA65A3EB25
:101730000B013A6939653A660BEB03014FF0FF3252
:10174000A946FB62F964AE463D647A66BD653B63BB
:101750007A6E7B6D13441A4600255846012403E037
:101760000138012596420BD012F8011F8A45F9D0A5
:101770000029F5D096424FF000044FF00105F3D157
:1017800004FB00F08145B8BF8146002D00F01781B1
:10179000D7E9152100245118D84622464FF0010CF4
:1017A00007E008F1FF382C460132D0B28345594496
:1017B0000CD908788245F7D00028F2D00132D0B297
:1017C00083452C464FF0000C5944F2D808FB0CFC22
:1017D000CC45B8BFCC465FFA8CF9002C00F0FB80FA
:1017E000FA6D1278924506D0002A40F08A80FA6B92
:1017F000013AC7E90F243A6E1278924506D0002AC2
:1018000040F08380BA6B013AC7E90D4213F8012F0B
:10181000002A08BFA646B342F8D1396DBA6D03EB72
:101820000B063B6E0B443B66F96CFB6D0B44FB6592
:101830007B6E01325B447B66D3B29B45BA6587D829
:10184000FA6B3B6BB96B02FB03F3FA6A01FB02F222
:101850009342B8BF13469C456546B8BF1D46BB6A58
:10186000FA6903EB430302EB83031D723B6C002B0D
:1018700000F0AD807B6B002B00F0A980BEF1000F63
:1018800016D0D7F89C300193D7F898300093FB68B6
:10189000013BDBB202937B69786DC3F10303CAF1AC
:1018A0000302DBB2D2B25946FFF7C8FEBB695860EB
:1018B000BB6ABA6C0133DBB2BB627B6C0133DBB257
:1018C0004FF000019B4511707FF412AF7B6A3A6ABA
:1018D000796C5B447B62914202F10103DBB21FD061
:1018E0003B62F5E6D7F89C3083F800B0D7F8983023
:1018F00000206C3783F800B0BD46BDEC028BBDE81C
:10190000F08F00223C643A6375E700227C63FA6240
:101910007CE718466C37BD46BDEC028BBDE8F08F06
:10192000F969BE6A48680C7A002E64D07B69012B85
:101930004FF000031A462FD04D68854205DC35DB99
:101940000D7AA54201DD13462C460132D2B2B242D5
:1019500001F10C01F0D1FA69396803EB430302EBA2
:1019600083029B0013F821105378D7F89820117048
:10197000D7F89C20137018EE103A6C379D46BD4680
:10198000BDEC028BBDE8F08F134628460132D2B27F
:10199000964201F10C01DED04D688542F6DBF3DCA6
:1019A0000D7AA542F2DD13462C46EFE713460132CD
:1019B000D2B2B242284601F10C01BDD1CBE7BB6ADD
:1019C000FA6903EB430302EB830383F80890BB69D6
:1019D0007A685A606CE7BB6AFA6903EB430302EB6F
:1019E00083037A6883F80890BB695A6060E71A46F7
:1019F0005B465068AFE73346ADE700BF2DE9F04FD7
:101A00002DED0A8BADF5077DCD4C04AF07F5927334
:101A100083468A46C7F894300FCC07F5BA760FC6CE
:101A20000FCC0FC60FCC0FC694E80F00C54C86E84C
:101A30000F000FCCD7F894600FC694E80700C24B94
:101A4000C24C86E8070093E8030007F1B40383E87B
:101A50000300BF4B93E80300BE4B87F8A810C7F8FC
:101A6000A40093E80300BC4BA7F8B010C7F8AC0083
:101A700093E8070007F1CC0503C5B84B25F8022B06
:101A8000120C2A700FCB07F1E808A8E8070028F825
:101A9000023B1B0C88F80030B14B0FCB07F1D80C80
:101AA000ACE807008CF800300FCC07F58679A9E880
:101AB0000F0094E80300AB4C49F8040B89F80010C0
:101AC0000FCC07F1F80EAEE80F002368BBF8062034
:101AD000AEF80030BBF804309A4228BF1A46A24B39
:101AE000BA641B684FF001018AF82810002433B152
:101AF0000CF0BEF99C4B1B680134A342F8D8BA6CB9
:101B000002F116039BB209EE903A02F12B039BB24D
:101B10000CEE103A931C9BB20AEE903A02F12A03A3
:101B20009BB20BEE103A134637339BB20BEE903A52
:101B3000134652083A620AF11802002108EE902A70
:101B40000AF1300209EE102AC7E90D1107F1D80297
:101B500008EE102A5A1C1533F96439637A603B6029
:101B60000AF0C2FB8149584602F080FE80484FF0DF
:101B7000FF310AF039FBBBF80630BBF804909945F9
:101B800028BF9946002307F5BE78C7F890304E4627
:101B9000D7F890300024C3F3CF09A8F10805C7F89F
:101BA00094400DE00824CDE90164CDF800C0FFF7B2
:101BB000F9F8D7F8943045453344C7F8943013D03A
:101BC00015F8011BD7F8942001296FF07F4C4B4684
:101BD0005846C2F3CF02E5D10823CDE901634FF4A3
:101BE0007F0300934B46E2E7D7F89030334408F187
:101BF0000808C7F8903007F5DE739845C8D107F597
:101C00008670FEF7B8FE5B4ABC6C1378574D0295A0
:101C100000FB134000264FF47F03C0F34F010092F6
:101C2000019319EE902A07F586735846039603F040
:101C3000FFF907F1F800FEF79EFE4F4A1378009275
:101C400000FB1340FF23C0F34F01CDE902561CEE09
:101C5000102A0193584607F1F80303F0E9F941F21D
:101C6000883003F04BFDBBF80640BBF804309C42C3
:101C700028BF1C4604EB4403DB0807F28B1807F26D
:101C800093154FF0080918F8011FC6F3CF02CDE9EC
:101C900000495846C7F89430FFF7E0F9A845D7F84F
:101CA00094302644EFD1BBF80640BBF804309C4288
:101CB00028BF1C46630807F2931807F29B160025FD
:101CC0004FF0080918F8011FC5F3CF02CDE900490C
:101CD0005846C7F89430FFF7C1F9B045D7F89430AB
:101CE0002544EFD14FF4FA60244D03F007FD0023A3
:101CF000C7F890300FCD07F5DA740FC40FCD0FC4BD
:101D00000FCD0FC495E80F0084E80F002B69A7F8EA
:101D1000A0301B0CBBF8049087F8A230BBF806304B
:101D2000994528BF994607F5DE784E46D7F890309A
:101D30000024C3F3CF09A8F10805C7F894402DE0AB
:101D4000D4ED000894EF0008B0EF0008B8EF0008E9
:101D5000D0EF0008D8EF0008E0EF0008ECEF000833
:101D6000FCEF00080CF000089001002000FFFF00CD
:101D7000E0000020040000201000002014EE000805
:101D80000824CDE90164CDF800C0FFF70BF8D7F8BF
:101D9000943045453344C7F8943013D015F8011BEF
:101DA000D7F8942001296FF07F4C4B465846C2F378
:101DB000CF02E5D10823CDE901634FF47F030093FF
:101DC0004B46E2E7D7F89030334408F10808C7F8EB
:101DD000903007F5FE739845A8D107F1A003C7F826
:101DE00094304FF00809BBF80640BBF804309C4221
:101DF00028BF1C46D7F8943013F8015BC7F894301D
:101E000007F5DA7204FB05F305FB092607F5DE7218
:101E10004FF00008C3F3CF0319FB052516F8011B8B
:101E2000C8F3CF02CDE900495846C7F89030FFF714
:101E300015F9AE42D7F89030A044EFD1D7F89430DE
:101E400007F1A3029342CED1BBF80650BBF8043091
:101E50009D4228BF1D464FEAE50842F21074A64A8B
:101E60009AF829301168D3B900BF9AF82930B3B96C
:101E70000125A14B1E6804FB05F3721A9A4209D38F
:101E800001350D2D4FF000019C4828BF01250AF0B7
:101E9000ABF9314600BF9AF82930002BE9D09AF807
:101EA00028305BB100BF9AF82930002BF7D1DAF85F
:101EB0002030032B0ED8904B1968D5E750460BF015
:101EC00087FD00BF9AF82930002BE8D1DAF82030DE
:101ED000032BF0D919EE102A18EE901A07F1C4005E
:101EE0000AF08CFDD7F8C83093FBF8F39A1E042A49
:101EF000B5D800218248FB631D460AF075F9BBF88E
:101F00000640BBF804309C4207F5DA7128BF1C4636
:101F100004FB05F301EBC50607F5DE7101EBC5080F
:101F2000C3F3CF0300254FF0080916F8011BC5F3D2
:101F3000CF02CDE900495846C7F89430FFF78EF834
:101F40004645D7F894302544EFD14FF4FA7003F0AA
:101F5000D5FB51226B4907F5DA700BF063FE6A4B33
:101F6000BBF804201B68A7F8A0301B0C87F8A23030
:101F7000BBF80630934228BF13469846FB6B0133EB
:101F80003B64DBB2BB62002307F5DE79C7F894300F
:101F9000D7F894305D4AA2FB0336C6F34F06A9F189
:101FA000090500240AE00920CDE90180CDF800C030
:101FB0005846FEF7F7FE4D45444418D0534B15F8EC
:101FC000011FA3FB043201296FF07F4C3346C2F39B
:101FD0004F02E8D10923CDE901834FF47F03009339
:101FE00058463346FEF7DEFE4D454444E6D1D7F869
:101FF0009430434409F10909C7F8943007F20D23DE
:102000009945C5D107F1A003C7F894304FF00909ED
:10201000BBF80650BBF804303C4A9D4228BF1D4621
:10202000D7F8943013F8016BC7F8943005FB06F32A
:10203000A2FB03234FF0FF3219FB062407F5DA72E7
:10204000144407F5DE724FF00008C3F34F0319FB89
:1020500006262E4A14F8011FA2FB0802CDE90059FA
:10206000C2F34F02C7F890305846FEF7F7FFA6427A
:10207000D7F89030A844ECD1D7F8943007F1A302F8
:102080009A42C5D1BBF80650BBF804309D4228BF28
:102090001D464FEAE50942F21074174A9AF82930B2
:1020A0001168D3B900BF9AF82930B3B90125124B92
:1020B0001E6804FB05F3721A9A4209D301350D2DEF
:1020C0004FF000010D4828BF01250AF08DF8314678
:1020D00000BF9AF82930002BE9D09AF82830BBB11C
:1020E00000BF9AF82930002BF7D1DAF82030032B03
:1020F0001AD8014B1968D5E790010020040100208F
:10210000F800002058EE0008ACEE0008398EE338E5
:1021100050460BF05DFC00BF9AF82930002BDCD153
:10212000DAF82030032BE4D919EE102A18EE901AB1
:1021300007F1C4000AF062FCD7F8C83093FBF9F647
:10214000A6F10308B8F1020FA7D8944800210AF0BD
:102150004BF8BBF80630BBF80450914A9D4228BFAB
:102160001D4606EBC60905FB06F3A2FB032309F196
:10217000FF3607F5DA72164407F5DE72C3F34F0334
:1021800091440024092216F8011FCDE90052844A27
:10219000C7F89430A2FB0402C2F34F025846FEF780
:1021A0005DFFB145D7F894302C44EBD14FF4FA7071
:1021B00003F0A4FAB8F1000F01F04783B8F1010F62
:1021C0003B6C01F03B83032B0CBF05230323FB6215
:1021D000FB6C13B118460BF01DFD3C6C04FB04F3C3
:1021E00018460AEE103A1D460BF00CFDFA6BF86427
:1021F00002FB04023A6100EB84026B1EBA604242A9
:10220000BA61FB60421E53467A61DA469B460AF089
:102210006BF864484FF0FF3109F0E6FFBAF804901C
:10222000BAF8068009FB08F3002B39D05E4C4E4605
:102230000025C1460BF01CFE80B206FB00F1A4FB9A
:102240000131BAF80460C1F3CF384645F2D9BAF883
:102250000660B1450DD30BF00BFE1FFA80F906FBAB
:1022600009F9A4FB0939BAF80660C9F3CF394E451C
:10227000F1D94E4B019309F101039BB2009308F190
:1022800001034A469BB24146504602F0E3F9BAF8D0
:102290000460BAF80690013509FB06F39D42C9DBDC
:1022A0003B6B4249013350463B6302F0DFFAFC6C62
:1022B0001AEE102A002120460BF0DCFCBAF806606A
:1022C000BAF80430BA69FC619E4228BF1E4600235A
:1022D000C7E92033B04650463E6CD7F83CA0C7F85B
:1022E0008830C7F88C20C7F87CB0D7F88430D7F88E
:1022F0008820B3FBF6F9FB6C9D18D7F88C300024CE
:102300001FFA89F903F1FF3BC7F8944015F8011B48
:10231000D7F89440B4FBF6F20129CDE901864B468B
:1023200092B227D06FF07F440094D7F89440444491
:10233000C7E92404FEF736FD0BEB05039A45D7F8F1
:102340009000E3DCD7F88430D7F880204344C7F806
:102350008430D7F88C309B1BC7F88C30D7F8883086
:1023600092453344C7F8883002F1010320DDC7F8F5
:102370008030BAE74FF47F0300934B46C7F89000D4
:10238000FEF710FDD7F89420D7F890000BEB05036B
:1023900042449A45C7F89420B8DCD3E7F8000020FF
:1023A000398EE338EC0000200180008000FFFF0040
:1023B000824607F1B40107F5A070D7F87CB0C34D91
:1023C000C34E0BF0ACFD07F1B400FEF7D4FA07F5ED
:1023D000A07319180A22386B0BF0ECFD07F5A070FA
:1023E000FEF7C9FA2B78BA6C029600242E4600FB41
:1023F000132000954FF47F05C0F34F011AEE902A89
:102400005046019507F5A073039402F011FEB04BFE
:1024100001931AEE902AAF4B00965046CDE9025434
:10242000214602F005FE07F1A40107F5A0700BF0AC
:102430006DFD0A220146786B0BF0BCFD07F5A0701C
:10244000FEF799FA07F5A07C604407F1AC010BF0A8
:102450005DFD0A220146B86B0BF0ACFD07F5A070DC
:10246000FEF789FA3378BA6C03943546984E009596
:1024700000FB1320C0F34F0119EE902A07F5A0735B
:102480005046CDE9014602F0D3FD934D07F5927019
:10249000FEF771FA2B78BA6C009500FB1320FF252C
:1024A000C0F34F011BEE102A07F592735046CDE999
:1024B0000264019502F0BCFD07F58670FEF75BFA39
:1024C00085490B780394BA6C009100FB1320C0F38C
:1024D0004F0107F586735046CDE901561BEE902A51
:1024E00002F0A6FD0123BB665B46D3469A46002355
:1024F00087F89F3087F89E3087F89D3087F89C30AA
:1025000087F89B30BB6E002B00F06881FA6CF9688D
:102510007B69511813F8012F002A00F0C2829942FA
:10252000F8D1BB6A87F89C3087F89B30BB6B0533CA
:10253000BB637B6B05337B6307F1D80308EE103A6E
:102540004FF0010942F21074B9F1000F40F0A98375
:10255000624A9AF829301168D3B900BF9AF8293035
:10256000B3B901255D4B1E6804FB05F3721A9A424C
:1025700009D301350D2D4FF00001594828BF012521
:1025800009F032FE314600BF9AF82930002BE9D01D
:102590009AF82830002B00F0128100BF9AF82930F9
:1025A000002BF5D1DAF82030032BD1D919EE102AFF
:1025B00018EE901A07F1BC000AF020FAD7E92F2391
:1025C0002F2A06D87968994203DA39688B427FF757
:1025D000C7AA396CB86CB0FBF1F893FBF8F39942D9
:1025E000B2D992FBF8F88845AED2F86C01FB0381B2
:1025F0004218415C0029A7D11E46022313703948B6
:10260000B9660C4609F0F0FDBB6C386CBC6508FB84
:1026100003F206FB03F3B2FBF0F2B3FBF0F392B26A
:102620009BB2C7F89420FB655846C7F824A0274CF6
:1026300023785A1ED210551C042D3D6700F3C48622
:102640006678C7F88060EA00F31A511E03EBD37373
:1026500001228A405B1002FA03F37B64237A6168EB
:1026600079674F2B0AD8627A4E2A07D9C3F14F03F4
:10267000DBB205FB03F306FB03137B67D7F880107F
:10268000002900F0ED85BC6D174B83FB04231A195C
:10269000E317A3EBE2132D3BDBB21A0242EA03423B
:1026A00013433B65D7F89430013B9BB2C7F88430A5
:1026B000FB6D013B9BB27B6511FB01F3C7F89030CA
:1026C0003B6C002201FB03FA10E000BF0400002075
:1026D00000FFFF008CEF0008100000209001002098
:1026E00004010020F8000020818080804B1E7A6663
:1026F000BB67FA66FA673A663B6F012B00F0EE851E
:10270000022B00F02286032B00F024867B6FD3F887
:1027100000B0B96CD7E917321A447B6E0B44D7E985
:102720001C4121447967796D7B66B3FBFAF301EBB9
:1027300003083B66D7E91E138B4292B21FFA88F852
:1027400000F09885002B00F0CE85FB6E0026C3EBD1
:1027500003293446354624E0B96F8C4225D0796C84
:102760000B423B6D08BFFF230193D7F894305919F2
:10277000BB6CCDF800801E44D7F88430B6FBFAF568
:102780002B44C7E922209BB289B201F063FFD7F83E
:1027900080300134A342D7E9222009F1FF0900F07B
:1027A00051850BFA04F3002CD6D1D7F89030B9FB41
:1027B000F3F3DBB243F47F0343F47F43D4E75046A3
:1027C0000BF006F900BF9AF82930002B7FF4E0AE39
:1027D000DAF82030032B7FF6BBAEE7E6FA6CF96837
:1027E0007B695418BA6E13F8011F501C01B9C2B2AC
:1027F000A342F8D1002A3FF494AE02EB42039B00BF
:10280000073300266A46FC6CBD6AC7F88CA023F02B
:102810000703C7E92466ADEB030D07EE902A07EE28
:1028200010BA0DF11008A14699F800A0BAF1000FF6
:1028300000F09A8099F801A0BAF1000F00F0CA8068
:1028400099F802A0BAF1000F00F0F9803B6C032B5D
:102850001DD099F803A0BAF1000F00F00683042DF3
:1028600015D099F804A0BAF1000F00F02E83052DC1
:102870000DD099F805A0BAF1000F00F02D84072DB6
:1028800005D199F806A0BAF1000F00F06784D7F8D7
:1028900090303A6C0133C7F89030DBB2AB429144D0
:1028A000C7F89430C0D317EE10BAD7F88CA0D8F878
:1028B000040098F80840DEB1BD6E424600230AE0ED
:1028C000117A8C4201DA1D460C460133DBB2B34269
:1028D00002F10C020BD051688842F6DCF0DA1D469A
:1028E0000133DBB2B342084602F10C02F3D12E46AB
:1028F00006EB460608EB860318F826205B7887F877
:102900009C3017EE903A87F89B209D46BA6A97F85C
:102910009B309A423FF40AAE97F89C0082423FF403
:1029200005AE3A6C02FB03F30344FA6CD45C002C52
:1029300000F0D68007F19F030093B96AF86C07F1A5
:102940009E0307F19D02FEF78DFD814600283FF4AE
:10295000F9AD0128BB6B7FF4EAAD0A33BB6307F125
:10296000E80308EE103AEDE54FF0010389F8003076
:1029700006EB4603D7F8942008F8232008EB8302DF
:102980001346083382F801A082F808A0C2F804A018
:1029900087F8B4A187F8C4A09346009307F1C40256
:1029A00007F5DA7329462046FEF75CFD002800F0A3
:1029B0006781012818BF5046CBF8040099F801A0A0
:1029C00001364FF0000389F80030F6B2BAF1000F7B
:1029D0007FF436AF06EB4603D7F8942008F823209F
:1029E00008EB830213464FF001010833517089F858
:1029F000011082F808A0C2F804A087F8B4A187F8F3
:102A0000C4A09346009307F1C40207F5DA73294680
:102A10002046FEF727FD002800F01682012818BF87
:102A20005046CBF8040099F802A001364FF000039D
:102A300089F80130F6B2BAF1000F7FF407AF4FF01A
:102A4000010389F8023006EB4603D7F8942008F812
:102A5000232008EB8302134608334FF00201517024
:102A600082F808A0C2F804A087F8B4A187F8C4A02F
:102A70009346009307F1C40207F5DA73294620460E
:102A8000FEF7F0FC002800F01683012818BF50461E
:102A9000CBF8040001364FF0000389F80230F6B29B
:102AA000D4E6BC6A0BF0E4F987F89B000BF0E0F980
:102AB00097F89B30C0B29C4287F89C00F2D93A6CE0
:102AC00002FB03F3FA6C84420244EBD9D25C002A85
:102AD000E8D1FA6CBC620344D45C002C7FF42AAFCA
:102AE00011460122CA54BC48214609F07DFBC7F8B3
:102AF00024A0D7F848A07C645846B84C23785A1EC6
:102B0000D210551C042D3D6700F3D1826678C7F8BA
:102B10008060EA00F31A511E03EBD37301228A404E
:102B20005B1002FA03F37B65237A6168F966582B20
:102B30000AD8627A572A07D9C3F15803DBB205FBDA
:102B400003F306FB0313FB66D7F88010002900F09F
:102B50000C827C6CA24B83FB04231A19E317A3EBB2
:102B6000E213013BDBB243EA032343F47F033B65FB
:102B700097F89C303C6C0AFB03F3B3FBF4F39DB273
:102B800097F89B30C7F894500AFB03F3B3FBF4F3B8
:102B90009BB2FB65013B9BB2BB656B1E9BB2C7F84A
:102BA000903011FB01F30022C7F88C3001FB04F3D5
:102BB00001397A667967BA66BA673A669B463B6FAF
:102BC000012B00F0DC81022B00F03782032B00F098
:102BD0003882FB6E1B68FB67D7E91732D7E91B14F5
:102BE0001A4421447B6EF966B96D53447B66B3FB8E
:102BF000FBF301EB03083B66D7E91D138B4292B24E
:102C00001FFA88F800F0BF81002B00F0EA81BB6E4C
:102C10000026C3EB03293446354623E0796F8C4206
:102C200024D0796D0B423B6D08BFFF230193D7F889
:102C30009430CDF800805919D7F890305644B6FB3F
:102C4000FBF52B44C7E921209BB289B201F002FDBC
:102C5000D7F880300134A342D7E9212009F1FF09D8
:102C600000F07581FB6FA340002CD7D1D7F88C30D2
:102C7000B9FBF3F3DBB243F47F0343F47F43D5E7BF
:102C8000FB6A029307F19C03019307F19B030093F6
:102C900002231A4629462046FEF7D0FCCBF8040052
:102CA0008CE65346DA469B4609F01EFB4D48002150
:102CB00009F09AFA97F89D60002E57D097F89E4039
:102CC000002C00F09380012E02D1012C00F098829C
:102CD000BAF80640BAF80430C7F894B09C4228BF4E
:102CE0001C46FB6BD7F81080D7F840B0002504FBDA
:102CF00003F6A94698F80010B5FBFBF2CDE9004BAE
:102D0000FB6B92B2A8EB0308504696FBFBF39BB219
:102D1000FEF7A4F9FA6B4A45A6EB0406254409F12F
:102D20000109E7DCD7F894B018EE100AFDF723FE8E
:102D30002A493C6A4A780B78A4EB5202BC6C00FB2F
:102D40001340294CFF23CDE90014C0F34F010020AC
:102D5000CDE9023092B2504618EE103A02F068F90E
:102D600042F2080002F0CAFCFFF751BA97F89E50F1
:102D7000002DD9D0BAF80630BAF804803A6C9845DC
:102D800028BF98466B1EC7F8943008FB03F3B3FBCB
:102D9000F2F39AB2FB6C03EB05095B463446AB4693
:102DA0001D46386CD7F89410A9EB0B038144595C8D
:102DB000B6FBF0F3CDE900809BB2C7F890205046F7
:102DC000FEF74CF9FA6BA2424644D7F8902004F182
:102DD0000104E6DCAB46A7E7F80000200400002071
:102DE00081808080D400002000FFFF00731EBAF8AD
:102DF0000420BAF80660964228BF16463A6C06FBD5
:102E000003F902FB03F5FB6CB9FBF2F96FEA050865
:102E1000A8EB03081D4443461FFA89F9D8469B4690
:102E20003B6C15F8011BB4FBF3F2CDE9006392B2E1
:102E30004B465046FEF712F9FB6B0BEB05029A422C
:102E40003444EDDBC3466FE7FB6A029307F19C0352
:102E5000019307F19B03009302231A46294620465B
:102E6000FEF7ECFBCBF80400DDE54FF0010389F839
:102E7000033006EB4603D7F8942008F8232008EB2C
:102E80008302134608330320507082F808A0C2F86A
:102E900004A087F8B4A187F8C4A09346009307F173
:102EA000C40207F5DA7329462046FEF7DBFA00284C
:102EB0003CD0012818BF5046CBF8040001364FF033
:102EC000000389F80330F6B2C9E44FF0010389F832
:102ED000043006EB4603D7F8942008F8232008EBCB
:102EE0008302134608330420507082F808A0C2F809
:102EF00004A087F8B4A187F8C4A09346009307F113
:102F0000C40207F5DA7329462046FEF7ABFA00281B
:102F100000F01381012818BF5046CBF80400013699
:102F20004FF0000389F80430F6B2A0E4FB6A029384
:102F300007F19C03019307F19B03009302231A46B8
:102F400029462046FEF77AFBCBF80400B6E71A467E
:102F5000BB6E1344FB67BB6FFA6FBA66D7F880206D
:102F600001339342BB677FF42AAE7A6C4FF601635C
:102F70009A4200F09C8002F2FD237B64BDE5FB6E6B
:102F80001B78FB6728E6002B65D0B96ED7F8803038
:102F90000026CB18FB67C1EB0125C3EB03293446A0
:102FA000D7F89430CDF800801919D7F88C30B5FBDC
:102FB000F3F3DBB243F47F0343F47F430193D7F889
:102FC00090305644B6FBFBF42344C7E9212089B274
:102FD000FF359BB201F03EFBA945D7E92120DFD1A7
:102FE000B9E7B96E1C46D7F88030CB18FB67C1EB48
:102FF0000125C3EB03292646D7F89430CDF800808D
:103000001919D7F88C30B5FBF3F3DBB243F47F0327
:1030100043F47F430193D7F890305644B6FBFBF45A
:103020002344C7E9212089B2FF359BB201F012FB8E
:10303000A945D7E92120DFD18DE7FB6E1B88FB670F
:10304000CAE5F96E8B781A044B7842EA03220B78B2
:103050001343FB67C0E5B96E1C46D7F88030CB1828
:10306000FB67C1EB0125C3EB03292646D7F8943053
:10307000CDF800801919D7F88C30B5FBF3F3DBB22B
:1030800043F47F0343F47F430193D7F890305644D1
:10309000B6FBFBF42344C7E9212089B2FF359BB27C
:1030A00001F0D8FAA945D7E92120DFD153E7D7F8B5
:1030B00024A083463EE4FB6A029307F19C0301933C
:1030C00007F19B03009302231A4629462046FEF788
:1030D000B5FACBF80400DDE44FF0010389F80530C0
:1030E00006EB4603D7F8942008F8232008EB830268
:1030F000134608330520507082F808A0C2F804A0D7
:1031000087F8B4A187F8C4A09346009307F1C402DE
:1031100007F5DA7329462046FEF7A4F900284DD0BA
:10312000012818BF5046CBF8040001364FF00003C9
:1031300089F80530F6B2FFF7A2BBFB6A029307F1EC
:103140009C03019307F19B03009302231A4629462F
:103150002046FEF773FACBF80400E0E64FF00103D7
:1031600089F8063006EB4603D7F8942008F82320A8
:1031700008EB8302134608330620507082F808A03B
:10318000C2F804A087F8B4A187F8C4A093460093BE
:1031900007F1C40207F5DA7329462046FEF762F903
:1031A000E8B1012818BF5046CBF8040001364FF0B3
:1031B000000389F80630F6B2FFF769BBFB6A029399
:1031C00007F19C03019307F19B03009302231A4626
:1031D00029462046FEF732FACBF80400A5E7FB6A41
:1031E000029307F19C03019307F19B0300930223D1
:1031F0001A4629462046FEF721FACBF80400D5E707
:10320000BAF80630BAF80460D7F81C909E4228BF7E
:103210001E46FB6B002503F102082C463B6C99F817
:103220000010CDE90063B5FBF3F39BB21A4650469C
:10323000FDF714FFFA6BA242C144354404F10104C6
:10324000ECDC71E51A46FB6E13449B46FB6FD7F826
:103250008020C7F86CB001339A42FB677FF44CAA18
:103260006F4BBA6D9A4200F0AF80A2F18403BB6548
:10327000FFF7DDB9002B7AD0FB6ED7F8801001EB99
:10328000030B0026CBEB0B29C7F86CB0D7F848B07E
:10329000C3EB03253446D7F89430CDF800801919D4
:1032A000D7F89030B5FBF3F3DBB243F47F0343F47C
:1032B0007F430193D7F884305E44B6FBFAF423448D
:1032C000C7E9222089B2FF359BB201F0C3F9A945B5
:1032D000D7E92220DFD1D7F86CB0B7E77B6F93F83E
:1032E00000B0FFF716BA1C46D7F88010FB6E01EB52
:1032F000030BCBEB0B29C7F86CB0D7F884B0C3EB4A
:1033000003252646D7F894301919BB6CCDF80080F8
:103310001E44D7F89030B5FBF3F3DBB243F47F03E0
:1033200043F47F430193B6FBFAF40BEB0403C7E9C4
:10333000222089B2FF359BB201F08CF9A945D7E96B
:103340002220DFD1D7F86CB080E77B6FB3F800B0F4
:10335000FFF7DFB97A6F92F802B053784FEA0B4B60
:103360004BEA032B13784BEA030BFFF7D2B91C4649
:10337000D7F88010FB6E01EB030BC3EB0325CBEBFF
:103380000B292646D7F894301919BB6CCDF800806C
:103390001E44D7F89030B5FBF3F3DBB243F47F0360
:1033A00043F47F430193D7F88430B6FBFAF4234407
:1033B000C7E9222089B2FF359BB201F04BF9A9453C
:1033C000D7E92220DED141E7FA6BD7F824A0396C87
:1033D000C7F864A0931C0124C7F88830FB6CFC6616
:1033E0004FF0000983463C67D44307EE90BA7869F2
:1033F000BE68D7F81080BD6A87F89E9087F89D90C8
:103400009C46C7F87C90C7F88490B967C7F88010CD
:10341000C7F89090C7F88C907C67CB46924615E130
:103420002CD4FFFF002A00F05F810A464FF0000E07
:10343000012493F80190B9F1020F05D0B9F1000F02
:1034400040F06D81013A012493F80290B9F1020F26
:1034500000F00581B9F1000F40F06981032902F104
:10346000FF3218BF012400F0698193F80390B9F18D
:10347000020F00F06E81B9F1000F40F06781013A50
:10348000042D18BF012400F0598193F80490B9F17C
:10349000020F00F06681B9F1000F40F08D81013A12
:1034A000052D18BF012400F0498193F80590B9F16A
:1034B000020F00F05F81B9F1000F40F08281013A04
:1034C000072D08BF012440F0398193F80690B9F127
:1034D000020F00F0C780B9F1000F00F07781DE46DF
:1034E00010F8012F022A00F00481002A00F0078161
:1034F000C7F8941000224FF0010910F801B0BBF199
:10350000020F0AD0BBF1000F40F00D81D7F89440B4
:10351000013CC7F894404FF0010900F1020B1BF881
:103520001AB0BBF1020F00F0B980BBF1000F40F000
:103530000B81D7F89440013CC7F89440032918BF89
:103540004FF0010900F0C6807C6F16F804B0BBF1A3
:10355000020F00F01B81BBF1000F40F02B81D7F868
:103560009440013CC7F89440042D18BF4FF0010966
:1035700000F0B08096F800B0BBF1020F00F00E81B1
:10358000BBF1000F40F01B81D7F89440013CC7F815
:103590009440052D18BF4FF0010900F09B8016F8EC
:1035A00001B0BBF1020F00F00181BBF1000F40F050
:1035B0000B81D7F89440013CC7F89440072D08BF11
:1035C0004FF0010940F0868006F1020B1BF81AB09B
:1035D000BBF1020F65D0BBF1000F40F08280D7F83D
:1035E0009440013C02FB04F4A645B8BFA6465FFA2E
:1035F0008EFB9CF80020022A0AD0002A40F084802A
:10360000D7F88020013AC7F880200122C7F884202B
:1036100098F80020022A06D0002A7BD1BA6F013A1E
:10362000BA670122FA67D7F89020D7F888400132AC
:10363000C7F89020D2B295420B44A8EB0A08A444E4
:1036400006F10106C7F88C2040F2C8801A78022AD9
:103650007FF4E8AE0A4600244FF0010EE9E60329A4
:103660007FF403AF0EFB02FEDE45B8BFDE46002C42
:103670007FF436AFD7F88C30D7F864B087F89FE086
:10368000013317EE90AA87F89D307B6B0A337B637A
:1036900007F1CC0308EE103AFFF706BB03297FF4CD
:1036A00053AFD7F8944004FB02F29645B8BF964654
:1036B0005FFA8EFBB9F1000F9BD1D7F88C30D94659
:1036C000013317EE90AAD7F864B087F89F9087F877
:1036D0009E30DAE7D7F8944004FB02F29645B8BF73
:1036E00096465FFA8EFB84E74FF0010E5246744611
:1036F0009FE6C7F894104FF000090122FDE6012271
:10370000C7F894A09146F8E600223A670122C7F86C
:1037100084207DE70022FA660122FA6783E74FF0F2
:10372000000E012490E600224FF00109F5E603297E
:103730004FF0000E18BF01247FF497AE0EFB02FE7F
:10374000DE45B8BFDE46CBE60022F7E64FF0000EBE
:1037500096E6042D86D093F80490B9F1020F7FF419
:103760009AAE052D3FF47EAF93F80590B9F1020FA4
:103770007FF4A1AE072D3FF4A8AE0EFB02FEDE459E
:10378000B8BFDE46002C7FF4ABAE73E7042D88D0C3
:1037900096F800B0BBF1020F7FF4F2AE052D80D099
:1037A00016F801B0BBF1020F7FF4FFAE072D3FF416
:1037B0000BAF76E70022D7E64FF0000E70E600224E
:1037C000E7E64FF0000E7BE60022F7E6013A0EFB3B
:1037D00002F25A45B8BF5A46964681E6D7F880208D
:1037E0003B6FB96FD7F864A002FB03F3FA6E01FBDD
:1037F00002F29342B8BF13469E45B8BF9E46D7F823
:10380000843087F89FE017EE90BA6BB1FB6F002B06
:103810007EF46DAE53469B46022317EE90AA87F8BE
:103820009E3087F89D3030E753469B46012317EEC4
:1038300090AA87F89E3087F89D3026E7032B0CBFAF
:1038400003230123FB62FEF7C3BC0123FB62FEF7E7
:10385000BFBC00BF2C4A136823F0070343F00203E8
:1038600010B51360136803F00703022BFAD1274940
:10387000274B0A6822F4404242F400420A601A6868
:1038800042F480321A601A689203FCD51A68214902
:1038900042F400221A6058681F4A01400A435A60E5
:1038A00059681B4A21F440315960196841F0807110
:1038B000196013689B01FCD59368154C23F0F00345
:1038C0009360936823F4E05343F4805393609368C8
:1038D00023F460439360936823F0030343F00203EF
:1038E0009360A36803F00C03082BFAD10B4801F096
:1038F000F5FE0A4801F014FFD4F88C3023F08073F1
:10390000C4F88C3010BD00BF003C02400070004085
:10391000003802400080BFFF192A400000BD0105A9
:103920002DE9F04FBF4AC04B116841F400712DEDF5
:10393000028B1160116841F480611160116841F4DB
:1039400080711160596CB94A41F480415964596CD5
:10395000ADF2947D01F4804114911499186C40F0FB
:10396000805018641B6C03F080531393139BD16831
:10397000AF4B4FF6FF0421400B43D360D268AB4CF2
:10398000C2F30222C2F10701131D042928BF04213A
:10399000062B4FF0FF3303FA01F38CBF033A0022EA
:1039A000DB4393401B01DBB284F82330FFF752FF67
:1039B000A04BA14A1B68A2FB03239B09013BB3F167
:1039C000807F09D24FF0E022F020536100210723CD
:1039D00084F82300916113610025CDE93255CDE9CA
:1039E0005355914A5595136BDFF86482934E43F01B
:1039F00080031363136B03F080031B931B9B136BF8
:103A000043F001031363136B03F001031C931C9B2E
:103A1000136B43F002031363136B03F002031D9354
:103A20001D9B02271C23C8F8183050A9B7610C222F
:103A300001234046CDE9502301244FF0000952975D
:103A400001F0C4FB50A91022012340464FF00208A8
:103A5000CDE95023CDE95289549401F0B7FB50A928
:103A6000022201233046CDE95023CDE952895494F6
:103A700001F0ACFB72490F238A6893FAA3F3B3FAFF
:103A800083F322F00F0204FA03F313438B6032A88E
:103A90008DF8CE703294ADF8CC4001F037FBF16870
:103AA00094FAA4F2B2FA82F294FAA4F30320A240A8
:103AB000B3FA83F3A34000FA02F221EA020204FA05
:103AC00003F31343F360326894FAA4F3B3FA83F375
:103AD000A34000FA03F322EA030394FAA4F4336048
:103AE000524B514EDB68DFF86881DFF868B1554F03
:103AF000C3F30223C3F10702042A03F1040128BF20
:103B00000422062988BFDD1E4FF0FF339340DB43BC
:103B100003F00403AB404C49434A1B01DBB2402095
:103B200081F806330860136B43F480031363136B4F
:103B300003F480031A933D4B1A9ADA68C2F3022207
:103B4000C2F10701131D042928BF0421062B4FF0E1
:103B5000FF3303FA01F36FEA03038CBF033A002239
:103B600003F0030393401B01374ADBB24FF00061BF
:103B7000002482F83B3350A85160282200210AF02B
:103B800079F8CDE93544736C43F480537364736CF6
:103B900003F480531793179B336B43F00103336394
:103BA000336B03F001031893189B336B43F002034C
:103BB0003363336B03F002031993199B0523379387
:103BC0004CF250334FF0030AA02232A94046119321
:103BD0000223CDE93223CDF8D0A001F0F7FA10226C
:103BE0000223CDE9322303220023CDE9342332A975
:103BF000002205231148CDE9362301F0E7FA134BE3
:103C00009A6D22F0606242F0C0629A659A6D22F06D
:103C1000C00242F040029A659A6D22F440329A65E1
:103C20001AE000BF003C02400038024000ED00E016
:103C30000003FA0500000020D34D6210000402408A
:103C4000003801400004004000E100E00064024050
:103C500000000240003001409A6D22F490729A6593
:103C60009A6D22F400729A659A6D42F480629A65A8
:103C70009A6D22F4C05242F400629A659A6D22F461
:103C8000C04242F400529A65DA6E22F00402DA660B
:103C900000224FF48273CDE950239FED7D8B4FF4CA
:103CA00000620023CDE9522300224FF40073CDE9D6
:103CB000542350A900220A235846CDE958238DEDFC
:103CC000568B01F05BFBDBF8043028AD23F01003CA
:103CD000CBF804302022C5E90044C5E902442C6138
:103CE000214650A809F0C6FFCDE93244CDE934445D
:103CF000CDE93644336CDFF8D4B143F002033364CA
:103D0000336C03F002031593159B40F2E7332B80CD
:103D1000D1232946AB60384601F0B8FB3B684FF031
:103D2000804923F080033B60D9F818349FED5A7B1B
:103D300043F00803C9F818348DED507B9FED587B94
:103D400050AA012138468DED527B549401F0EAFBD4
:103D5000D9F8183423F00403C9F818347B68DFF865
:103D6000709123F070037B60BB6823F08003BB601D
:103D7000336B43F001033363336B03F0010316939A
:103D8000169B40220223CDE9322332A900220223CE
:103D90004046CDE936238DED348B01F017FA08F05B
:103DA0005FFC48A1D1E9000108222A823E4BC5F8F8
:103DB000148004222A831022C5E900012A840FCB33
:103DC0000DF1780C0DF12C0E8CE80F00C5E902A85E
:103DD000C5F81C80DFF8FCA08EE80F004FF0020849
:103DE0004FF49B77CDE90348CDE90174CDE907ABEA
:103DF000F02609952D4A2E4D05920096CDF8189083
:103E0000CDF82880324650A93B46286800F0CEFA0B
:103E10000646286000F0CAFB6FF07F41304600F094
:103E200025FD119C0121204609F0BAFE50B309F08E
:103E3000F1FE04214FF4586009F0B2FE1D4A1E4DF8
:103E40001E494FF4106302930123CDE90030106046
:103E50004AF6444305221A4808F0E0FC0FCD22AC94
:103E60000FC495E8030022AA84E80300142132A8B5
:103E700009F0F2FC314632A808F014FE32A93046AF
:103E8000FDF7BCFD013CD4D0CCE700BFAFF3008010
:103E900000000000000000006000000000000000C2
:103EA0000000000068000000B0EE00089D5000080F
:103EB000980100209C010020C0EE00080060024034
:103EC000003C004000300140006402400551000801
:103ED000D9500008FD500008FEE700BFFEE700BF14
:103EE000FEE700BFFEE700BFFEE700BF704700BF70
:103EF000704700BF704700BF08B5044B186809F051
:103F0000DBFD034A13680133136008BDA4010020E0
:103F100090010020054B5A69D20700D47047044A2B
:103F200001211068596109F09DBD00BF003C0140AE
:103F3000A40100200148032100F0A8B80064024059
:103F400008B5094B58685B681B055ABF80F4806050
:103F500040F38020012008F013FA034B4FF47C62F9
:103F6000DA60BFF34F8F08BD006002400120704748
:103F700008B509F01DFE162303604FF0FF3008BDA1
:103F800008B509F015FE16230360FEE770B5161E8E
:103F900007DD0C468D19AFF3008004F8010BA54234
:103FA000F9D1304670BD00BF70B5161E07DD0C4656
:103FB0008D1914F8010BAFF30080AC42F9D13046F3
:103FC00070BD00BF4FF0FF30704700BF4FF400538B
:103FD0004B600020704700BF0120704700207047F1
:103FE00010B50C4C0C4B0D492268591A2AB11044DB
:103FF000884207D82060104610BD094A226010444C
:104000008842F7D909F0D4FD0C234FF0FF3203604A
:10401000104610BD940100200000012000040000A3
:10402000B8010020034AD2F8883043F47003C2F884
:104030008830704700ED00E0DFF834D00D480E49BD
:104040000E4A002302E0D458C4500433C4188C42F2
:10405000F9D30B4A0B4C002301E013600432A24257
:10406000FBD3FFF7DFFF09F0A9FDFFF759FC70470D
:104070000000012000000020740100200CD803087B
:1040800074010020B8010020FEE7000010B53D4B90
:1040900084468E4693E8030082B002AB03E9030036
:1040A0000EF108026A44BEF1030F12F8082C4FF01B
:1040B0003F0303FA02F388BF0CF10C01324A98BFA8
:1040C0000CF108010B60136833B19A6A944505D06E
:1040D000D3F84C36002BF8D102B010BDDA6A964501
:1040E000F6D11A6C22B15269B3F844101142EFD1E3
:1040F000264A12F80E005CF8002022F001024CF86B
:1041000000205CF80020D2070CEB000103D500BFB3
:104110000A68D407FBD4D3F83C26D2B95A6A51684E
:1041200021F0020151609168080604D500BF5A6A67
:1041300091680906FAD493F8411621B9196C11B1A6
:10414000B3F844308B61136823F04003136002B06E
:1041500010BDB2F5803F0BD24A600022C3F83C2666
:104160005CF8003043F001034CF8003002B010BDA1
:10417000A2F57F42FF3A4FF6FF744C60C3F83C262D
:10418000EEE700BFD8EE00089801002020F00008FC
:10419000F8B5456A2B685B0604461ED4226C1AB13A
:1041A000B4F844301B0493612B6823F42C432B6038
:1041B0002B6843F040032B600B78012B13D0022BAC
:1041C00069D0002B31D0236C13B1B4F844209A612C
:1041D0002B6823F040032B60F8BD00BF636A1B68A7
:1041E0005F06DBD5F9E74E7801F1020E002E58D0BC
:1041F00070460EEB060C636AA76B10F8012BA18FBB
:10420000B961DA609A68970707D400BF9A68910786
:10421000FBD59A68120603D500BF9A681206FBD434
:104220006045E8D10EEB0601C6E7A28F636AA66B74
:1042300048781204B261D8609A68960707D400BF24
:104240009A689007FBD59A68120603D500BF9A6852
:104250001206FBD48E7801F1030E16B370460EEBF6
:10426000060C636AA76B10F8012BA18FB961DA60A5
:104270009A68970707D400BF9A689107FBD59A6898
:10428000120603D500BF9A681206FBD46045E8D138
:104290000EEB060190E748788E1C01F02FFA3146AC
:1042A0008AE7714688E700BF70B504464089A58952
:1042B000A66901442A4488B292B21D4611461346AB
:1042C0000246B04701462046FFF762FF364994F8A0
:1042D0004800C5F3C40201EA15216B090A4303F43F
:1042E000FC631A43012892B201D152BA92B2636AB6
:1042F00019684E063ED494F8411629B9256C1DB1B3
:10430000B4F844100904A96194F8421611B9A16BDC
:10431000A58F8D611968022821F42C41196031D0D4
:104320001868D1B240F040001860D96099688907D8
:1043300003D400BF99688907FBD5120ADA609A682E
:10434000920707D400BF9A689607FBD59A681006B3
:1043500003D500BF9A681006FBD494F8412622B911
:10436000226C12B1B4F8441091611A6822F0400234
:104370001A6070BD00BF616A09684D06FAD494F8EE
:104380004800B8E7196841F400611960196841F004
:1043900040011960DA609A689007DBD400BF9A6820
:1043A0009507FBD5D6E700BF00F8FFFF2DE9F04FDA
:1043B00083B01F46BDF938300093BDF93C30BDF8DD
:1043C0003090BDF834809DF840B09DF858A001931E
:1043D0000C46002900F0DC800021054616462046E8
:1043E0004FF4CA6209F046FCDDF854C084F848A0D6
:1043F000BCE80F0004F1240EAEE80F00BCE80F008B
:10440000AEE80F00DCF80030CEF80030A36A002BD5
:104410003CD0E26A6449895C5A5822F001025A5041
:104420005A58D20703EB010005D500BF0268D20736
:10443000FBD494F848A0BAF1010F0BD0BAF1020FE7
:104440000ED15A5822F4F0425A505A5842F420528F
:104450005A5005E05A5822F4F0425A505A585A50CD
:104460005A5822F4802222F00E025A50426922F059
:10447000800242615A5842F010025A505A5822F4AF
:1044800000725A505A5842F480625A50B742394624
:1044900038BF3146BE4228BF3E46BBF1000F46D171
:1044A000009B6381019BA381A680E180A4F800901A
:1044B000A4F802804E4557D8884555D3119B002B50
:1044C00052D0129B002B4FD0119A6261129AA261B6
:1044D000139AE26117AB149A22620FCB4FF0000CD3
:1044E00004F14C0604F1600784F808B086E80F0078
:1044F00084F840C6C4F84CC6C4F848C6E765002D29
:1045000046D0D5F84C3653B101221D46D3F84C366F
:10451000511C1046CAB2002BF7D184F84006204641
:10452000C4F84856C5F84C4603B0BDE8F08FBBF15F
:10453000020F23D0BBF1010F2ED0BBF1030F13D11B
:10454000009BA381019BA8EB03035B1A63813246A6
:104550004B46A180E680A4F80080A4F802900E46A5
:10456000C14611469846A5E74FF4CA62002120468D
:1045700009F080FB002003B0BDE8F08F009BA9EBA1
:104580000302019B921BA8EB030362815B1A8AE77B
:10459000204603B0BDE8F08F019B6381009BA9EB2F
:1045A00003039B1BA381D2E720F00008036B10B527
:1045B00004465BB1828E12049A61192001F09EF8C4
:1045C000236BA28E9A61192001F098F86369207A12
:1045D000984701462046FFF7DBFD94F85A10E26C3D
:1045E00064290B4628BF642384F85A300AB3D16A81
:1045F000174801FB03F3216DA0FB0303B1F5807F96
:104600004FEA531322D00FD801291AD0102908BF1E
:1046100093631368DB0706D4136A194311621368A6
:1046200043F00103136010BDB1F5805FF1D1136455
:10463000EFE7636D002BF6D0B4F8582019B19A61FA
:1046400010BD5363E5E712049A61F9E7D363E0E72D
:104650001F85EB51F0B59C4683B06145BDF8203015
:10466000099E8E46044601D9E6468C469A4202D9F6
:1046700011461A460B46A188714540F29680E088A3
:10468000904240F2928061459CBF01F1FF311FFAD8
:1046900081FC98429CBF00F1FF3083B2A189608900
:1046A000A7699D1A0B4411440CEB000270449BB2A5
:1046B000ACEB0E0C89B292B2013580B20CFB055501
:1046C000B84701462046FFF763FD94F841362BB901
:1046D000226C1AB1B4F844301B04936194F842364A
:1046E00013B9A36BA28F9A615D4B94F8482003EA3B
:1046F0001623C6F3C4017609194306F4FC66314358
:10470000012A636A89B200F082801868A4F844160E
:1047100020F42C401860022A1A6848D142F4006242
:104720001A601A6842F040021A60A26A002A00F079
:104730008980E66A4B484C4910F806C003C902AFAD
:1047400007E9030006F10801032E0DEB010694446E
:1047500016F8080C8CBF0C3208323F2181401160E2
:104760005A6842F002025A600C33CCF8083004F266
:104770004463CCF80C30DCF8003023F40073CCF840
:104780000030DCF80030B5F5803F23F48063CCF8CE
:1047900000304DD20023CCF80450C4F83C36DCF88D
:1047A000003043F00103CCF8003003B0F0BD42F01C
:1047B00040021A60A26A002ABBD1C8B2090AADB190
:1047C000D8609A68960703D400BF9A689707FBD50C
:1047D000D9609A68920703D400BF9A689607FBD500
:1047E000013DEDD19A68120603D500BF9A68120602
:1047F000FBD494F8412622B9226C12B1B4F84410CB
:1048000091611A6822F040021A6003B0F0BD1A6884
:1048100049BA22F42C42A4F844161A601A6842F0ED
:1048200040021A60A26A89B2002AC6D06D0080E7F1
:10483000A5F57F454FF6FF73FF3DCCF80430C4F873
:104840003C56ACE7002DD1D0D9609A68920703D4CA
:1048500000BF9A689707FBD5013DF5D1C6E700BFB9
:1048600000F8FFFF20F00008D8EE000810B5C4885B
:104870008388013C82B00022A4B2013BCDE9004113
:104880009BB21146FFF7E6FE02B010BD2DE9F04FD6
:104890001F4683B0B942BDF93030DDF834B00D4663
:1048A000164600F099809A427AD0991A0029A7EB0F
:1048B0000502B8BF4942002AB8BF524291429C4605
:1048C0003446B846AE4640F38C80BC462C461F4664
:1048D0003546434676469046BD420BDDA4EB0C04BC
:1048E000B646AC4684EAE4781E463D46A8EBE4783A
:1048F00073466746A7EB0509C9F3C0344FF6FF7A44
:1049000004FA89F49E42B8BF4FF0010A91421FFA9F
:1049100088F81FFA89F94FEA640434DC83889D42E1
:104920000DDAC3889E420ADA002D32465B4606DB6A
:10493000002E04DB29460190FFF7B6FC0198A4EB9A
:1049400008031CB20135002C2DB29BB203DA564489
:104950004B4436B21CB2BD42E0DD03B0BDE8F08F7F
:1049600031460190FFF7A0FC0198A4EB08031CB2AC
:104970000135002C2DB29BB203DA56444B4436B2BB
:104980001CB2BD42E9DC8388B342EEDDC388AB4292
:10499000EBDD002E2A465B46E7DB002DE0DAE4E79C
:1049A000B94220DD002DD8DB8288BA42D5DD002B4C
:1049B000D3DBC288B242D0DD26EAE67227EAE7718D
:1049C0009BB20C9392B2ABB289B2CDF834B003B0C3
:1049D000BDE8F04FFFF73EBE9A42E3DD1E461346A8
:1049E000E0E7884678E73A4615460F46DAE700BF23
:1049F0002DE9F04F85B09CB20093C4EBC4335B004B
:104A00001BB287880193C4F101031BB28F42984601
:104A100006460E9B15468A461FFA82FB22DDB0F839
:104A200006C004EB0B0212B2944540F382810029C8
:104A300018DB002AC0F28F81FFF736FCB7880E9B87
:104A4000ABEB0402574512B20CDDB6F806C0944534
:104A500008DD002A06DB514630460E93FFF724FCA2
:104A6000B7880E9B1FFA8AFA04EB0A0109B2B94211
:104A700010DAB6F806C0AC451FDD0029C0F264812B
:104A8000002DC0F261812A4630460E93FFF70CFCE0
:104A9000B7880E9BAAEB040421B2B9420DDAB6F82E
:104AA00006C0AC4509DD002907DB002D05DB2A46E1
:104AB00030460E93FFF7F8FB0E9B009A002A40F356
:104AC0000B8100273046DAE0019A00990232013961
:104AD00018FA82F88CB212B209B2009101921FFA50
:104AE00088F80137BDB2B0F804C00AEB050908EB3D
:104AF00045080FFA89F908F101080BEB0402CC45CF
:104B00003FB20FFA88F812B240F3E980C1889142AF
:104B100040F3C580B9F1000FC0F2C180002AC0F295
:104B2000BE8049460E9302900392FFF7BDFB0298A8
:104B30000E9BB0F804C0AAEB050636B2664580F2BB
:104B4000F080C188039A914240F3A280002EC0F207
:104B50009F80002AC0F29C8031460E930290FFF79E
:104B6000A3FB02980E9BB0F804C0ABEB0402CC454B
:104B700012B214DDC1888A4223DAB9F1000FC0F203
:104B8000B980002AC0F2B6804946CDE902020E93F0
:104B9000FFF78AFB02980E9BB0F804C0039A6645A3
:104BA0000FDAC1888A420CDA002E0ADB002A08DB01
:104BB00031460E930290FFF777FB02980E9BB0F8F8
:104BC00004C00AEB04090FFA89F90BEB0506E1456D
:104BD00036B279DAC188B1426BDDB9F1000FC0F2AB
:104BE0008D80002EC0F29680324649460E93029088
:104BF000FFF75AFB02980E9BB0F804C0AAEB04041E
:104C000024B264457FDAC188B14257DD002C55DB00
:104C1000002E53DB324621460E930290FFF744FBF1
:104C200002980E9BB0F804C0ABEB0505CC452DB245
:104C300011DDC1888D421FDAB9F1000F57DB002D5D
:104C400055DB49462A460E930290FFF72DFB02984A
:104C50000E9BB0F804C064450EDAC1888D420BDAB1
:104C6000002C09DB002D07DB2A4621460E9302901B
:104C7000FFF71AFB0E9B0298009ABA422CDDB8F19E
:104C8000000FBFF621AFBDF800401FFA88F828E7F3
:104C9000ABEB0402CC4512B23FF76DAF82E7AAEB53
:104CA000050636B2B4453FF74EAFABEB040212B285
:104CB00061E7AAEB040424B2644524DAABEB0505F2
:104CC000E1452DB2B6DBC9E7AAEB040424B2644582
:104CD00099DB009ABA42D2DC05B0BDE8F08FAAEBAE
:104CE000050636B2B4457FF76CAFC1882BE7644543
:104CF000B6DBC1E76645FFF657AF62E7AAEB0404EF
:104D000024B2644582DBE145B6DAC188ABEB050528
:104D10002DB28FE7AAEB040424B26445FFF674AF0A
:104D2000F4E7E145BFF64DAFABEB0402C18812B228
:104D300021E7ABEB040212B26245BFF693AEBAF1C3
:104D4000000FBFF686AE8DE6AAEB040421B2B9428D
:104D5000FFF6A9AEB1E6ABEB040212B294453FF701
:104D600078AE7FE62DE9F04F85B094460191AF4AC9
:104D70000F99DDF8388002EA1122C1F3C40A4AEA29
:104D8000020A06464A0990F848009DF8441002F4C9
:104D9000FC624AEA020A0128109A1FFA8AFA03D131
:104DA0009AFA9AFA1FFA8AFAA04CC2F3C40904EAE2
:104DB0001224520949EA040902F4FC6249EA020297
:104DC00001281FFA82F903D199FA99F91FFA89F992
:104DD00098F808B09B4503D898F809209A4271D2F8
:104DE0004FF0000B98F80000471EFF100137042F0A
:104DF00065DCD8F8042098F8013007FB0BFB03FBB7
:104E00000B2BFA00013A012505FA02F20292002961
:104E10005DD0002B53D04FF0000A012F01461546FC
:104E20003046E1465646CDF8388043D0022F00F098
:104E3000CD80032F00F0CD80042F08BFDBF800A049
:104E4000BB4400293BD00FFA89F2002A29DB019CE0
:104E50004FF0000803E001344145A4B21FDD0AFA17
:104E600008F32B4208F10108F5D083880FFA84FC7F
:104E70006345F0DDB0F806E00F9B9645EBDDBCF135
:104E8000000FE8DB6146CDE90202FFF70DFA0E9B49
:104E9000197801344145DDE90202A4B2DFDC0E9B42
:104EA0005B7801369E420ADA09F10109012F1FFAE7
:104EB00089F9BBD19BF800A0BB440029C3D105B040
:104EC000BDE8F08FA3EB0B0B5FFA8BFB8AE7B18990
:104ED000019D74890CF1FF320A4413446A1E224476
:104EE000024428466144204492B29BB289B2B5691B
:104EF000746A80B2A84701463046FFF749F9326C20
:104F00001AB1B6F844301B049361B36BB28F9A6147
:104F1000236823F040032360236823F42C43236099
:104F200096F84830022B61D0236843F04003236099
:104F300098F8013093B3012F98F80030029D4FF09C
:104F4000000C27D0022F62D0032F63D0DBF80000C3
:104F5000BB441BB3002200FA02F1A368294214BF2C
:104F6000514649469B0703D400BFA3689B07FBD566
:104F700096F84830022B3ED1E16098F800300132BB
:104F80009342E8DC98F801200CF1010C624505DD44
:104F9000012FD7D19BF80000DAE700BFA3689A077A
:104FA000FBD5A3681B0603D500BFA3681B06FBD473
:104FB0002368326C23F040032360002A3FF47FAF64
:104FC000B6F84430936105B0BDE8F08FBBF800A09F
:104FD00036E79BF802A09BF801204FEA0A4A4AEA0A
:104FE000022A9BF800204AEA020A29E7236843F4D0
:104FF0000063236098E7CBB2E360A3689B07C1F32B
:105000000F21B9D400BFA3689B07FBD5B4E7BBF859
:1050100000009DE79BF802009BF80120000440EA95
:1050200002209BF80020104392E700BF00F8FFFF2A
:105030002DE9F04F1F4685B01B780E9E9DF844A0C9
:10504000DDE90F8905460C46934603B396F800C088
:10505000AA88A4449445284609DD7178EC888B44DD
:105060001FFA8BFB5944A1424FF000040FDC21468C
:10507000CDE9029ACDE900685A46FFF773FE96F82B
:1050800000C017F8013F6444A4B2002BE0D1EC81CA
:10509000A5F810B005B0BDE8F08F00BF58B10228E8
:1050A0000ED0012811D003280A4814BF0023F8238A
:1050B00080F8413070470748482380F841307047F6
:1050C00004489C2380F84130704702482C2380F824
:1050D000413070471C00002010B4074C49BA618170
:1050E00020715BBA000A110AE07061712046A2715A
:1050F000A3815DF8044B7047B00000200048704762
:10510000C400002000487047CC00002010B40346C3
:105110000079A8B1186880B15A79012A2FD0022AE3
:105120001BD01AB301229B79002B3AD0022B30D02E
:10513000032B44D0012B38D001205DF8044B70477D
:10514000214A1C68116821EA04011160536823EAAE
:10515000040353605DF8044B70471B490C6804431B
:105160000C604C68044300224C60DCE716494C6834
:1051700024EA00044C600C6804430C60D3E7124935
:105180000C6824EA00040C604C68044300224C6064
:10519000C9E70D4B996821EA00019960D968084375
:1051A000D86010465DF8044B7047074BD96821EA78
:1051B0000001D9609968084398601046BDE7024B2A
:1051C00099680143E9E700BF003C01402DE9F04741
:1051D0000C6894FAA4F2B2FA82F234FA02F37DD0A7
:1051E0004FF0010E4FF0030C4FF00F0A17E0D0F80C
:1051F000008093FAA3F7B7FA87F793FAA3F3B3FA09
:1052000083F37F000CFA07F75B0028EA070705FA2B
:1052100003F33B430360013234FA02F35ED00EFA2B
:1052200002F32340F7D04D686F1E012F1FD8D0F82E
:10523000088093FAA3F7B7FA87F793FAA3F98E6871
:10524000B9FA89F97F000CFA07F74FEA490928EA09
:10525000070706FA09F947EA090787604768CE6831
:1052600027EA030706FB03F847EA08074760D0F878
:105270000C8093FAA3F7B7FA87F793FAA3F90E69AC
:10528000B9FA89F97F000CFA07F74FEA490928EAC9
:10529000070706FA09F947EA0907022DC760A6D1F0
:1052A00093FAA3F7B7FA87F7072F1ADCD0F8208014
:1052B00093FAA3F7B7FA87F793FAA3F94E69B9FA05
:1052C00089F9BF000AFA07F74FEA890928EA0707B0
:1052D00006FA09F947EA0907076288E70020BDE8EE
:1052E000F087D0F824901F0A97FAA7F8B8FA88F840
:1052F00097FAA7F74E69B7FA87F74FEA88080AFACC
:1053000008F8BF0029EA080806FA07F748EA07077D
:1053100047626CE7B0F5000F01D000207047134AD8
:1053200093681B0220D4106810F000601BD05168F5
:105330000F4B10B45468D2F88400D2F8842011F4D2
:10534000800FC0F3881104F03F0C0A485DF8044B4D
:10535000C2F3027218BF1846B0FBFCF001FB00F06C
:10536000B0FBF2F0704770470348704700380240C6
:1053700040787D010024F4000080BB0002460068F4
:1053800010F0400028D1136830B423F47F4CD1E9E9
:1053900000352B438D684C692B43CD682B430D6939
:1053A0002B438D6923432B43CD692B430D6A2CF08E
:1053B000BF0C2B4343EA0C031360536823F0040330
:1053C00043EA1443B5F5005F53600BD0D36923F46F
:1053D000006330BCD3617047D36923F400630120BC
:1053E000D36170478B8C1361F0E700BFC3695B0525
:1053F0003AD470B50D460446C1692B68D5E9012041
:1054000021F433611A4321F00F016B690A4302430F
:105410001A432B6942F40062022BE26126D0002875
:105420004FF400000CBF20264026FFF773FFEA6808
:10543000B2F5007F1FD0B0FBF6F303EB83032969BD
:105440005B00B3FBF1F305330F49A1FB031319090B
:10545000881EFD28C3F3C00394BF41EA032302233F
:1054600013432362002070BD01207047EA68134394
:105470002362002070BD000A00EB80035B002869F6
:10548000B3FBF0F30533DFE7CDCCCCCC244A036883
:10549000904230B434D0B0F1804F1DD0A2F57C42A0
:1054A000904219D002F58062904215D002F58062D8
:1054B000904211D002F59A32904211D002F58062EA
:1054C00090420DD002F58062904209D08C680A8823
:1054D0000360C46282620CE04A6823F070031343E5
:1054E000CD688C680A8823F440732B430360C46240
:1054F0008262436943F00103436130BC002070477E
:105500004C68CA6823F07003234323F440731343A9
:1055100003608A680B88C26283620B690363E8E7F1
:1055200000000140B1F5807F30B470D026D8012949
:105530004ED0102948D1036A156923F01003036285
:10554000036A4468816923F0200343EA0513156860
:1055500021F4E64141EA0521556823F0100343EAAE
:1055600005135D4DA84200F09C80D5684460002280
:1055700081618563036230BC10467047B1F5805F7E
:1055800022D1036A156923F480530362036A4468D5
:10559000C16923F4005343EA0533156821F4E64159
:1055A00041EA0521556823F4805343EA05334A4D07
:1055B000A84200F08B80D56844600022C161056478
:1055C000036230BC104670470122104630BC704761
:1055D000036A156923F001030362036A4468816961
:1055E00023F002032B43156821F07301294355680A
:1055F00023F001032B43384DA8423ED0D5684460C8
:10560000002281614563036230BC10467047036A23
:10561000156923F480730362036A4468C16923F443
:10562000007343EA0523156821F073012943556887
:1056300023F4807343EA0523274DA84208D0D56898
:1056400044600022C161C563036230BC10467047EC
:10565000556923F4006343EA8523956924F4805453
:1056600044EA0514956823F4806343EA8523D569E9
:1056700024F4005444EA4514E1E7556923F0080393
:1056800043EA8503956924F480742C43956823F0DC
:10569000040343EA8503D56924F4007444EA45040D
:1056A000ACE7556923F0800343EA8513956924F438
:1056B000806444EA8504956823F0400343EA851337
:1056C000D56924F4006444EAC5044EE7956924F4DE
:1056D000804444EA85146EE700000140064BA3FBBA
:1056E00000304FF0E0228309013B00200521536187
:1056F00090611161704700BFD34D62104FF0E023FD
:1057000082B01B690193421C019B18BF01304FF00E
:10571000E0221369DB03FCD50138FAD102B07047EF
:10572000014B1860704700BF000000200023C0E953
:105730000023C0E902317047426801F01F01F0B454
:10574000C1F11F03846822FA03F38A404260621A9F
:10575000002A4FEA5303826002DB1846F0BC704710
:10576000C568032DA1EB04012CDC00244460002D4E
:1057700047D00668741C04603478012D4FEA042475
:1057800044600CD0B71C076077783C432402022D9C
:10579000446004D0F71C0760B67834432402C5F196
:1057A0000306F600B44002F1200604FA01F1F440C9
:1057B0002343002402EBC502C460C0E90112F0BC1F
:1057C0001846704706683746741C046017F8024B89
:1057D000076024064460777844EA0744F71C446075
:1057E0000760B77844EA0724371D44600760F678FD
:1057F00020323443043D04FA01F1D440C560234310
:10580000DBE72946D5E700BF10B404688368611A56
:10581000C3EBC103981A5DF8044B704730B10368BD
:1058200023B15869003818BF012070474FF0FF308E
:10583000704700BF002800F0C9800368002B00F00B
:10584000C5800A78FF2A40F0C1804A782DE9F04FE0
:1058500002F0E004E02C40F0B6804FEAD20C12F0E7
:10586000180F1ABF6FEA0C0C0CF0010C4FF0020C71
:1058700083F800C091F801E0CEF3410ECEF10409A7
:10588000C3F804904D78ED4305F001059D608A78DA
:105890001709DF608A78C2F381021A618E78C6F335
:1058A00040065E618C7804F001049C6191F80380ED
:1058B0004FEA981883F81C80CC78C4F301141C625A
:1058C000CC78C4F3C0045C62CC78C4F380049C62DE
:1058D000CC78032A04F00304DC6274D0B9F1040F1D
:1058E00071D00F2F6FD002EBC20402EB8404DFF8FB
:1058F000F8A064004FF0DE0B0BFB0C445444B8F1ED
:10590000010F5C6306D00024B8F1030F1C6201D1C3
:10591000012400E00224C0F8D0970CEB4C0909EBFD
:10592000020AC0F8BC472B4C80F8D4C754F82A4070
:10593000C0F8C047CEF1030E09EB0E0A264CBCF1AD
:10594000000F34F91A400CBF4FF0020A4FF0010A61
:105950004FEA4C0C94FBFAF4C0F8C4A7C0F8C8474F
:105960002FB3C9EB0919CEEB0E1EC2EB0212CE44C7
:105970004A44BE443A44194F194C37F91220194F82
:1059800034F91E40B8F1030F18BF0CF1010C37F9C0
:105990001C70D21BC4EB441704EB8704E400C0F86E
:1059A000B847141F05B1941F2644C0F8CC671DB931
:1059B0001D630420BDE8F08F8A8852BA92B2062097
:1059C0001A63BDE8F08F4FF0FF30F3E74FF0FF3080
:1059D000704700BFF045010814460108D04801088F
:1059E000E0440108C4480108284601082DE9F04FA9
:1059F0008BB0002801F06180D0F800B00646BBF102
:105A0000000F01F05A8044680494002C01F0558086
:105A10009BF80080B8F1000F00F0ED809BF81C307F
:105A20000691032B06AD0CBF092211220821002389
:105A30002846CDE9073305920992FFF77DFE049CC5
:105A400020609BF81C30032B0CBF0121022128464B
:105A5000FFF772FE6060D6F8C437002B40F3C380B6
:105A6000D6F8BC37049A0392002B4FF00002029242
:105A700040F3B980039C0027B2460C212846FFF76B
:105A80005BFE0921A0622846FFF756FE0821E0626E
:105A90002846FFF751FE20639BF80030002B0CBF17
:105AA000042109212846FFF747FE6063DDE907016D
:105AB00001F1FF3E4300BEF1000F07934FEAD070A3
:105AC000CDF820E0C0F2B581A063002800F0D280BC
:105AD00002212846FFF730FEDDE9073E0EF1FF31D7
