:020000040800F2
:1000000000000120113E0008B13C0008B53C00088A
:10001000B93C0008BD3C0008C13C000800000000DD
:10002000000000000000000000000000C53C0008C7
:10003000C93C000800000000CD3C0008D13C00088D
:10004000613E0008613E0008613E0008613E000814
:10005000613E0008613E0008ED3C0008613E00087A
:10006000613E0008613E0008613E0008613E0008F4
:10007000613E0008613E0008613E0008613E0008E4
:10008000193D0008613E0008613E000800000000C4
:10009000000000000000000000000000613E0008B9
:1000A000613E0008613E0008613E0008613E0008B4
:1000B000613E0008613E0008613E0008613E0008A4
:1000C000613E0008613E0008613E0008613E000894
:1000D000613E0008613E0008613E0008000000002B
:1000E000613E0008613E0008613E0008000000001B
:1000F000000000000000000000000000613E000859
:1001000000000000613E0008613E0008613E0008FA
:1001100000000000000000000000000000000000DF
:10012000613E0008613E0008613E00080D3D000888
:10013000613E000800000000000000000000000018
:10014000000000000000000000000000613E000808
:10015000613E0008613E0008613E0008613E000803
:10016000613E0008613E0008000000000000000041
:10017000000000000000000000000000000000007F
:1001800000000000613E00080000000000000000C8
:04019000613E0008C4
:1001A00010B5054C237833B9044B13B10448AFF3B1
:1001B00000800123237010BD7401002000000000A6
:1001C00008E3000808B5034B1BB103490348AFF32C
:1001D000008008BD000000007801002008E300084E
:1001E0002DE9F04F82B001904FF000744FF000788D
:1001F0004FF000054FF0000952F804CB52F804EB21
:100200000868CB6DC0FB0C45D1F88000CEF1000E24
:10021000C3FB0E45D1F8DC30C0FB0C89C3FB0E8953
:1002200052F804CB52F804EB48688B6DC0FB0C45C8
:10023000D1F88400CEF1000EC3FB0E45D1F8D830C2
:10024000C0FB0C89C3FB0E8952F804CB52F804EBB7
:1002500088684B6DC0FB0C45D1F88800CEF1000ECC
:10026000C3FB0E45D1F8D430C0FB0C89C3FB0E890B
:1002700052F804CB52F804EBC8680B6DC0FB0C4578
:10028000D1F88C00CEF1000EC3FB0E45D1F8D03072
:10029000C0FB0C89C3FB0E8952F804CB52F804EB67
:1002A0000869CB6CC0FB0C45D1F89000CEF1000E74
:1002B000C3FB0E45D1F8CC30C0FB0C89C3FB0E89C3
:1002C00052F804CB52F804EB48698B6CC0FB0C4528
:1002D000D1F89400CEF1000EC3FB0E45D1F8C83022
:1002E000C0FB0C89C3FB0E8952F804CB52F804EB17
:1002F00088694B6CC0FB0C45D1F89800CEF1000E1C
:10030000C3FB0E45D1F8C430C0FB0C89C3FB0E897A
:1003100052F804CB52F804EBC8690B6CC0FB0C45D7
:10032000D1F89C00CEF1000EC3FB0E45D1F8C030D1
:10033000C0FB0C89C3FB0E8901984FF4FE4E4EF0B2
:10034000FF0E4FEA946444EA851404F30F044FEA65
:10035000986848EA891808F30F080480A0F802801A
:1003600002F5707201F580514FF000744FF0007883
:100370004FF000054FF0000952F804CB0868D1F89F
:100380008030C0FB0C45C3FB0C8952F804CB486895
:10039000D1F88430C0FB0C45C3FB0C8952F804CB68
:1003A0008868D1F88830C0FB0C45C3FB0C8952F833
:1003B00004CBC868D1F88C30C0FB0C45C3FB0C895A
:1003C00052F804CB0869D1F89030C0FB0C45C3FB50
:1003D0000C8952F804CB4869D1F89430C0FB0C4525
:1003E000C3FB0C8952F804CB8869D1F89830C0FB64
:1003F0000C45C3FB0C8952F804CBC869D1F89C307A
:10040000C0FB0C45C3FB0C8901984FF4FE4E4EF027
:10041000FF0E4FEA946444EA851404F30F044FEA94
:10042000986848EA891808F30F08A0F84040A0F837
:100430004280A2F57872A1F570614FF00F0C00F1C7
:100440000400CDF800C001904FF000744FF0007828
:100450004FF000764FF0007A4FF000054FF00009A2
:100460004FF000074FF0000B52F804CB52F804EBAA
:100470000868CB6DC0FB0C45C0FB0E67CEF1000ECB
:10048000C3FB0C67C3FB0E45D1F8DC30D1F880000C
:10049000C3FB0E89C3FB0CABCEF1000EC0FB0C8975
:1004A000C0FB0EAB52F804CB52F804EB48688B6DDE
:1004B000C0FB0C45C0FB0E67CEF1000EC3FB0C6702
:1004C000C3FB0E45D1F8D830D1F88400C3FB0E89A8
:1004D000C3FB0CABCEF1000EC0FB0C89C0FB0EAB16
:1004E00052F804CB52F804EB88684B6DC0FB0C4506
:1004F000C0FB0E67CEF1000EC3FB0C67C3FB0E45BD
:10050000D1F8D430D1F88800C3FB0E89C3FB0CAB03
:10051000CEF1000EC0FB0C89C0FB0EAB52F804CB31
:1005200052F804EBC8680B6DC0FB0C45C0FB0E67AE
:10053000CEF1000EC3FB0C67C3FB0E45D1F8D030E3
:10054000D1F88C00C3FB0E89C3FB0CABCEF1000EBF
:10055000C0FB0C89C0FB0EAB52F804CB52F804EB85
:100560000869CB6CC0FB0C45C0FB0E67CEF1000EDA
:10057000C3FB0C67C3FB0E45D1F8CC30D1F890001B
:10058000C3FB0E89C3FB0CABCEF1000EC0FB0C8984
:10059000C0FB0EAB52F804CB52F804EB48698B6CED
:1005A000C0FB0C45C0FB0E67CEF1000EC3FB0C6711
:1005B000C3FB0E45D1F8C830D1F89400C3FB0E89B7
:1005C000C3FB0CABCEF1000EC0FB0C89C0FB0EAB25
:1005D00052F804CB52F804EB88694B6CC0FB0C4515
:1005E000C0FB0E67CEF1000EC3FB0C67C3FB0E45CC
:1005F000D1F8C430D1F89800C3FB0E89C3FB0CAB13
:10060000CEF1000EC0FB0C89C0FB0EAB52F804CB40
:1006100052F804EBC8690B6CC0FB0C45C0FB0E67BD
:10062000CEF1000EC3FB0C67C3FB0E45D1F8C03002
:10063000D1F89C00C3FB0E89C3FB0CABCEF1000EBE
:10064000C0FB0C89C0FB0EAB01F5807101984FF423
:10065000FE4E4EF0FF0E4FEA946444EA851404F314
:100660000F044FEA986848EA891808F30F084FEA20
:10067000966646EA871606F30F064FEA9A6A4AEA32
:100680008B1A0AF30F0ADDF800C000EBCC0E2EF82F
:10069000026B2EF802AB20F8024B20F8028BBCF163
:1006A000010C7FF4CEAE02B0BDE8F08F2DE9F04F23
:1006B00082B001904FF000744FF0000552F804CB67
:1006C00052F804EB0868CB6DCEF1000EC0FB0C4570
:1006D000C3FB0E4552F804CB52F804EB48688B6D0F
:1006E000CEF1000EC0FB0C45C3FB0E4552F804CB07
:1006F00052F804EB88684B6DCEF1000EC0FB0C4540
:10070000C3FB0E4552F804CB52F804EBC8680B6DDE
:10071000CEF1000EC0FB0C45C3FB0E4552F804CBD6
:1007200052F804EB0869CB6CCEF1000EC0FB0C450F
:10073000C3FB0E4552F804CB52F804EB48698B6CAE
:10074000CEF1000EC0FB0C45C3FB0E4552F804CBA6
:1007500052F804EB88694B6CCEF1000EC0FB0C45DF
:10076000C3FB0E4552F804CB52F804EBC8690B6C7E
:10077000CEF1000EC0FB0C45C3FB0E4501984FF4B3
:10078000FE4E4EF0FF0E4FEA946444EA851404F3E3
:100790000F04048002F5707201F580514FF000746F
:1007A0004FF0000552F804CB0868C0FB0C4552F826
:1007B00004CB4868C0FB0C4552F804CB8868C0FBEA
:1007C0000C4552F804CBC868C0FB0C4552F804CB6A
:1007D0000869C0FB0C4552F804CB4869C0FB0C45C6
:1007E00052F804CB8869C0FB0C4552F804CBC869A9
:1007F000C0FB0C4501984FF4FE4E4EF0FF0E4FEA41
:10080000946444EA851404F30F040484A2F5787216
:10081000A1F570614FF00F0C00F10200CDF800C09F
:1008200001904FF000744FF000764FF000054FF04C
:10083000000752F804CB52F804EB0868CB6DC0FBFC
:100840000C45C0FB0E67CEF1000EC3FB0E45C3FB8B
:100850000C6752F804CB52F804EB48688B6DC0FB70
:100860000C45C0FB0E67CEF1000EC3FB0E45C3FB6B
:100870000C6752F804CB52F804EB88684B6DC0FB50
:100880000C45C0FB0E67CEF1000EC3FB0E45C3FB4B
:100890000C6752F804CB52F804EBC8680B6DC0FB30
:1008A0000C45C0FB0E67CEF1000EC3FB0E45C3FB2B
:1008B0000C6752F804CB52F804EB0869CB6CC0FB10
:1008C0000C45C0FB0E67CEF1000EC3FB0E45C3FB0B
:1008D0000C6752F804CB52F804EB48698B6CC0FBF0
:1008E0000C45C0FB0E67CEF1000EC3FB0E45C3FBEB
:1008F0000C6752F804CB52F804EB88694B6CC0FBD0
:100900000C45C0FB0E67CEF1000EC3FB0E45C3FBCA
:100910000C6752F804CB52F804EBC8690B6CC0FBAF
:100920000C45C0FB0E67CEF1000EC3FB0E45C3FBAA
:100930000C6701F5807101984FF4FE4E4EF0FF0EEA
:100940004FEA946444EA851404F30F044FEA966670
:1009500046EA871606F30F06DDF800C000EB8C0EA2
:100960002EF8026B20F8024BBCF1010C7FF456AF5D
:1009700002B0BDE8F08F034613F8012B002AFBD12B
:10098000181A013870470000000000000000000045
:1009900001F0FF01102A2BDB10F0070F08D010F830
:1009A000013B013A8B422DD010F0070F42B3F6D134
:1009B000F0B441EA012141EA014122F007047FF04D
:1009C00000070023F0E80256083C85EA010586EAA4
:1009D000010685FA47F5A3FA87F586FA47F6A5FAE0
:1009E00087F68EB9EED1F0BC01F0FF0102F00702EC
:1009F00032B110F8013B013A83EA010313B1F8D197
:100A00000020704701387047002D06BF3546033877
:100A1000073815F0010F07D1013015F4807F02BFB0
:100A2000013015F4C03F0130F0BC0138704700BF01
:100A30007BB972B90029BEBF00204FF0004106E02B
:100A400008BF00281CBF6FF000414FF0FF3000F0DE
:100A5000A7B9ADF1080C6DE904CE002909DB002B24
:100A60001ADB00F035F8DDF804E0DDE9022304B01C
:100A70007047404261EB4101002B1BDB00F028F87E
:100A8000DDF804E0DDE9022304B0404261EB4101FE
:100A9000524263EB43037047524263EB430300F05F
:100AA00017F8DDF804E0DDE9022304B0404261EB11
:100AB00041017047524263EB430300F009F8DDF84F
:100AC00004E0DDE9022304B0524263EB43037047C4
:100AD0002DE9F047089D04468E46002B4DD18A42F1
:100AE000944669D9B2FA82F252B101FA02F3C2F124
:100AF000200120FA01F10CFA02FC41EA030E9440B5
:100B00004FEA1C48210CBEFBF8F61FFA8CF708FBD5
:100B100016E341EA034306FB07F199420AD91CEBAD
:100B2000030306F1FF3080F01F81994240F21C81DF
:100B3000023E63445B1AA4B2B3FBF8F008FB103327
:100B400044EA034400FB07F7A7420AD91CEB04045C
:100B500000F1FF3380F00A81A74240F2078164442C
:100B6000023840EA0640E41B00261DB1D4400023B1
:100B7000C5E900433146BDE8F0878B4209D9002D15
:100B800000F0EF800026C5E9000130463146BDE89F
:100B9000F087B3FA83F6002E4AD18B4202D3824209
:100BA00000F2F980841A61EB030301209E46002DB8
:100BB000E0D0C5E9004EDDE702B9FFDEB2FA82F20D
:100BC000002A40F09280A1EB0C014FEA1C471FFA6B
:100BD0008CFE0126200CB1FBF7F307FB131140EA52
:100BE00001410EFB03F0884208D91CEB010103F11F
:100BF000FF3802D2884200F2CB804346091AA4B2E1
:100C0000B1FBF7F007FB101144EA01440EFB00FEB4
:100C1000A64508D91CEB040400F1FF3102D2A64519
:100C200000F2BB800846A4EB0E0440EA03409CE7B8
:100C3000C6F12007B34022FA07FC4CEA030C20FA65
:100C400007F401FA06F31C43F9404FEA1C4900FA85
:100C500006F3B1FBF9F8200C1FFA8CFE09FB181102
:100C600040EA014108FB0EF0884202FA06F20BD975
:100C70001CEB010108F1FF3A80F08880884240F2C5
:100C80008580A8F102086144091AA4B2B1FBF9F009
:100C900009FB101144EA014100FB0EFE8E4508D904
:100CA0001CEB010100F1FF346CD28E456AD9023889
:100CB000614440EA0840A0FB0294A1EB0E01A1426E
:100CC000C846A64656D353D05DB1B3EB080261EBDC
:100CD0000E0101FA07F722FA06F3F1401F43C5E9B6
:100CE000007100263146BDE8F087C2F12003D840EC
:100CF0000CFA02FC21FA03F3914001434FEA1C472E
:100D00001FFA8CFEB3FBF7F007FB10360B0C43EA1F
:100D1000064300FB0EF69E4204FA02F408D91CEBCF
:100D2000030300F1FF382FD29E422DD902386344CD
:100D30009B1B89B2B3FBF7F607FB163341EA03416D
:100D400006FB0EF38B4208D91CEB010106F1FF38BC
:100D500016D28B4214D9023E6144C91A46EA0046B3
:100D600038E72E46284605E70646E3E61846F8E645
:100D70004B45A9D2B9EB020864EB0C0E0138A3E78E
:100D80004646EAE7204694E74046D1E7D0467BE76F
:100D9000023B614432E7304609E76444023842E7E7
:100DA000704700BF2DE9F04F93B00792AA4A0F9306
:100DB0001378DDF874A05C1EE4100134042C0A944E
:100DC00000F3998055780695EB1AE400651E03EB55
:100DD000D37301245B10AC4004FA03F31193002990
:100DE00000F08C80012900F03581022908BF4F21D5
:100DF000137A54680B948B4203D8527A8A4280F05B
:100E00001F81069A002A76D00F9B013B9BB210935C
:100E1000079B013B9BB2029312FB02F303931E9BC1
:100E2000002103FB02F9531E0D9108930C910991C7
:100E30000E910A9B012B63D0022B00F0C280032B82
:100E400000F0C4800B9BD3F800B01946DDE90E23F7
:100E50000A9C1A4421440D9B0B91109953440D9305
:100E6000B3FBF9F3CF180E93DDE90813994292B260
:100E7000BFB24AD0002B77D00C9B0026C3EB0328CF
:100E8000344635461EE008998C421FD011990B421A
:100E90001C9B08BFFF230193079B00975919029BD6
:100EA0005644B6FBF9F52B449BB289B2CDE9040256
:100EB00003F0BCFA069B0134A342DDE9040208F109
:100EC000FF080CD00BFA04F3002CDCD1039BB8FB19
:100ED000F3F3DBB243F47F0343F47F43DBE71A46CB
:100EE0000C9B13449B46099B069ACDF830B0013306
:100EF000934209939DD113B0BDE8F08F202177E78D
:100F00000B9B93F800B01946A0E700296BD00C9B0F
:100F1000069903EB010B0026CBEB0B28CDF830B084
:100F2000DDF81CB0C3EB03253446039BB5FBF3F39C
:100F3000DBB243F47F0343F47F430193029B0097AA
:100F40000BEB04015644B6FBF9F4234489B2FF3598
:100F50009BB2CDE9040203F069FA4545DDE90402DC
:100F6000E3D1DDF830B0BEE71C4606990C9B03EBDD
:100F7000010BCBEB0B28CDF830B0DDF81CB0C3EB88
:100F800003252646039BB5FBF3F3DBB243F47F0353
:100F900043F47F430193029B00970BEB04015644FB
:100FA000B6FBF9F4234489B2FF359BB2CDE90402C4
:100FB00003F03CFA4545DDE90402E3D1DDF830B049
:100FC00091E70B9BB3F800B019463FE70B9A92F8F4
:100FD00002B053784FEA0B4B4BEA032B13781146C0
:100FE0004BEA030B32E70C9B0C46069903EB010B13
:100FF000CBEB0B28CDF830B0DDF81CB0C3EB0325EC
:101000002646039BB5FBF3F3DBB243F47F0343F4C3
:101010007F430193029B00970BEB04015644B6FB00
:10102000F9F4234489B2FF359BB2CDE9040203F001
:10103000FDF94545DDE90402E3D1DDF830B052E7C2
:101040000A9ACB1ADBB202FB03F3069A02FB0343B4
:101050000B93D6E65821CBE6040000202DE9F04F93
:1010600095B003929B4A119313785C1EE4100134EF
:10107000042C0C9400F3CF8055780995EB1AE4000A
:10108000651E03EBD37301245B10AC4004FA03F339
:101090001393002900F0C280012900F0E0810229A9
:1010A00008BF4F21137A54680D948B4203D8527AAB
:1010B0008A4280F0CA81099A002A00F0AC80119B14
:1010C000854C013B9BB21293039B013B9BB2049363
:1010D00012FB02F305931F9B002103FB02F3013A6D
:1010E0000F910A920B9110919B460E910C9B012B34
:1010F00000F09680022B00F04781032B00F048811E
:101100000D9BD3F800A01E99DDE910231A440F9B14
:101110000B44DDE90C5129440D9112990F93B3FB57
:10112000FBF301EB03081093DDE90A13994292B235
:101130001FFA88F878D0002B00F0D4800E9B00278F
:10114000C3EB03293D463E46069723E00A9FBD4276
:1011500026D013990B426149614B18BF0B4601938E
:10116000039BCDF8008099191E9B069E1E44049B8C
:101170000696B6FBFBF633449BB289B2CDE9070273
:1011800003F054F9099B0135AB42DDE9070209F18F
:10119000FF0933D06FF079010AFA05F3002DD5D19C
:1011A0006FF03107059BB9FBF3F3DBB207FB03FCE0
:1011B00084FB0C7E03FB01F1E6444FEAEC7CACEBD4
:1011C000EE1C84FB017E8E44C917ACF1330CA1EBFD
:1011D000EE11A3EB83035FFA8CFC7B399B014FEA92
:1011E0000C4CC9B24CEA012184FB037C9C44DB1704
:1011F000A3EBEC133F33DBB20B43B0E71A460E9B75
:10120000134408930B9B089A0E92099A0133934258
:101210000B937FF46BAF15B0BDE8F08F202141E751
:101220000D9B93F800A06EE7002900F0BB800E999B
:10123000099B0026CB180893C1EB012AC3EB0329B5
:101240003546039BCDF8008059191E9B6FF0790538
:101250001E44059BBAFBF3F3DBB205FB03FC84FBE6
:101260000C7E6FF0310505FB03F5E6444FEAEC7C9C
:10127000ACEBEE1C84FB057EAE44ED17A5EBEE1542
:10128000ACF17B0CA3EB83035FFA8CFC333D9B0139
:10129000EDB24FEA0C2C4CEA054C84FB03751D445F
:1012A000DB17A3EBE5133F33DBB24CEA03030193F7
:1012B000049BB6FBFBF52B4489B20AF1FF0A9BB2F3
:1012C000CDE9060203F0B2F8CA45DDE90602B8D15D
:1012D00098E700BF0400002081808080FF901E00FE
:1012E0009314FF000E991D46099BCB180893C1EB80
:1012F000012AC3EB03292E46039BCDF80080591920
:101300001E9B6FF031051E44059BBAFBF3F3DBB265
:1013100005FB03FC84FB0C7E6FF0790505FB03F5F0
:10132000E6444FEAEC7CACEBEE1C84FB057EAE445D
:10133000ED17A5EBEE15ACF1330CA3EB83035FFACD
:101340008CFC7B3D9B01EDB24FEA0C4C4CEA052C2A
:1013500084FB03751D44DB17A3EBE5133F33DBB2BE
:101360004CEA03030193049BB6FBFBF52B4489B2C3
:101370000AF1FF0A9BB2CDE9060203F057F8CA450D
:10138000DDE90602B8D13DE70D9BB3F800A0BAE64F
:101390000D998B781A044B7842EA03220B7842EAC3
:1013A000030AB0E60D46099B0E99CB180893C3EBD0
:1013B00003234746C1EB012A2E469846039B00971C
:1013C00059191E9B6FF079051E44059BBAFBF3F378
:1013D000DBB205FB03FC84FB0C9E6FF0310505FBC3
:1013E00003F5E6444FEAEC7CACEBEE1C84FB059E77
:1013F000AE44ED17A5EBEE15ACF17B0CA3EB83032C
:101400005FFA8CFC333D9B01EDB24FEA0C2C4CEAA9
:10141000054C84FB03E51D44DB17A3EBE5133F33C9
:10142000DBB24CEA03030193049BB6FBFBF52B44B0
:1014300089B20AF1FF0A9BB2CDE9060202F0F6FF7B
:10144000C245DDE90602B9D1DCE60C9ACB1ADBB263
:1014500002FB03F3099A02FB03430D932BE6582189
:1014600020E600BF2DE9F04F8FB04FF0000983F860
:101470000090CDE90C23189B82F80090029083F82D
:101480000090002900F0D0804B1E012450FA83FE0A
:1014900001FB03030193CDE90711631ACDE9099418
:1014A00005930B190B94049300904FF0FF3B4E46AD
:1014B000CDF81890CDF80C904D46029B5B441A462F
:1014C0000C464FF0010C002703E0013C0127724558
:1014D0000BD012F8010F0128F9D00028F5D0724581
:1014E0004FF0000C4FF00107F3D104FB0CFC189AED
:1014F000AC45B8BFAC4682F800C0002F79D0029846
:10150000002200EB090488464FF0010A104607E06C
:1015100008F1FF3838460132D5B2A9420C440CD943
:101520002578012DF7D0002DF2D00132D5B2A94295
:1015300038464FF0000A0C44F2D80AFB08F8C445BC
:10154000189AB8BFC4465FFA8CF5157000285AD0B7
:10155000009A1278012A05D0002A42D1079A013A4E
:10156000CDE90602019A1278012A05D0002A3CD161
:10157000089A013ACDE9082013F8012F002A08BF84
:1015800006467345F8D1059A03EB010E019B1344FF
:101590000193049A009B09F10109134400935FFA37
:1015A00089F399428B44039387D8079A0A9B089939
:1015B00002FB03F30B9A01FB02F29342B8BF1346FE
:1015C0009C456746B8BF1F46189B1F70069B5BB3C0
:1015D000099B13B3002E14BF002002200FB0BDE8FA
:1015E000F08F002206900A92BCE7002209900B922D
:1015F000C2E7039B03F1010B0C9B012083F800B0B1
:101600000FB0BDE8F08F039B03F1010B0D9B384633
:1016100083F800B00FB0BDE8F08F0D9A0698022352
:1016200013700C9A1370EBE70D9A012313700C9A48
:10163000184613700FB0BDE8F08F00BF2DE9F04FD2
:101640002DED028BA3B004AFFB6197F8B030386486
:101650007B61002B00F06781924611FB01F28B4603
:101660003A62002A00F03C81431E9818002113F8CA
:10167000012F02B901318342F9D1002900F03081F4
:1016800001EB41039B003A6A073323F007036946E5
:101690000732ADEB030D08EE101AD20869460DF1C2
:1016A0001303A1EBC20295469A0823F00303BB6221
:1016B00004ABBA607B66BBF1000F00F0B281FA693F
:1016C0000BF1FF31012A08BF01204FF0000218BFC3
:1016D0004FF0FF300BFB01333A63F96078603B61F8
:1016E000FA62FA633B6B3B6600233A6E7B653B6CA8
:1016F0009C5C74B13B6E01333B667B6D0133DBB2A6
:101700009B4500F004813A6E7B653B6C9C5C002C31
:10171000F0D17D6E3A6A194628460BF029FD3B6EE2
:10172000F96B05F803A02A46D7E90A0501EB410346
:10173000A14600F8235000EB8303786D5C607B6268
:10174000587001239940B961F9683A6752FA81F4F7
:10175000C7E912BB3A69FA66A3EB0B01B9654FF012
:10176000FF320BEB03017B63F965CE46C7F844906B
:10177000C7F850907A67C7F86890BB637A6F7B6E42
:1017800013441A46002658464FF0010C03E0013876
:101790000126A2420BD012F8011F8A45F9D0002978
:1017A000F5D0A2424FF0000C4FF00106F3D100FB40
:1017B0000CFCCC45B8BFCC46002E00F01781D7E911
:1017C000192100255118D9462A464FF0010807E093
:1017D00009F1FF3935460132D0B2834559440CD95D
:1017E00008785045F7D00028F2D00132D0B28345B6
:1017F00035464FF000085944F2D809FB08F8C445B3
:10180000B8BFC4465FFA8CF9002D00F0FE803A6F35
:101810001278924505D0002A71D1FA6C013AC7E9D5
:101820001325FA6E1278924505D0002A6BD1BA6C56
:10183000013AC7E9115213F8012F002A08BFAE463A
:101840009C42F8D1FA6EB96DBB6E0A44FA66F96D26
:101850003A6F0A4401333A677A6FBB66DBB25A4487
:101860009B455C447A6789D8FA6CBB6BB96C02FB08
:1018700003F37A6B01FB02F29342B8BF13469C4517
:10188000FA6BB8BF9C46BB691344BA6A02EB830388
:1018900083F808C03B6D002B00F0B0807B6C002B00
:1018A00000F0AC80BEF1000F16D0D7F8AC30019339
:1018B000D7F8A83000937B69013BDBB20293FB6948
:1018C000786EC3F10303CAF10302DBB2D2B2594608
:1018D000FFF7B4FE7B6A5860FB6B0133FB6309E7DB
:1018E000D7F8AC3083F800B0D7F8A83000207C37A8
:1018F00083F800B0BD46BDEC028BBDE8F08F00223E
:101900003D65BA638DE700227D647A6393E73B6BA4
:10191000FA6A796D5B443B638A4202F10103DBB2F0
:1019200008D0FB62DEE618467C37BD46BDEC028B74
:10193000BDE8F08FBE6AFB6B7068347A5A1ECBB379
:10194000FB690025012B01462B4623D0814208DC90
:1019500003EB430C06EB8C0C45DB9CF80810A14212
:1019600050DC0133013ADBB203EB4301B2F1FF3F3C
:1019700006EB81011CD04968E8E71D4608460133A3
:10198000013ADBB203EB4301B2F1FF3F06EB810109
:101990000ED049688842F2DC03EB430C06EB8C0C5A
:1019A000EBDB9CF80810A142E9DD1D460C46E6E79A
:1019B000FD632B46BA6AB96803EB430302EB83026B
:1019C0009B0013F821105378D7F8A8201170D7F88E
:1019D000AC20137018EE103A7C379D46BD46BDEC26
:1019E000028BBDE8F08F1D460846BAE7FA6BBB696B
:1019F0001344BA6A02EB830383F808C07B6A7A68EF
:101A00005A6069E71D460C46ABE7FA6BBB691344A5
:101A1000BA6A02EB83037A6883F808907B6A5A609B
:101A20005AE7BB6AC7F83CB058685B46C2E700BFDC
:101A30002DE9F04F2DED0A8BADF50B7DCD4C04AFAC
:101A400007F59A7383468A46C7F8A4300FCC07F58A
:101A5000C2760FC60FCC0FC60FCC0FC694E80F008E
:101A6000C54C86E80F000FCCD7F8A4600FC694E8E9
:101A70000700C24BC24C86E8070093E8030007F159
:101A8000C40383E80300BF4B93E80300BE4B87F811
:101A9000B810C7F8B40093E80300BC4BA7F8C01017
:101AA000C7F8BC0093E8070007F1DC0503C5B84B95
:101AB00025F8022B120C2A700FCB07F1F808A8E8C2
:101AC000070028F8023B1B0C88F80030B14B0FCB05
:101AD00007F1E80CACE807008CF800300FCC07F5F4
:101AE0008E79A9E80F0094E80300AB4C49F8040B89
:101AF00089F800100FCC07F5847EAEE80F0023684C
:101B0000BBF80620AEF80030BBF804309A4228BF7C
:101B10001A46A24BBA651B684FF001018AF82810DB
:101B2000002433B10BF04AFC9C4B1B680134A342E8
:101B3000F8D8BA6D02F116039BB20AEE103A02F120
:101B40002B039BB20CEE903A931C9BB20AEE903A98
:101B500002F12A039BB20BEE103A134637339BB2C5
:101B60000BEE903A134652083A630AF174020021D0
:101B700009EE102A0AF1380209EE902AC7E911117C
:101B800007F1E80208EE902A5A1C1533F965F9634B
:101B9000BA607B600AF054F88149584602F052FD61
:101BA00080484FF0FF3109F0CBFFBBF80630BBF89F
:101BB0000490994528BF9946002307F5C678C7F8D1
:101BC000A0304E46D7F8A0300024C3F3CF09A8F1C7
:101BD0000805C7F8A4400DE00824CDE90164CDF85C
:101BE00000C0FFF7DFF8D7F8A43045453344C7F805
:101BF000A43013D015F8011BD7F8A42001296FF0E9
:101C00007F4C4B465846C2F3CF02E5D10823CDE9BD
:101C100001634FF47F0300934B46E2E7D7F8A0300F
:101C2000334408F10808C7F8A03007F5E673984573
:101C3000C8D107F58E70FEF79EFE5B4ABC6D137827
:101C4000574D029500FB134000264FF47F03C0F36D
:101C50004F01009201931AEE102A07F58E73584631
:101C6000039602F08FFE07F58470FEF784FE4F4A5C
:101C70001378009200FB1340FF23C0F34F01CDE91E
:101C800002561CEE902A0193584607F5847302F021
:101C900079FE41F2883003F0DBF9BBF80640BBF86F
:101CA00004309C4228BF1C4604EB4403DB0807F2C7
:101CB0009B1807F2A3154FF0080918F8011FC6F387
:101CC000CF02CDE900495846C7F8A430FFF7C6F95E
:101CD000A845D7F8A4302644EFD1BBF80640BBF89E
:101CE00004309C4228BF1C46630807F2A31807F281
:101CF000AB1600254FF0080918F8011FC5F3CF02F5
:101D0000CDE900495846C7F8A430FFF7A7F9B04518
:101D1000D7F8A4302544EFD14FF4FA60244D03F0F6
:101D200097F90023C7F8A0300FCD07F5E2740FC470
:101D30000FCD0FC40FCD0FC495E80F0084E80F003E
:101D40002B69A7F8B0301B0CBBF8049087F8B230B1
:101D5000BBF80630994528BF994607F5E6784E4608
:101D6000D7F8A0300024C3F3CF09A8F10805C7F8BD
:101D7000A4402DE020E30008DCE40008F8E40008BB
:101D800000E5000818E5000820E5000828E500083F
:101D900034E5000844E5000854E5000890010020FF
:101DA00000FFFF00E00000200400002010000020E1
:101DB00060E300080824CDE90164CDF800C0FEF717
:101DC000F1FFD7F8A43045453344C7F8A43013D009
:101DD00015F8011BD7F8A42001296FF07F4C4B4662
:101DE0005846C2F3CF02E5D10823CDE901634FF491
:101DF0007F0300934B46E2E7D7F8A030334408F165
:101E00000808C7F8A03007F503739845A8D107F173
:101E1000B003C7F8A4304FF00809BBF80640BBF880
:101E200004309C4228BF1C46D7F8A43013F8015B4D
:101E3000C7F8A43007F5E27204FB05F305FB092699
:101E400007F5E6724FF00008C3F3CF0319FB052531
:101E500016F8011BC8F3CF02CDE900495846C7F870
:101E6000A030FFF7FBF8B542D7F8A030A044EFD17F
:101E7000D7F8A43007F1B3029A42CED1BBF806508E
:101E8000BBF804309D4228BF1D464FEAE50842F2E8
:101E90001074A64A9AF829301168D3B900BF9AF88D
:101EA0002930B3B90125A14B1E6804FB05F3721A52
:101EB0009A4209D301350D2D4FF000019C4828BFEF
:101EC000012509F03DFE314600BF9AF82930002B6C
:101ED000E9D09AF828305BB100BF9AF82930002B7E
:101EE000F7D1DAF82030032B0ED8904B1968D5E7DC
:101EF00050460AF053FF00BF9AF82930002BE8D172
:101F0000DAF82030032BF0D919EE902A19EE101AC6
:101F100007F1D4000AF0D6FED7F8D83093FBF8F3D7
:101F20009A1E042AB5D800218248FB641D4609F098
:101F300007FEBBF80640BBF804309C4207F5E2718F
:101F400028BF1C4604FB05F301EBC50607F5E67147
:101F500001EBC508C3F3CF0300254FF0080916F8BD
:101F6000011BC5F3CF02CDE900495846C7F8A4309C
:101F7000FFF774F8B045D7F8A4302544EFD14FF4FB
:101F8000FA7003F065F851226B4907F5E2700BF027
:101F9000EFF86A4BBBF804201B68A7F8B0301B0CA5
:101FA00087F8B230BBF80630934228BF13469846F4
:101FB000FB6C01333B65DBB2BB63002307F5E679BD
:101FC000C7F8A430D7F8A4305D4AA2FB0336C6F3A5
:101FD0004F06A9F1090500240AE00920CDE9018096
:101FE000CDF800C05846FEF7DDFEA945444418D0A0
:101FF000534B15F8011FA3FB043201296FF07F4CEE
:102000003346C2F34F02E8D10923CDE901834FF4EF
:102010007F03009358463346FEF7C4FEA945444467
:10202000E6D1D7F8A430434409F10909C7F8A43030
:1020300007F21D239945C5D107F1B003C7F8A430B5
:102040004FF00909BBF80650BBF804303C4A9D42EA
:1020500028BF1D46D7F8A43013F8016BC7F8A43089
:1020600005FB06F3A2FB03234FF0FF3219FB062406
:1020700007F5E272144407F5E6724FF00008C3F367
:102080004F0319FB06262E4A14F8011FA2FB080273
:10209000CDE90059C2F34F02C7F8A0305846FEF709
:1020A000DDFFA642D7F8A030A844ECD1D7F8A43081
:1020B00007F1B3029A42C5D1BBF80650BBF8043011
:1020C0009D4228BF1D464FEAE50942F21074174AA7
:1020D0009AF829301168D3B900BF9AF82930B3B9FA
:1020E0000125124B1E6804FB05F3721A9A4209D3AC
:1020F00001350D2D4FF000010D4828BF012509F0D5
:102100001FFD314600BF9AF82930002BE9D09AF81C
:102110002830BBB100BF9AF82930002BF7D1DAF88C
:102120002030032B1AD8014B1968D5E79001002005
:1021300004010020F8000020A4E30008F8E30008F0
:10214000398EE33850460AF029FE00BF9AF829304C
:10215000002BDCD1DAF82030032BE4D919EE902AD9
:1021600019EE101A07F1D4000AF0ACFDD7F8D830F8
:1021700093FBF9F6A6F10308B8F1020FA7D8964829
:10218000002109F0DDFCBBF80630BBF80450934A8F
:102190009D4228BF1D4606EBC60905FB06F3A2FBC0
:1021A000032309F1FF3607F5E272164407F5E672DC
:1021B000C3F34F0391440024092216F8011FCDE90F
:1021C0000052864AC7F8A430A2FB0402C2F34F02B1
:1021D0005846FEF743FF4E45D7F8A4302C44EBD1C8
:1021E0004FF4FA7002F034FFB8F1000F01F03082C2
:1021F000B8F1010F3B6D01F02482032B0CBF0523C6
:102200000323BB62FB6D13B118460AF0A9FF3C6DB6
:1022100004FB04F108460D4639640AF099FF6B1E71
:10222000C3187B61AB08FB6025F00303BB61FB6C4B
:10223000F86503FB0403FB6100EB84033B6143424D
:102240007B62431E3B625346DA469B4609F0F8FC2C
:1022500063484FF0FF3109F073FCBAF80490BAF804
:10226000068008FB09F3002B39D05E4C4E46002552
:10227000C1460BF0A3F880B206FB00F1A4FB0131CC
:10228000BAF80460C1F3CF384645F2D9BAF806600F
:10229000B1450DD30BF092F81FFA80F906FB09F94E
:1022A000A4FB0939BAF80660C9F3CF394E45F1D914
:1022B0004D4B019309F101039BB2009308F1010317
:1022C0004A469BB24146504602F0B0F8BAF8046064
:1022D000BAF80690013509FB06F39D42C9DBFB6B9A
:1022E000414901335046FB6302F0ACF9FC6D3A6C96
:1022F000002120460AF064FFBAF80660BAF80430FC
:102300007A6AFC629E4228BF1E460023C7E9253236
:10231000B04650463E6DD7F84CA0C7F89C30C7F881
:102320009030C7F88CB0D7F89430D7F89C20B3FB26
:10233000F6F9FB6D9D18D7F8983000241FFA89F93B
:1023400003F1FF3BC7F8A44015F8011BD7F8A440E0
:10235000B4FBF6F20129CDE901864B4692B227D0B3
:102360006FF07F440094D7F8A4404444C7E92804A0
:10237000FEF718FD0BEB05039A45D7F8A000E3DC48
:10238000D7F89430D7F890204344C7F89430D7F862
:1023900098309B1BC7F89830D7F89C30924533444F
:1023A000C7F89C3002F1010320DDC7F89030BAE78E
:1023B0004FF47F0300934B46C7F8A000FEF7F2FCF2
:1023C000D7F8A420D7F8A0000BEB050342449A45A8
:1023D000C7F8A420B8DCD3E7F8000020398EE33832
:1023E000EC0000200180008000FFFF00824607F122
:1023F000C40107F5A870D7F88CB0C44DC44E0BF0DB
:1024000034F807F1C400FEF7B6FA07F5A8731918F7
:102410000A22F86B0BF074F807F5A870FEF7ABFA18
:102420002B78BA6D029600242E4600FB13200095EF
:102430004FF47F05C0F34F011AEE902A50460195E4
:1024400007F5A873039402F09DFAB14B01931AEEBD
:10245000902AB04B00965046CDE90254214602F036
:1024600091FA07F1B40107F5A8700AF0F5FF0A2206
:102470000146786C0BF044F807F5A870FEF77BFA7C
:1024800007F5A87C604407F1BC010AF0E5FF0A22C9
:102490000146B86C0BF034F807F5A870FEF76BFA3C
:1024A0003378BA6D03943546994E009500FB13209E
:1024B000C0F34F011AEE102A07F5A8735046CDE974
:1024C000014602F05FFA944D07F59A70FEF753FA51
:1024D0002B78BA6D009500FB1320FF25C0F34F0148
:1024E0001BEE102A07F59A735046CDE90264019558
:1024F00002F048FA07F58E70FEF73DFA86490B7830
:102500000394BA6D009100FB1320C0F34F0107F54F
:102510008E735046CDE901561BEE902A02F032FA36
:102520000123BB675B46D3469A46002387F8AF304A
:1025300087F8AE3087F8AD3087F8AC3087F8AB302D
:10254000BB6F002B00F070813B6A796913F8012F93
:10255000002A00F0BE829942F8D1BB6B87F8AC30FC
:1025600087F8AB30BB6C0533BB647B6C05337B6495
:1025700007F1E80308EE903A4FF0010942F21074B7
:10258000B9F1000F40F09A83644A9AF82930116833
:10259000D3B900BF9AF82930B3B901255F4B1E6843
:1025A00004FB05F3721A9A4209D301350D2D4FF041
:1025B00000015B4828BF012509F0C2FA314600BF7F
:1025C0009AF82930002BE9D09AF82830002B00F037
:1025D0001C8100BF9AF82930002BF5D1DAF82030A1
:1025E000032BD1D919EE902A19EE101A07F1CC005D
:1025F0000AF068FBD7E933232F2A06D8B968994235
:1026000003DA79688B427FF7C5AA396DB86DB0FBE4
:10261000F1F893FBF8F39942B2D992FBF8F84145EF
:10262000AED9F86D01FB03814218415C0029A7D1A6
:102630001E46022313703B48B9670C4609F080FA26
:10264000BB6D386DBC6608FB03F206FB03F3B2FBFF
:10265000F0F2B3FBF0F392B29BB2C7F8A420FB6692
:102660005846C7F834A0294C23785A1ED210551C5E
:10267000042DC7F8885000F39A856678C7F89060F3
:10268000EA00F31A511E03EBD37301228A405B1058
:1026900002FA03F37B65237A6168C7F884104F2B35
:1026A0000BD8627A4E2A08D9C3F14F03DBB205FB7F
:1026B00003F306FB0313C7F88430D7F89010002902
:1026C00000F0BE84BC6E184B83FB04231A19E31779
:1026D000A3EBE2132D3BDBB21A0242EA034213439F
:1026E0003B66FB6E013B9BB27B66D7F8A430013B97
:1026F0009BB2C7F8943011FB01F30022C7F8A03059
:102700003B6D7A67C7E91F2210E000BF040000207C
:1027100000FFFF00D4E4000810000020900100201A
:1027200004010020F80000208180808001FB03FA72
:102730004B1EC7F88C303A67D7F88830012B00F071
:10274000BD84022B00F0F284032B00F0F584D7F84F
:102750008430D3F800B0B96DD7E91B321A447B6FCF
:102760000B44D7E921142144C7F88410796E7B67A4
:10277000B3FBFAF301EB03083B67D7F88C10D7F8EB
:102780008030994292B21FFA88F800F06384002BDF
:1027900000F09A84FB6F0026C3EB032934463546CC
:1027A00025E0D7F88C108C4225D0796D0B423B6E1A
:1027B00008BFFF230193D7F8A4305919BB6DCDF89A
:1027C00000801E44D7F89430B6FBFAF52B44C7E9D5
:1027D00026209BB289B201F029FED7F8903001344F
:1027E000A342D7E9262009F1FF0900F01B840BFA68
:1027F00004F3002CD5D1D7F8A030B9FBF3F3DBB24A
:1028000043F47F0343F47F43D4E750460AF0C6FA0B
:1028100000BF9AF82930002B7FF4D6AEDAF82030CA
:10282000032B7FF6B1AEDDE61A4678693B6A13F8F2
:10283000011F01B901328342F9D1002A3FF48DAE64
:1028400002EB42039B003A6CC7F890A0073323F0D9
:1028500007030732694622F00702ADEB030D0DF1C5
:10286000100900230CEE101A08EE10BAADEB020DA1
:10287000B96BD7F80CB0D7F85CA0C7F89890C7F838
:10288000A43004AEC7F8A030C7F89C309946D7F8FA
:10289000A45000241AF80530002B44D00134E4B2CF
:1028A000A14205F10105F5D8D7F8A030D7F8A4204A
:1028B000386D0133C7F8A030DBB202449942C7F843
:1028C000A420C7F89C30E2D8C846D7F89890D7F82B
:1028D00090A0D9F8040099F8084018EE10BA08F151
:1028E000FF31B8F1000F00F0A580BE6F0246002353
:1028F0000FE02A7AA24201DD1E4614460133013957
:10290000DBB203EB43024D1C09EB820200F0918025
:1029100052689042F2DC03EB430509EB8505E8DAE7
:102920001E461046EAE7DAF800303360BBF1020FCA
:10293000DAF80430736038D0DAF80830B360BBF1ED
:10294000030F32D0DAF80C30F360BBF1040F2CD057
:10295000DAF810303361BBF1050F26D0DAF8143005
:102960007361BBF1060F20D0DAF81830B361BBF108
:10297000070F1AD0DAF81C30F361BBF1080F14D03E
:10298000DAF820303362BBF1090F0ED0DAF82430C8
:102990007362BBF10A0F08D0DAF82830B362BBF1DA
:1029A0000C0F04BFDAF82C30F3623A6CB86982423B
:1029B0000FD01AF800303354431C9A4209DD1AF83C
:1029C0000320F2543A6C831C9A42C4BF1AF80320C5
:1029D000F254D7E926204FF00103735509EB490360
:1029E00002EB830802F8230043464FF0000C083343
:1029F0000022C8F8042087F8C4C187F8D4C088F83A
:102A0000014088F808C007F1D40200933046C7F8A7
:102A1000941007F5E273FEF725FDD7F8941000280F
:102A200043D0012818BF0020C8F8040009F10109AB
:102A300034E7B04608EB480209EB820319F822207C
:102A40005B7887F8AC301CEE103A87F8AB209D46D7
:102A5000BA6B97F8AB309A423FF484AD97F8AC006C
:102A600082423FF47FAD3A6D02FB03F30344FA6DFB
:102A7000D45C002C4BD007F1AF030093B96BF86D19
:102A800007F1AE0307F1AD02FEF7ECFC814600282A
:102A90003FF474AD0128BB6C7FF465AD0A33BB64B1
:102AA00007F1F80308EE903A68E5BB6A029307F174
:102AB000AC03019307F1AB0300930223C7F8941012
:102AC0001A463046FEF7BAFDD7F89410C8F804004D
:102AD000ACE7BC6B0AF072FC87F8AB000AF06EFC46
:102AE00097F8AB30C0B29C4287F8AC00F2D93A6D8F
:102AF00002FB03F3FA6D84420244EBD9D25C002A54
:102B0000E8D1FA6DBC630344D45C002CB3D1114608
:102B10000122CA54B748214609F012F8C7F834A078
:102B2000D7F858A07C655846B34C23785A1ED2106B
:102B3000551C042DC7F8805000F34E826678C7F804
:102B40009060EA00F31A511E03EBD37301228A400E
:102B50005B1002FA03F37B66237A6168F967582BEE
:102B60000AD8627A572A07D9C3F15803DBB205FBAA
:102B700003F306FB0313FB67D7F89010002900F05E
:102B800083817C6D9D4B83FB04231A19E317A3EB10
:102B9000E213013BDBB243EA032343F47F033B66CA
:102BA00097F8AC303C6D0AFB03F3B3FBF4F39DB232
:102BB00097F8AB30C7F8A4500AFB03F3B3FBF4F368
:102BC0009EB26B1E9BB2C7F8A030731E9BB2BB6651
:102BD00011FB01F30022C7F89C3001FB04F301391B
:102BE000FE667A67C7F88410BA67C7F888203A6724
:102BF0009B46D7F88030012B00F05081022B00F06B
:102C0000AE81032B00F0B081FB6F1B68C7F88C30DE
:102C1000D7E91B32D7E91F141A4421447B6FF967A7
:102C2000B96E53447B67B3FBFBF301EB03083B67CF
:102C3000D7E921138B4292B21FFA88F800F0338152
:102C4000002B00F05F81BB6F0026C3EB03293446E5
:102C5000354624E0D7F884108C4225D0796E0B429B
:102C60003B6E08BFFF230193D7F8A430CDF8008056
:102C70005919D7F8A0305644B6FBFBF52B44C7E9E9
:102C800025209BB289B201F0D1FBD7F890300134F6
:102C9000A342D7E9252009F1FF0900F0E380D7F826
:102CA0008C30A340002CD5D1D7F89C30B9FBF3F37E
:102CB000DBB243F47F0343F47F43D4E75346DA4661
:102CC0009B4608F0BDFF4E48002108F039FF97F8F9
:102CD000AD60002E57D097F8AE40002C00F09480E5
:102CE000012E02D1012C00F07B81BAF80640BAF81F
:102CF0000430C7F8A4B09C4228BF1C46FB6CD7F830
:102D00001C80D7F850B0002504FB03F6A94698F8BC
:102D10000010B5FBFBF2CDE9004BFB6C92B2A8EBC7
:102D20000308504696FBFBF39BB2FEF797F9FA6C4B
:102D30004A45A6EB0406254409F10109E7DCD7F86A
:102D4000A4B018EE900AFDF716FE2B493C6B4A78AA
:102D50000B78A4EB5202BC6D00FB1340294CFF23FF
:102D6000CDE90014C0F34F010020CDE9023092B24A
:102D7000504618EE903A01F005FE42F2080002F0CB
:102D800067F9FFF763BA97F8AE50002DD9D0BAF8BB
:102D90000630BAF804803A6D984528BF98466B1EF5
:102DA000C7F8A43008FB03F3B3FBF2F39AB2FB6D50
:102DB00003EB05095B463446AB461D46386DD7F834
:102DC000A410A9EB0B038144595CB6FBF0F3CDE9E9
:102DD00000809BB2C7F8A0205046FEF73FF9FA6C7E
:102DE000A2424644D7F8A02004F10104E6DCAB4639
:102DF000A7E700BFF8000020040000208180808049
:102E0000D400002000FFFF00731EBAF80420BAF8B7
:102E10000660964228BF16463A6D06FB03F902FB90
:102E200003F5FB6DB9FBF2F96FEA0508A8EB03089F
:102E30001D4443461FFA89F9D8469B463B6D15F859
:102E4000011BB4FBF3F2CDE9006392B24B4650464E
:102E5000FEF704F9FB6C0BEB05029A423444EDDB00
:102E6000C3466EE71A46BB6F1344C7F88C30D7F8D9
:102E70008830D7F88C20BA67D7F8902001339A426F
:102E8000C7F888307FF4B5AE7A6D4FF601639A4289
:102E900000F0A28002F2FD237B6545E6FB6F1B7804
:102EA000C7F88C30B4E6002B69D0B96FD7F89030F2
:102EB00000260B44C7F88C30C1EB0125C3EB032976
:102EC0003446D7F8A430CDF800801919D7F89C30D3
:102ED000B5FBF3F3DBB243F47F0343F47F43019389
:102EE000D7F8A0305644B6FBFBF42344C7E92520AD
:102EF00089B2FF359BB201F099FAA945D7E925209F
:102F0000DFD1B4E7B96F1C46D7F890300B44C7F84F
:102F10008C30C1EB0125C3EB03292646D7F8A4303A
:102F2000CDF800801919D7F89C30B5FBF3F3DBB26C
:102F300043F47F0343F47F430193D7F8A030564412
:102F4000B6FBFBF42344C7E9252089B2FF359BB2C9
:102F500001F06CFAA945D7E92520DFD187E7FB6F9F
:102F60001B88C7F88C3053E6F96F8B781A044B78BE
:102F700042EA03220B781343C7F88C3048E6B96F56
:102F80001C46D7F890300B44C7F88C30C1EB0125B4
:102F9000C3EB03292646D7F8A430CDF800801919D1
:102FA000D7F89C30B5FBF3F3DBB243F47F0343F473
:102FB0007F430193D7F8A0305644B6FBFBF423447B
:102FC000C7E9252089B2FF359BB201F02FFAA94548
:102FD000D7E92520DFD14AE7D7F834A083464AE570
:102FE000BAF80630BAF80460D7F82C909E4228BF91
:102FF0001E46FB6C002503F102082C463B6D99F838
:103000000010CDE90063B5FBF3F39BB21A465046BE
:10301000FEF724F8FA6CA242C144354404F10104DD
:10302000ECDC8EE61A46FB6F13449B46D7F88030E3
:10303000D7F8902001339A42C7E91FB37FF47CABE5
:10304000724BBA6E9A4200F0B280A2F18403BB6662
:10305000FFF709BB00297DD0FB6FD7F8901001EB7B
:10306000030B0026CBEB0B29C7F87CB0D7F858B080
:10307000C3EB03253446D7F8A430CDF800801919E6
:10308000D7F8A030B5FBF3F3DBB243F47F0343F48E
:103090007F430193D7F894305E44B6FBFAF423449F
:1030A000C7E9262089B2FF359BB201F0BFF94D4533
:1030B000D7E92620DFD1D7F87CB0B7E7D7F884303E
:1030C00093F800B0FFF747BB1C46D7F89010FB6F92
:1030D00001EB030BCBEB0B29C7F87CB0D7F894B00E
:1030E000C3EB03252646D7F8A4301919BB6DCDF8DC
:1030F00000801E44D7F8A030B5FBF3F3DBB243F4F5
:103100007F0343F47F430193B6FBFAF40BEB040314
:10311000C7E9262089B2FF359BB201F087F94D45FA
:10312000D7E92620DFD1D7F87CB07FE7D7F8843005
:10313000B3F800B0FFF70FBBD7F8842092F802B0C5
:1031400053784FEA0B4B4BEA032B13784BEA030BF4
:10315000FFF701BBFB6F0C46D7F8901001EB030B98
:10316000C3EB0325CBEB0B292646D7F8A43019195E
:10317000BB6DCDF800801E44D7F8A030B5FBF3F34B
:10318000DBB243F47F0343F47F430193D7F89430D9
:10319000B6FBFAF42344C7E9262089B2FF359BB277
:1031A00001F044F94D45D7E92620DED13EE7FA6C1F
:1031B000D7F834A0396A3E69D7F81CE0BD6BC7F870
:1031C00074A0931C0124C7F89830FB6DFC674FF086
:1031D00000088346C7F88040386D87F8AE80D44336
:1031E00007EE90BA87F8AD80C7F88C80C7F8948056
:1031F000C7F8A080C7F89C80C346C7F88800C7F806
:103200009000C7F884409846944619E12CD4FFFFFB
:10321000002A00F06281044600224FF0010A93F870
:103220000190B9F1020F06D0B9F1000F40F07281A0
:10323000013C4FF0010A93F80290B9F1020F00F03F
:103240000881B9F1000F40F06D81032804F1FF34CB
:1032500018BF4FF0010A00F06D8193F80390B9F1A7
:10326000020F00F07381B9F1000F40F06D81013C55
:10327000042D18BF4FF0010A00F05C8193F8049010
:10328000B9F1020F00F06A81B9F1000F40F09481AA
:10329000013C052D18BF4FF0010A00F04B8193F857
:1032A0000590B9F1020F00F06281B9F1000F40F012
:1032B0008881013C072D08BF4FF0010A40F03A8198
:1032C00093F80690B9F1020F00F0C680B9F1000F33
:1032D00000F07C81D94611F8012F022A00F001810B
:1032E000002A00F00481C7F8A4004FF0000A01246E
:1032F00011F800B0BBF1020F09D0BBF1000F40F094
:103300000D81D7F8A420013AC7F8A420012401F1C7
:10331000020B1BF81CB0BBF1020F00F0B980BBF12F
:10332000000F40F00E81D7F8A420013AC7F8A4207E
:10333000032818BF012400F0C680D7F8842016F8AF
:1033400002B0BBF1020F00F01F81BBF1000F40F093
:103350003081D7F8A420013AC7F8A420042D18BF63
:10336000012400F0B08096F800B0BBF1020F00F02D
:103370001381BBF1000F40F02181D7F8A420013A5E
:10338000C7F8A420052D18BF012400F09C8016F872
:1033900000B0BBF1020F00F00881BBF1000F40F05C
:1033A0001281D7F8A420013AC7F8A420072D08BF3E
:1033B000012440F0888006F1020B1BF81CB0BBF121
:1033C000020F68D0BBF1000F40F08480D7F8A42032
:1033D000013A0AFB02F29145B8BF91465FFA89FBB8
:1033E00098F80020022A0AD0002A40F08680D7F8F8
:1033F0009020013AC7F890200122C7F894209EF847
:103400000020022A09D0002A7ED1D7F88820013A6C
:10341000C7F888200122C7F88C20D7F8A020D7F859
:1034200098400132C7F8A020D2B295420344AEEBD7
:103430000C0EA04406F10106C7F89C2040F2CE8095
:103440001A78022A7FF4E4AE04464FF0000A012203
:10345000E5E603287FF401AF02FB04F9D945B8BFC4
:10346000D946BAF1000F7FF436AFD7F89C30D7F8C1
:1034700074B087F8AF90013317EE90AA87F8AD309B
:103480007B6C0A337B6407F1DC0308EE903A18E4A6
:1034900003287FF452AFD7F8A4200AFB02F291452B
:1034A000B8BF91465FFA89FB002C99D1D7F89C30C0
:1034B000D846013317EE90AAD7F874B087F8AF80DA
:1034C00087F8AE30DCE7D7F8A42002FB0AF291457A
:1034D000B8BF91465FFA89FB82E7012264469246B3
:1034E0009DE6C7F8A40000244FF0010A00E74FF062
:1034F000010AC7F8A4C05446FAE60022C7F88020A3
:103500000122C7F894207AE70022FA670122C7F85F
:103510008C2082E700224FF0010A8CE64FF0000A6F
:103520000124F4E603284FF0000218BF4FF0010A0F
:103530007FF493AE04FB02F25A45B8BF5A46914657
:10354000C9E64FF0000AF3E6002291E6042D83D08D
:1035500093F80490B9F1020F7FF496AE052D3FF475
:103560007BAF93F80590B9F1020F7FF49EAE072D63
:103570003FF4A6AE02FB04F9D945B8BFD946BAF16B
:10358000000F7FF4A8AE70E7042D84D096F800B049
:10359000BBF1020F7FF4EDAE052D3FF47CAF16F8C2
:1035A00000B0BBF1020F7FF4F8AE072D3FF403AF7C
:1035B00071E74FF0000AD1E600226AE64FF0000AF8
:1035C000E0E6002276E64FF0000AEFE6013C02FB5F
:1035D00004F45C45B8BF5C46A1467CE6D7F8902071
:1035E000D7F88030D7F88810D7F874A002FB03F31F
:1035F000FA6F01FB02F29342B8BF13469945B8BF78
:103600009946D7F8943087F8AF9017EE90BA73B117
:10361000D7F88C30002B7EF488AF53469B460223AC
:1036200017EE90AA87F8AE3087F8AD3028E75346FA
:103630009B46012317EE90AA87F8AE3087F8AD308D
:103640001EE7032B0CBF03230123BB62FEF7DABD89
:103650000123BB62FEF7D6BD2C4A136823F0070393
:1036600043F0020310B51360136803F00703022B45
:10367000FAD12749274B0A6822F4404242F400421B
:103680000A601A6842F480321A601A689203FCD504
:103690001A68214942F400221A6058681F4A014002
:1036A0000A435A6059681B4A21F44031596019682D
:1036B00041F08071196013689B01FCD59368154C2B
:1036C00023F0F0039360936823F4E05343F48053B2
:1036D0009360936823F460439360936823F003033B
:1036E00043F002039360A36803F00C03082BFAD1A4
:1036F0000B4801F09DFC0A4801F0BCFCD4F88C306A
:1037000023F08073C4F88C3010BD00BF003C024031
:1037100000700040003802400080BFFF192A4000BE
:1037200000BD0105000000002DE9F04FBC4ABD4B73
:10373000116841F400712DED028B1160116841F4A4
:1037400080611160116841F480711160596CB64A52
:1037500041F480415964596CADF29C7D01F4804183
:1037600012911299186C40F0805018641B6C03F091
:1037700080531193119BD168AC4B4FF6FF0421404D
:103780000B43D360D268A84CC2F30222C2F10701F6
:10379000131D042928BF0421062B4FF0FF3303FA21
:1037A00001F38CBF033A0022DB4393401B01DBB2E1
:1037B00084F82330FFF750FF9D4B9E4A1B68A2FB05
:1037C00003239B09013BB3F1807F09D24FF0E02234
:1037D000F02053610021072384F8230091611361D5
:1037E0000025CDE93055CDE955558E4A5795136BD7
:1037F000914E924843F080031363136B03F08003F0
:103800001993199B136B43F001031363136B03F0BC
:1038100001031A931A9B136B43F002031363136B98
:1038200003F002031B931B9B02271C23836152A9F5
:10383000B7611C220123CDE95223549701F070F99E
:1038400002220123CDE9522352A90222002330464D
:10385000CDE95423569501F063F979490F238A681D
:1038600093FAA3F30124B3FA83F322F00F0204FACC
:1038700003F313438B6030A88DF8C6703094ADF815
:10388000C44001F0EDF8F16894FAA4F2B2FA82F2C1
:1038900094FAA4F30320A240B3FA83F3A34000FAFE
:1038A00002F221EA020204FA03F31343F3603268DE
:1038B00094FAA4F3B3FA83F3A34000FA03F322EAE1
:1038C000030394FAA4F43360574BDFF87081DB688C
:1038D000DFF87CB15B4FC3F30223C3F10702042A74
:1038E00003F1040128BF0422062988BFDD1E4FF022
:1038F000FF339340DB4303F00403AB405249494A92
:10390000484D1B01DBB2402081F806330860136B81
:1039100043F480031363136B03F480031893424B47
:10392000189ADA68C2F30222C2F10701131D0429B2
:1039300028BF0421062B4FF0FF3303FA01F36FEA8F
:1039400003038CBF033A002203F0030393401B01DF
:103950003D4ADBB24FF00061002682F83B3352A8AB
:1039600051602822002109F02BFCCDE933666B6CF5
:1039700043F480536B646B6C03F480531593159B75
:103980002B6B43F001032B632B6B03F001031693A6
:10399000169B2B6B43F002032B632B6B03F002038C
:1039A0001793179B052335934CF250334FF0030ABE
:1039B000A02230A940460F930223CDE93023CDF851
:1039C000C8A001F0ADF810220223CDE93023032274
:1039D0000023CDE9322330A9002205231648CDE982
:1039E000342301F09DF8194B9A6D22F0606242F089
:1039F000C0629A659A6D22F0C00242F040029A6558
:103A00009A6D22F440329A659A6D22F490729A650A
:103A10009A6D22F400729A659A6D42F4806219E000
:103A2000003C02400038024000ED00E00003FA05CF
:103A300000000020D34D621000040240000002404C
:103A4000003801400004004000E100E00064024052
:103A5000003001409A659A6D22F4C05242F400622F
:103A60009A659A6D22F4C04242F400529A65DA6E69
:103A700022F00402DA6600224FF48273CDE9522369
:103A80009FED798B4FF400620023CDE9542300228F
:103A90004FF40073CDE9562352A900220A23584659
:103AA000CDE95A238DED588B01F012F9DBF8043083
:103AB00026AC23F01003CBF804302022C4E90066C2
:103AC000C4E902662661314652A809F079FBCDE9C6
:103AD0003066CDE93266CDE934662B6CDFF8C0B1D3
:103AE00043F002032B642B6C03F002031393139B2C
:103AF00040F2E73323808B232146A360384601F050
:103B00006FF93B684FF0804923F080033B60D9F8A0
:103B100018349FED577B43F00803C9F818348DED36
:103B2000527B9FED557B52AA012138468DED547B87
:103B3000569601F0A1F9D9F8183423F00403C9F816
:103B400018347B68DFF85C9123F070037B60BB68FE
:103B500023F08003BB602B6B43F001032B632B6BC3
:103B600003F001031493149B40220223CDE9302378
:103B700030A9002202234046CDE934238DED328B5B
:103B800000F0CEFF08F018FA43A1D1E900010822A5
:103B900022823B4BC4F81480042222831022C4E901
:103BA000000122840FCB0DF1700C0DF1240E8CE876
:103BB0000F00C4E902A8C4F81C80DFF8ECA0DFF80D
:103BC000EC808EE80F004FF49B760227CDE9016769
:103BD000F025CDE905ABCDE903892A460095294DAD
:103BE00007940897334652A9286800F0CBFA064696
:103BF000286000F0C7FB6FF07F41304600F022FDE7
:103C00000F9C0121204609F071FA50B309F0A8FA7F
:103C100004214FF4586009F069FA1B4A1B4D1C49F6
:103C20004FF4106302930123CDE9003010604AF68F
:103C300044430522174808F09DFA0FCD20AC0FC46D
:103C400095E8030020AA84E80300142130A809F0B5
:103C50008DF8314630A808F07DFB30A93046FDF7DD
:103C6000E7FE013CD4D0CCE70000000000000000DB
:103C7000600000000000000000000000680000007C
:103C8000FCE30008980100209C0100200CE40008DF
:103C900000600240003C00400030014000640240EF
:103CA000594A00082D4A0008514A0008F149000805
:103CB000FEE700BFFEE700BFFEE700BFFEE700BF74
:103CC000FEE700BF704700BF704700BF704700BFEE
:103CD00008B5044B186809F007F9034A1368013363
:103CE000136008BDA401002090010020054B5A6913
:103CF000D20700D47047044A01211068596108F0C6
:103D0000B7BF00BF003C0140A401002001480321CF
:103D100000F0A8B80064024008B5094B58685B6819
:103D20001B055ABF80F4806040F38020012007F01B
:103D3000D3FF034B4FF47C62DA60BFF34F8F08BDB3
:103D4000006002400120704708B509F0D7F916233A
:103D500003604FF0FF3008BD08B509F0CFF9162316
:103D60000360FEE770B5161E07DD0C468D19AFF334
:103D7000008004F8010BA542F9D1304670BD00BFA8
:103D800070B5161E07DD0C468D1914F8010BAFF344
:103D90000080AC42F9D1304670BD00BF4FF0FF301B
:103DA000704700BF4FF400534B600020704700BFC6
:103DB000012070470020704710B50C4C0C4B0D498A
:103DC0002268591A2AB11044884207D82060104648
:103DD00010BD094A226010448842F7D909F08EF9D3
:103DE0000C234FF0FF320360104610BD94010020F9
:103DF0000000012000040000B8010020034AD2F8AE
:103E0000883043F47003C2F88830704700ED00E05A
:103E1000DFF834D00D480E490E4A002302E0D45892
:103E2000C4500433C4188C42F9D30B4A0B4C002302
:103E300001E013600432A242FBD3FFF7DFFF09F079
:103E400063F9FFF771FC70470000012000000020BB
:103E50007401002044CC030874010020B801002044
:103E6000FEE7000010B53D4B84468E4693E8030004
:103E700082B002AB03E903000EF108026A44BEF10E
:103E8000030F12F8082C4FF03F0303FA02F388BF28
:103E90000CF10C01324A98BF0CF108010B60136859
:103EA00033B19A6A944505D0D3F84C36002BF8D13B
:103EB00002B010BDDA6A9645F6D11A6C22B1526989
:103EC000B3F844101142EFD1264A12F80E005CF804
:103ED000002022F001024CF800205CF80020D207FC
:103EE0000CEB000103D500BF0A68D407FBD4D3F85C
:103EF0003C26D2B95A6A516821F00201516091689A
:103F0000080604D500BF5A6A91680906FAD493F8E6
:103F1000411621B9196C11B1B3F844308B611368A3
:103F200023F04003136002B010BDB2F5803F0BD206
:103F30004A600022C3F83C265CF8003043F00103DD
:103F40004CF8003002B010BDA2F57F42FF3A4FF6A8
:103F5000FF744C60C3F83C26EEE700BF24E4000881
:103F60009801002068E50008F8B5456A2B685B06F3
:103F700004461ED4226C1AB1B4F844301B04936179
:103F80002B6823F42C432B602B6843F040032B60F9
:103F90000B78012B13D0022B69D0002B31D0236C6E
:103FA00013B1B4F844209A612B6823F040032B60CE
:103FB000F8BD00BF636A1B685F06DBD5F9E74E7882
:103FC00001F1020E002E58D070460EEB060C636A0B
:103FD000A76B10F8012BA18FB961DA609A68970777
:103FE00007D400BF9A689107FBD59A68120603D5DB
:103FF00000BF9A681206FBD46045E8D10EEB0601BB
:10400000C6E7A28F636AA66B48781204B261D860D3
:104010009A68960707D400BF9A689007FBD59A68FC
:10402000120603D500BF9A681206FBD48E7801F100
:10403000030E16B370460EEB060C636AA76B10F8FE
:10404000012BA18FB961DA609A68970707D400BF86
:104050009A689107FBD59A68120603D500BF9A6843
:104060001206FBD46045E8D10EEB060190E74878D4
:104070008E1C00F0EDFF31468AE7714688E700BFED
:1040800070B504464089A589A66901442A4488B2CE
:1040900092B21D46114613460246B04701462046DD
:1040A000FFF762FF364994F84800C5F3C40201EAFD
:1040B00015216B090A4303F4FC631A43012892B2E9
:1040C00001D152BA92B2636A19684E063ED494F88E
:1040D000411629B9256C1DB1B4F844100904A96131
:1040E00094F8421611B9A16BA58F8D611968022849
:1040F00021F42C41196031D01868D1B240F0400051
:104100001860D9609968890703D400BF9968890746
:10411000FBD5120ADA609A68920707D400BF9A6842
:104120009607FBD59A68100603D500BF9A6810065B
:10413000FBD494F8412622B9226C12B1B4F8441091
:1041400091611A6822F040021A6070BD00BF616A76
:1041500009684D06FAD494F84800B8E7196841F4A4
:1041600000611960196841F040011960DA609A68CD
:104170009007DBD400BF9A689507FBD5D6E700BF50
:1041800000F8FFFF2DE9F84F0C46BDF828A0BDF858
:104190002C909DF830809DF848B0002900F0DA801E
:1041A00000210546164620464FF4CA621F4609F014
:1041B00007F8DDF844C084F848B0BCE80F0004F10B
:1041C000240EAEE80F00BCE80F00AEE80F00DCF8EC
:1041D0000030CEF80030A36A002B3CD0E26A684978
:1041E000895C5A5822F001025A505A58D20703EB00
:1041F000010005D500BF0268D207FBD494F848B08F
:10420000BBF1010F0BD0BBF1020F0ED15A5822F4B3
:10421000F0425A505A5842F420525A5005E05A5827
:1042200022F4F0425A505A585A505A5822F48022D6
:1042300022F00E025A50426922F0800242615A581E
:1042400042F010025A505A5822F400725A505A58EA
:1042500042F480625A50B742394638BF3146BE42B6
:1042600028BF3E46B8F1000F43D1A680E180A4F8F4
:1042700000A0A4F80290C4F80A80564554D84945D5
:1042800052D80D9B002B4FD00E9B002B4CD00D9A7B
:1042900062610E9AA2610F9AE26113AB109A2262D8
:1042A0000FCB4FF0000C04F14C0604F1600784F8CA
:1042B000088086E80F0084F840C6C4F84CC6C4F8ED
:1042C00048C6E765002D45D0D5F84C3653B10122DC
:1042D0001D46D3F84C36511C1046CAB2002BF7D1FC
:1042E00084F84006C4F848562046C5F84C46BDE858
:1042F000F88FB8F1020F20D0B8F1010F2DD0B8F12E
:10430000030F11D15346A9EB01003246A4F80090E7
:10431000A4F802A0CA4699460023A180E6806081E5
:104320000E46A3811146A8E74FF4CA620021204639
:1043300008F046FF0020BDE8F88FAAEB0603638172
:10434000A9EB0103A680E180A4F800A0A4F80290E4
:10435000A38192E72046BDE8F88FAAEB0603A3816C
:1043600053463246A4F80090A4F802A0CA469946E3
:104370000023A180E68063810E4611467DE700BFE1
:1043800068E50008036B10B504465BB1828E120429
:104390009A61192000F05CFE236BA28E9A611920AD
:1043A00000F056FE6369207A984701462046FFF7E1
:1043B000DBFD94F85A10E26C64290B4628BF642395
:1043C00084F85A300AB3D16A174801FB03F3216D10
:1043D000A0FB0303B1F5807F4FEA531322D00FD81F
:1043E00001291AD0102908BF93631368DB0706D48C
:1043F000136A19431162136843F00103136010BD7F
:10440000B1F5805FF1D11364EFE7636D002BF6D057
:10441000B4F8582019B19A6110BD5363E5E712044E
:104420009A61F9E7D363E0E71F85EB51F0B59C464D
:1044300083B06145BDF82030099E8E46044601D9FF
:10444000E6468C469A4202D911461A460B46A18886
:10445000714540F29680E088904240F2928061453A
:104460009CBF01F1FF311FFA81FC98429CBF00F113
:10447000FF3083B2A1896089A7699D1A0B4411445A
:104480000CEB000270449BB2ACEB0E0C89B292B202
:10449000013580B20CFB0555B84701462046FFF7B1
:1044A00063FD94F841362BB9226C1AB1B4F844304C
:1044B0001B04936194F8423613B9A36BA28F9A61DF
:1044C0005D4B94F8482003EA1623C6F3C40176092D
:1044D000194306F4FC663143012A636A89B200F08D
:1044E00082801868A4F8441620F42C401860022A30
:1044F0001A6848D142F400621A601A6842F0400219
:104500001A60A26A002A00F08980E66A4B484C498A
:1045100010F806C003C902AF07E9030006F108015D
:10452000032E0DEB0106944416F8080C8CBF0C32D8
:1045300008323F21814011605A6842F002025A60FD
:104540000C33CCF8083004F24463CCF80C30DCF8BF
:10455000003023F40073CCF80030DCF80030B5F5FF
:10456000803F23F48063CCF800304DD20023CCF898
:104570000450C4F83C36DCF8003043F00103CCF8BA
:10458000003003B0F0BD42F040021A60A26A002A77
:10459000BBD1C8B2090AADB1D8609A68960703D4F6
:1045A00000BF9A689707FBD5D9609A68920703D431
:1045B00000BF9A689607FBD5013DEDD19A681206B7
:1045C00003D500BF9A681206FBD494F8412622B99D
:1045D000226C12B1B4F8441091611A6822F04002C2
:1045E0001A6003B0F0BD1A6849BA22F42C42A4F84C
:1045F00044161A601A6842F040021A60A26A89B230
:10460000002AC6D06D0080E7A5F57F454FF6FF7301
:10461000FF3DCCF80430C4F83C56ACE7002DD1D0B7
:10462000D9609A68920703D400BF9A689707FBD5B0
:10463000013DF5D1C6E700BF00F8FFFF68E50008BF
:1046400024E4000810B5C4888388013C82B00022AD
:10465000A4B2013BCDE900419BB21146FFF7E6FE53
:1046600002B010BD30B49942BDF908C0039D02DD0F
:104670000C4619462346624502DD14466246A446AE
:10468000002B08DB84888C4205DDBCF1000F02DBC7
:10469000C488944201DC30BC70471FFA8CF422EAD3
:1046A000E27221EAE171039502949BB230BC92B2AE
:1046B00089B2FFF7BBBE00BF2DE9F04F85B094462D
:1046C0000191A94A0F990E9F02EA1122C1F3C40A6F
:1046D0004AEA020A06464A0990F848009DF8441042
:1046E00002F4FC624AEA020A0128109A1FFA8AFAC6
:1046F00003D19AFA9AFA1FFA8AFA9B4CC2F3C409B8
:1047000004EA1224520949EA040902F4FC6249EA63
:10471000020201281FFA82F903D199FA99F91FFAC6
:1047200089F997F808B09B4502D87A7A9A4274D2F0
:104730004FF0000B387800F1FF384FEAE80808F135
:104740000108B8F1040F65DC7A687B7808FB0BFB85
:1047500003FB0B2B4FEAC802013A012505FA02F2CE
:10476000029200295ED0002B54D09146B8F1010F7F
:104770004FF000020146E24630460E97164644D0FE
:10478000B8F1020F00F0CE80B8F1030F00F0CD8039
:10479000DBF80050C34400293CD00FFA8AF2002A0B
:1047A00029DB019C002703E00134B942A4B220DDDB
:1047B00005FA07F313EA090F07F10107F4D083881C
:1047C0000FFA84FC6345EFDDB0F806E00F9B9645D9
:1047D000EADDBCF1000FE7DB6146CDE90202FFF73D
:1047E0004FFC0E9B19780134B942DDE90202A4B2F4
:1047F000DEDC0E9B5B7801369E420BDA0AF1010A81
:10480000B8F1010F1FFA8AFABAD19BF80050C344DD
:104810000029C2D105B0BDE8F08FA3EB0B0B5FFA06
:104820008BFB87E7B189019D74890CF1FF320A4443
:1048300013446A1E2244024428466144204492B232
:104840009BB289B2B569746A80B2A8470146304606
:10485000FFF78AFB326C1AB1B6F844301B0493613F
:10486000B36BB28F9A61236823F0400323602368FF
:1048700023F42C43236096F84830022B60D0236841
:1048800043F0400323607B78002B33D0B8F1010F55
:104890003B78029D4FF0000C28D0B8F1020F60D099
:1048A000B8F1030F62D0DBF80000C34413B3002259
:1048B00000FA02F1A368294214BF514649469B07FA
:1048C00003D400BFA3689B07FBD596F84830022BA2
:1048D0003BD1E1603B7801329342E9DC7A780CF11C
:1048E000010C624506DDB8F1010FD6D19BF800003E
:1048F000DBE700BFA3689A07FBD5A3681B0603D5B7
:1049000000BFA3681B06FBD42368326C23F040036E
:104910002360002A3FF47EAFB6F84430936105B0BF
:10492000BDE8F08FBBF8005034E79BF802509BF8CD
:1049300001202D0445EA02259BF80020154329E7B4
:10494000236843F40063236099E7CBB2E360A36874
:104950009B07C1F30F21BCD400BFA3689B07FBD505
:10496000B7E7BBF80000A0E700F8FFFF9BF80200E4
:104970009BF80120000440EA02209BF8002010432D
:1049800093E700BF2DE9F04F1F4685B01B780E9EC0
:104990009DF844A0DDE90F8905460C46934603B314
:1049A00096F800C0AA88A4449445284609DD717889
:1049B000EC888B441FFA8BFB5944A1424FF0000452
:1049C0000FDC2146CDE9029ACDE900685A46FFF78F
:1049D00073FE96F800C017F8013F6444A4B2002BA0
:1049E000E0D1EC81A5F810B005B0BDE8F08F00BFB4
:1049F00058B102280ED0012811D003280A4814BF4C
:104A00000023F82380F8413070470748482380F896
:104A10004130704704489C2380F841307047024879
:104A20002C2380F8413070471C00002010B4074C44
:104A300049BA618120715BBA000A110AE0706171A4
:104A40002046A271A3815DF8044B7047B00000209E
:104A500000487047C400002000487047CC00002088
:104A600010B403460079A8B1186880B15A79012AB8
:104A70002FD0022A1BD01AB301229B79002B3AD0E7
:104A8000022B30D0032B44D0012B38D001205DF80D
:104A9000044B7047214A1C68116821EA0401116027
:104AA000536823EA040353605DF8044B70471B49C5
:104AB0000C6804430C604C68044300224C60DCE743
:104AC00016494C6824EA00044C600C6804430C60EE
:104AD000D3E712490C6824EA00040C604C680443D4
:104AE00000224C60C9E70D4B996821EA00019960EA
:104AF000D9680843D86010465DF8044B7047074BEF
:104B0000D96821EA0001D960996808439860104685
:104B1000BDE7024B99680143E9E700BF003C014053
:104B20002DE9F0470C6894FAA4F2B2FA82F234FA52
:104B300002F37DD04FF0010E4FF0030C4FF00F0A3F
:104B400017E0D0F8008093FAA3F7B7FA87F793FA43
:104B5000A3F3B3FA83F37F000CFA07F75B0028EAAC
:104B6000070705FA03F33B430360013234FA02F30B
:104B70005ED00EFA02F32340F7D04D686F1E012F6E
:104B80001FD8D0F8088093FAA3F7B7FA87F793FAFB
:104B9000A3F98E68B9FA89F97F000CFA07F74FEA92
:104BA000490928EA070706FA09F947EA0907876069
:104BB0004768CE6827EA030706FB03F847EA0807B9
:104BC0004760D0F80C8093FAA3F7B7FA87F793FA07
:104BD000A3F90E69B9FA89F97F000CFA07F74FEAD1
:104BE000490928EA070706FA09F947EA0907022DE1
:104BF000C760A6D193FAA3F7B7FA87F7072F1ADC95
:104C0000D0F8208093FAA3F7B7FA87F793FAA3F9BD
:104C10004E69B9FA89F9BF000AFA07F74FEA89091C
:104C200028EA070706FA09F947EA0907076288E749
:104C30000020BDE8F087D0F824901F0A97FAA7F863
:104C4000B8FA88F897FAA7F74E69B7FA87F74FEAE4
:104C500088080AFA08F8BF0029EA080806FA07F7E0
:104C600048EA070747626CE7B0F5000F01D0002063
:104C70007047134A93681B0220D4106810F000603C
:104C80001BD051680F4B10B45468D2F88400D2F88E
:104C9000842011F4800FC0F3881104F03F0C0A48FF
:104CA0005DF8044BC2F3027218BF1846B0FBFCF06B
:104CB00001FB00F0B0FBF2F070477047034870470B
:104CC0000038024040787D010024F4000080BB00E1
:104CD0000246006810F0400028D1136830B423F475
:104CE0007F4CD1E900352B438D684C692B43CD684F
:104CF0002B430D692B438D6923432B43CD692B43F4
:104D00000D6A2CF0BF0C2B4343EA0C03136053686D
:104D100023F0040343EA1443B5F5005F53600BD05E
:104D2000D36923F4006330BCD3617047D36923F4A3
:104D300000630120D36170478B8C1361F0E700BFE3
:104D4000C3695B053AD470B50D460446C1692B684A
:104D5000D5E9012021F433611A4321F00F016B6979
:104D60000A4302431A432B6942F40062022BE261B8
:104D700026D000284FF400000CBF20264026FFF765
:104D800073FFEA68B2F5007F1FD0B0FBF6F303EBC8
:104D9000830329695B00B3FBF1F305330F49A1FBE2
:104DA00003131909881EFD28C3F3C00394BF41EA09
:104DB0000323022313432362002070BD01207047A8
:104DC000EA6813432362002070BD000A00EB8003F1
:104DD0005B002869B3FBF0F30533DFE7CDCCCCCC27
:104DE000244A0368904230B434D0B0F1804F1DD0D3
:104DF000A2F57C42904219D002F58062904215D013
:104E000002F58062904211D002F59A32904211D0A0
:104E100002F5806290420DD002F58062904209D086
:104E20008C680A880360C46282620CE04A6823F0DE
:104E300070031343CD688C680A8823F440732B43B6
:104E40000360C4628262436943F00103436130BC82
:104E5000002070474C68CA6823F07003234323F492
:104E60004073134303608A680B88C26283620B69D4
:104E70000363E8E700000140B1F5807F30B470D0F3
:104E800026D801294ED0102948D1036A156923F08C
:104E900010030362036A4468816923F0200343EA34
:104EA0000513156821F4E64141EA0521556823F010
:104EB000100343EA05135D4DA84200F09C80D568BD
:104EC0004460002281618563036230BC10467047F4
:104ED000B1F5805F22D1036A156923F48053036220
:104EE000036A4468C16923F4005343EA0533156833
:104EF00021F4E64141EA0521556823F4805343EA51
:104F000005334A4DA84200F08B80D56844600022EA
:104F1000C1610564036230BC10467047012210462F
:104F200030BC7047036A156923F001030362036A0A
:104F30004468816923F002032B43156821F0730153
:104F40002943556823F001032B43384DA8423ED036
:104F5000D5684460002281614563036230BC10461D
:104F60007047036A156923F480730362036A446817
:104F7000C16923F4007343EA0523156821F0730126
:104F80002943556823F4807343EA0523274DA8423B
:104F900008D0D56844600022C161C563036230BC9B
:104FA00010467047556923F4006343EA85239569E9
:104FB00024F4805444EA0514956823F4806343EA9A
:104FC0008523D56924F4005444EA4514E1E7556982
:104FD00023F0080343EA8503956924F480742C4385
:104FE000956823F0040343EA8503D56924F400742B
:104FF00044EA4504ACE7556923F0800343EA85138E
:10500000956924F4806444EA8504956823F040039C
:1050100043EA8513D56924F4006444EAC5044EE7E5
:10502000956924F4804444EA85146EE70000014049
:10503000064BA3FB00304FF0E0228309013B002028
:105040000521536190611161704700BFD34D62101B
:105050004FF0E02382B01B690193421C019B18BFF3
:1050600001304FF0E0221369DB03FCD50138FAD19F
:1050700002B07047014B1860704700BF000000206D
:105080000023C0E90023C0E902317047426801F003
:105090001F01F0B4C1F11F03846822FA03F38A40B0
:1050A0004260621A002A4FEA5303826002DB18460C
:1050B000F0BC7047C568032DA1EB04012CDC002473
:1050C0004460002D47D00668741C04603478012DBC
:1050D0004FEA042444600CD0B71C076077783C4347
:1050E0002402022D446004D0F71C0760B6783443D4
:1050F0002402C5F10306F600B44002F1200604FACA
:1051000001F1F4402343002402EBC502C460C0E96E
:105110000112F0BC1846704706683746741C0460DC
:1051200017F8024B076024064460777844EA074486
:10513000F71C44600760B77844EA0724371D4460D1
:105140000760F67820323443043D04FA01F1D4407C
:10515000C5602343DBE72946D5E700BF10B40468E8
:105160008368611AC3EBC103981A5DF8044B70475A
:1051700030B1036823B15869003818BF0120704767
:105180004FF0FF30704700BF002800F0C98003686F
:10519000002B00F0C5800A78FF2A40F0C1804A78D1
:1051A0002DE9F04F02F0E004E02C40F0B6804FEA29
:1051B000D20C12F0180F1ABF6FEA0C0C0CF0010C95
:1051C0004FF0020C83F800C091F801E0CEF3410EDD
:1051D000CEF10409C3F804904D78ED4305F00105C4
:1051E0009D608A781709DF608A78C2F381021A61AC
:1051F0008E78C6F340065E618C7804F001049C61F1
:1052000091F803804FEA981883F81C80CC78C4F397
:1052100001141C62CC78C4F3C0045C62CC78C4F383
:1052200080049C62CC78032A04F00304DC6274D00E
:10523000B9F1040F71D00F2F6FD002EBC20402EB53
:105240008404DFF8F8A064004FF0DE0B0BFB0C4485
:105250005444B8F1010F5C6306D00024B8F1030F89
:105260001C6201D1012400E00224C0F8D0970CEBAD
:105270004C0909EB020AC0F8BC472B4C80F8D4C794
:1052800054F82A40C0F8C047CEF1030E09EB0E0ACD
:10529000264CBCF1000F34F91A400CBF4FF0020A43
:1052A0004FF0010A4FEA4C0C94FBFAF4C0F8C4A783
:1052B000C0F8C8472FB3C9EB0919CEEB0E1EC2EBDD
:1052C0000212CE444A44BE443A44194F194C37F9AD
:1052D0001220194F34F91E40B8F1030F18BF0CF11A
:1052E000010C37F91C70D21BC4EB441704EB870484
:1052F000E400C0F8B847141F05B1941F2644C0F855
:10530000CC671DB91D630420BDE8F08F8A8852BAAE
:1053100092B206201A63BDE8F08F4FF0FF30F3E73A
:105320004FF0FF30704700BF383B01085C3B01087D
:10533000183E0108283A01080C3E0108703B01089C
:105340002DE9F04F8BB0002801F06180D0F800B05B
:105350000646BBF1000F01F05A8044680494002C0B
:1053600001F055809BF80080B8F1000F00F0ED804F
:105370009BF81C300691032B06AD0CBF09221122AD
:10538000082100232846CDE9073305920992FFF74B
:105390007DFE049C20609BF81C30032B0CBF012178
:1053A00002212846FFF772FE6060D6F8C437002B52
:1053B00040F3C380D6F8BC37049A0392002B4FF019
:1053C0000002029240F3B980039C0027B2460C21F0
:1053D0002846FFF75BFE0921A0622846FFF756FE2C
:1053E0000821E0622846FFF751FE20639BF8003059
:1053F000002B0CBF042109212846FFF747FE6063FC
:10540000DDE9070101F1FF3E4300BEF1000F079304
:105410004FEAD070CDF820E0C0F2B581A06300283B
:1054200000F0D28002212846FFF730FEDDE9073E7A
:105430000EF1FF315A00DE0F0029E063019607925A
:105440000891C0F2EF834FEAD26C9B01324622648E
:105450004A1F002A07930892C0F29A844FEAD36E3B
:105460005B01511F0029C4F844C007930891C0F2A2
:1054700028825A0FDB00C4F848E0A1F1030C4FF07A
:10548000000EF445C4F84CE00793CDF820C0C0F2FC
:105490005A834FEA537EDB002265ACF10302002AF7
:1054A00007930892C0F24482590FDB00C4F854E01D
:1054B0000793D31E002B0893C0F20C83A16500282C
:1054C00040F09181E36D6063C4E90A00C3F1140305
:1054D0002366DDE9073C9BF80020D90F5B00002A1A
:1054E00000F0B08000220CF1FF36002E62660793B8
:1054F0000896C0F2B580D80F5B00721E002AA16624
:1055000007930892C0F21081DAF8BC37E0660137E1
:10551000BB4204F148043FF75AAF029A01321146E8
:105520000292DAF8C4279142564606DA039A002B13
:1055300002F1900203923FF747AF049B1B68C6F845
:10554000D83705980BB0BDE8F08F9BF81C3006915A
:10555000032B06AD0CBF11232023092128460593F8
:105560000993CDE90788FFF791FD20609BF81C3077
:10557000032B0CBF052103212846FFF787FDD6F832
:10558000BC376060002B7FF710AF04F1180707EB02
:105590000319DDE90731BC468E464146ACF11004E3
:1055A0000EF1FF30DF0F00284FEA43030793089006
:1055B000C0F28580864644F8047BA445F0D10CF106
:1055C000100CCC45EAD1F0E6AEF105065901002EEB
:1055D000C4E90F004FEAD36C07910896C0F24782E6
:1055E000C90E9B02721F002AC4F844C00793089298
:1055F000C0F20C82D80E5B01A2F1050EBEF1000FC5
:10560000A1640793CDF820E0C0F22881E064042172
:105610002846FFF73BFDDDE90732A2F1030CD90074
:10562000BCF1000FE0650791CDF820C04FEA537040
:10563000C0F2E080C90F1B0120669BF80020002A01
:105640007FF450AF0CF1FF3EBEF1000F0793CDF891
:1056500020E0C0F2DE830A46F446D90F5B0042E741
:10566000099A032ACCF1010040F31A83069B0CF13E
:105670001F069E46A2F1040C5A1C06921EF8022B2D
:10568000CDF818E01206079293F801E042EA0E42C4
:1056900003F1030E0792CDF818E093F802E042EA16
:1056A0000E2203F1040E0792CDF818E0DB78CDF856
:1056B00024C01A4302FA00F3F24011431BE7DDF85D
:1056C0002480CEF10103B8F1030F019340F366810A
:1056D00006988246421C06921AF8022BCDF818A0B2
:1056E0001206079290F801A042EA0A4200F1030A6A
:1056F0000792CDF818A090F802A042EA0A2A021DEB
:10570000CDF81CA00692C2780EF11F0E42EA0A02E2
:10571000A8F1040802FA03F322FA0EF2CDF824806D
:105720001743CDE9073E46E709990329C6F1010C65
:1057300040F3F48206F11F03069EB646721C0692E1
:105740001EF8022BCDF818E01206079296F801E039
:1057500042EA0E4206F1030E0792CDF818E096F8E1
:1057600002E042EA0E2206F1040E0792CDF818E09C
:10577000F6783243043902FA0CF6DA400991104304
:10578000CDE90763C0E6099A032AC1F1010340F39A
:105790001182069E01F11F0EB446111F721C069263
:1057A0001CF8022BCDF818C01206079296F801C01B
:1057B00042EA0C4206F1030C0792CDF818C096F8A5
:1057C00002C042EA0C2206F1040C0792CDF818C080
:1057D000F6780991324302FA03F322FA0EF21043EB
:1057E000CDE9073E1AE6022800F00A830723E365A5
:1057F0000D236DE6099E032EC2F1030340F344839B
:10580000DDF818C0E6460CF1010106911EF8021BF6
:10581000CDF818E0090607919CF801E041EA0E4135
:105820000CF1030E0791CDF818E09CF802E041EA74
:105830000E210CF1040E0791CDF818E09CF803C07E
:105840001D324CEA010101FA03F3043ED140084342
:105850000996D90F5B0094460892EDE6DDF824C066
:10586000BCF1030FC2F1050140F30385069E02F16E
:105870001B03B646721C06921EF8022BCDF818E0E8
:105880001206079296F801E042EA0E4206F1030E74
:105890000792CDF818E096F802E042EA0E2206F1EF
:1058A000040E0792CDF818E0F6783243ACF1040C00
:1058B00002FA01F1DA40CDF824C01043CDE9071314
:1058C000A4E6DDF824C0BCF1030FC2F1050340F3E8
:1058D0005383DDF8188002F11B01C14608F1010273
:1058E000069219F8022BCDF818901206079298F834
:1058F000019042EA094208F103090792CDF8189095
:1059000098F8029042EA092908F10402CDF81C90A7
:10591000069298F80320ACF1040CCDF824C042EABA
:10592000090C0CFA03F32CFA01FC4EEA0C0EA0E56C
:10593000DDF82480B8F1030FCCF1030340F3DE82DD
:105940000CF11D02DDF818C0E1460CF101010691D1
:1059500019F8021BCDF81890090607919CF80190E0
:1059600041EA09410CF103090791CDF818909CF820
:10597000029041EA09290CF10401CDF81C9006912E
:105980009CF8031041EA0901A8F1040801FA03F3A5
:10599000D140CDF824804EEA010E85E50791B8F19B
:1059A000000F00F02D85DDF818A00AF10102069223
:1059B0009AF80020B8F1010F4FEA0222079212D0A4
:1059C0000AF1020306939AF801301A431202B8F161
:1059D000020F079207D00AF1030306939AF802A078
:1059E0004AEA02021202C8F1030A4FEACA0A02FA9C
:1059F0000AF2019B0EF11F0E22FA0EFE47EA0E0775
:105A000002FA03F300EBC80E09918AE6DDF824C020
:105A1000BCF1030FC6F1050340F3A68306F11B0298
:105A2000069EB646701C06901EF8020BCDF818E0D4
:105A30000006079096F801E040EA0E4006F1030EDA
:105A40000790CDF818E096F802E040EA0E2006F143
:105A5000040E0790CDF818E0F6783043ACF1040C52
:105A600000FA03F3D040CDF824C00143C2E5DDF8CD
:105A70002480B8F1030FCEF1050240F303830699A9
:105A80000EF11B064B1C8E4606931EF8023BCDF80A
:105A900018E01B06079391F801E043EA0E4301F179
:105AA000030E0793CDF818E091F802E043EA0E23C5
:105AB00001F1040E0793CDF818E0C978194301FAF3
:105AC00002F3A8F10400F1404CEA010C0990D90E50
:105AD0005B0187E5DDF824E0BEF1030FC2F10309A5
