:020000040800F2
:100000000000012049400008E93E0008ED3E0008DC
:10001000F13E0008F53E0008F93E0008000000002F
:10002000000000000000000000000000FD3E00088D
:10003000013F000800000000053F0008093F0008DC
:10004000994000089940000899400008994000082C
:100050009940000899400008253F00089940000891
:10006000994000089940000899400008994000080C
:1000700099400008994000089940000899400008FC
:10008000513F000899400008994000080000000016
:10009000000000000000000000000000994000087F
:1000A00099400008994000089940000899400008CC
:1000B00099400008994000089940000899400008BC
:1000C00099400008994000089940000899400008AC
:1000D000994000089940000899400008000000007D
:1000E000994000089940000899400008000000006D
:1000F000000000000000000000000000994000081F
:10010000000000009940000899400008994000084C
:1001100000000000000000000000000000000000DF
:10012000994000089940000899400008453F0008A0
:1001300099400008000000000000000000000000DE
:1001400000000000000000000000000099400008CE
:10015000994000089940000899400008994000081B
:1001600099400008994000080000000000000000CD
:10017000000000000000000000000000000000007F
:10018000000000009940000800000000000000008E
:04019000994000088A
:1001A00010B5054C237833B9044B13B10448AFF3B1
:1001B00000800123237010BD7401002000000000A6
:1001C00040E5000808B5034B1BB103490348AFF3F2
:1001D000008008BD000000007801002040E5000814
:1001E0002DE9F04F82B001904FF000744FF000788D
:1001F0004FF000054FF0000952F804CB52F804EB21
:100200000868CB6DC0FB0C45D1F88000CEF1000E24
:10021000C3FB0E45D1F8DC30C0FB0C89C3FB0E8953
:1002200052F804CB52F804EB48688B6DC0FB0C45C8
:10023000D1F88400CEF1000EC3FB0E45D1F8D830C2
:10024000C0FB0C89C3FB0E8952F804CB52F804EBB7
:1002500088684B6DC0FB0C45D1F88800CEF1000ECC
:10026000C3FB0E45D1F8D430C0FB0C89C3FB0E890B
:1002700052F804CB52F804EBC8680B6DC0FB0C4578
:10028000D1F88C00CEF1000EC3FB0E45D1F8D03072
:10029000C0FB0C89C3FB0E8952F804CB52F804EB67
:1002A0000869CB6CC0FB0C45D1F89000CEF1000E74
:1002B000C3FB0E45D1F8CC30C0FB0C89C3FB0E89C3
:1002C00052F804CB52F804EB48698B6CC0FB0C4528
:1002D000D1F89400CEF1000EC3FB0E45D1F8C83022
:1002E000C0FB0C89C3FB0E8952F804CB52F804EB17
:1002F00088694B6CC0FB0C45D1F89800CEF1000E1C
:10030000C3FB0E45D1F8C430C0FB0C89C3FB0E897A
:1003100052F804CB52F804EBC8690B6CC0FB0C45D7
:10032000D1F89C00CEF1000EC3FB0E45D1F8C030D1
:10033000C0FB0C89C3FB0E8901984FF4FE4E4EF0B2
:10034000FF0E4FEA946444EA851404F30F044FEA65
:10035000986848EA891808F30F080480A0F802801A
:1003600002F5707201F580514FF000744FF0007883
:100370004FF000054FF0000952F804CB0868D1F89F
:100380008030C0FB0C45C3FB0C8952F804CB486895
:10039000D1F88430C0FB0C45C3FB0C8952F804CB68
:1003A0008868D1F88830C0FB0C45C3FB0C8952F833
:1003B00004CBC868D1F88C30C0FB0C45C3FB0C895A
:1003C00052F804CB0869D1F89030C0FB0C45C3FB50
:1003D0000C8952F804CB4869D1F89430C0FB0C4525
:1003E000C3FB0C8952F804CB8869D1F89830C0FB64
:1003F0000C45C3FB0C8952F804CBC869D1F89C307A
:10040000C0FB0C45C3FB0C8901984FF4FE4E4EF027
:10041000FF0E4FEA946444EA851404F30F044FEA94
:10042000986848EA891808F30F08A0F84040A0F837
:100430004280A2F57872A1F570614FF00F0C00F1C7
:100440000400CDF800C001904FF000744FF0007828
:100450004FF000764FF0007A4FF000054FF00009A2
:100460004FF000074FF0000B52F804CB52F804EBAA
:100470000868CB6DC0FB0C45C0FB0E67CEF1000ECB
:10048000C3FB0C67C3FB0E45D1F8DC30D1F880000C
:10049000C3FB0E89C3FB0CABCEF1000EC0FB0C8975
:1004A000C0FB0EAB52F804CB52F804EB48688B6DDE
:1004B000C0FB0C45C0FB0E67CEF1000EC3FB0C6702
:1004C000C3FB0E45D1F8D830D1F88400C3FB0E89A8
:1004D000C3FB0CABCEF1000EC0FB0C89C0FB0EAB16
:1004E00052F804CB52F804EB88684B6DC0FB0C4506
:1004F000C0FB0E67CEF1000EC3FB0C67C3FB0E45BD
:10050000D1F8D430D1F88800C3FB0E89C3FB0CAB03
:10051000CEF1000EC0FB0C89C0FB0EAB52F804CB31
:1005200052F804EBC8680B6DC0FB0C45C0FB0E67AE
:10053000CEF1000EC3FB0C67C3FB0E45D1F8D030E3
:10054000D1F88C00C3FB0E89C3FB0CABCEF1000EBF
:10055000C0FB0C89C0FB0EAB52F804CB52F804EB85
:100560000869CB6CC0FB0C45C0FB0E67CEF1000EDA
:10057000C3FB0C67C3FB0E45D1F8CC30D1F890001B
:10058000C3FB0E89C3FB0CABCEF1000EC0FB0C8984
:10059000C0FB0EAB52F804CB52F804EB48698B6CED
:1005A000C0FB0C45C0FB0E67CEF1000EC3FB0C6711
:1005B000C3FB0E45D1F8C830D1F89400C3FB0E89B7
:1005C000C3FB0CABCEF1000EC0FB0C89C0FB0EAB25
:1005D00052F804CB52F804EB88694B6CC0FB0C4515
:1005E000C0FB0E67CEF1000EC3FB0C67C3FB0E45CC
:1005F000D1F8C430D1F89800C3FB0E89C3FB0CAB13
:10060000CEF1000EC0FB0C89C0FB0EAB52F804CB40
:1006100052F804EBC8690B6CC0FB0C45C0FB0E67BD
:10062000CEF1000EC3FB0C67C3FB0E45D1F8C03002
:10063000D1F89C00C3FB0E89C3FB0CABCEF1000EBE
:10064000C0FB0C89C0FB0EAB01F5807101984FF423
:10065000FE4E4EF0FF0E4FEA946444EA851404F314
:100660000F044FEA986848EA891808F30F084FEA20
:10067000966646EA871606F30F064FEA9A6A4AEA32
:100680008B1A0AF30F0ADDF800C000EBCC0E2EF82F
:10069000026B2EF802AB20F8024B20F8028BBCF163
:1006A000010C7FF4CEAE02B0BDE8F08F2DE9F04F23
:1006B00082B001904FF000744FF0000552F804CB67
:1006C00052F804EB0868CB6DCEF1000EC0FB0C4570
:1006D000C3FB0E4552F804CB52F804EB48688B6D0F
:1006E000CEF1000EC0FB0C45C3FB0E4552F804CB07
:1006F00052F804EB88684B6DCEF1000EC0FB0C4540
:10070000C3FB0E4552F804CB52F804EBC8680B6DDE
:10071000CEF1000EC0FB0C45C3FB0E4552F804CBD6
:1007200052F804EB0869CB6CCEF1000EC0FB0C450F
:10073000C3FB0E4552F804CB52F804EB48698B6CAE
:10074000CEF1000EC0FB0C45C3FB0E4552F804CBA6
:1007500052F804EB88694B6CCEF1000EC0FB0C45DF
:10076000C3FB0E4552F804CB52F804EBC8690B6C7E
:10077000CEF1000EC0FB0C45C3FB0E4501984FF4B3
:10078000FE4E4EF0FF0E4FEA946444EA851404F3E3
:100790000F04048002F5707201F580514FF000746F
:1007A0004FF0000552F804CB0868C0FB0C4552F826
:1007B00004CB4868C0FB0C4552F804CB8868C0FBEA
:1007C0000C4552F804CBC868C0FB0C4552F804CB6A
:1007D0000869C0FB0C4552F804CB4869C0FB0C45C6
:1007E00052F804CB8869C0FB0C4552F804CBC869A9
:1007F000C0FB0C4501984FF4FE4E4EF0FF0E4FEA41
:10080000946444EA851404F30F040484A2F5787216
:10081000A1F570614FF00F0C00F10200CDF800C09F
:1008200001904FF000744FF000764FF000054FF04C
:10083000000752F804CB52F804EB0868CB6DC0FBFC
:100840000C45C0FB0E67CEF1000EC3FB0E45C3FB8B
:100850000C6752F804CB52F804EB48688B6DC0FB70
:100860000C45C0FB0E67CEF1000EC3FB0E45C3FB6B
:100870000C6752F804CB52F804EB88684B6DC0FB50
:100880000C45C0FB0E67CEF1000EC3FB0E45C3FB4B
:100890000C6752F804CB52F804EBC8680B6DC0FB30
:1008A0000C45C0FB0E67CEF1000EC3FB0E45C3FB2B
:1008B0000C6752F804CB52F804EB0869CB6CC0FB10
:1008C0000C45C0FB0E67CEF1000EC3FB0E45C3FB0B
:1008D0000C6752F804CB52F804EB48698B6CC0FBF0
:1008E0000C45C0FB0E67CEF1000EC3FB0E45C3FBEB
:1008F0000C6752F804CB52F804EB88694B6CC0FBD0
:100900000C45C0FB0E67CEF1000EC3FB0E45C3FBCA
:100910000C6752F804CB52F804EBC8690B6CC0FBAF
:100920000C45C0FB0E67CEF1000EC3FB0E45C3FBAA
:100930000C6701F5807101984FF4FE4E4EF0FF0EEA
:100940004FEA946444EA851404F30F044FEA966670
:1009500046EA871606F30F06DDF800C000EB8C0EA2
:100960002EF8026B20F8024BBCF1010C7FF456AF5D
:1009700002B0BDE8F08F034613F8012B002AFBD12B
:10098000181A013870470000000000000000000045
:1009900001F0FF01102A2BDB10F0070F08D010F830
:1009A000013B013A8B422DD010F0070F42B3F6D134
:1009B000F0B441EA012141EA014122F007047FF04D
:1009C00000070023F0E80256083C85EA010586EAA4
:1009D000010685FA47F5A3FA87F586FA47F6A5FAE0
:1009E00087F68EB9EED1F0BC01F0FF0102F00702EC
:1009F00032B110F8013B013A83EA010313B1F8D197
:100A00000020704701387047002D06BF3546033877
:100A1000073815F0010F07D1013015F4807F02BFB0
:100A2000013015F4C03F0130F0BC0138704700BF01
:100A30007BB972B90029BEBF00204FF0004106E02B
:100A400008BF00281CBF6FF000414FF0FF3000F0DE
:100A5000A7B9ADF1080C6DE904CE002909DB002B24
:100A60001ADB00F035F8DDF804E0DDE9022304B01C
:100A70007047404261EB4101002B1BDB00F028F87E
:100A8000DDF804E0DDE9022304B0404261EB4101FE
:100A9000524263EB43037047524263EB430300F05F
:100AA00017F8DDF804E0DDE9022304B0404261EB11
:100AB00041017047524263EB430300F009F8DDF84F
:100AC00004E0DDE9022304B0524263EB43037047C4
:100AD0002DE9F047089D04468E46002B4DD18A42F1
:100AE000944669D9B2FA82F252B101FA02F3C2F124
:100AF000200120FA01F10CFA02FC41EA030E9440B5
:100B00004FEA1C48210CBEFBF8F61FFA8CF708FBD5
:100B100016E341EA034306FB07F199420AD91CEBAD
:100B2000030306F1FF3080F01F81994240F21C81DF
:100B3000023E63445B1AA4B2B3FBF8F008FB103327
:100B400044EA034400FB07F7A7420AD91CEB04045C
:100B500000F1FF3380F00A81A74240F2078164442C
:100B6000023840EA0640E41B00261DB1D4400023B1
:100B7000C5E900433146BDE8F0878B4209D9002D15
:100B800000F0EF800026C5E9000130463146BDE89F
:100B9000F087B3FA83F6002E4AD18B4202D3824209
:100BA00000F2F980841A61EB030301209E46002DB8
:100BB000E0D0C5E9004EDDE702B9FFDEB2FA82F20D
:100BC000002A40F09280A1EB0C014FEA1C471FFA6B
:100BD0008CFE0126200CB1FBF7F307FB131140EA52
:100BE00001410EFB03F0884208D91CEB010103F11F
:100BF000FF3802D2884200F2CB804346091AA4B2E1
:100C0000B1FBF7F007FB101144EA01440EFB00FEB4
:100C1000A64508D91CEB040400F1FF3102D2A64519
:100C200000F2BB800846A4EB0E0440EA03409CE7B8
:100C3000C6F12007B34022FA07FC4CEA030C20FA65
:100C400007F401FA06F31C43F9404FEA1C4900FA85
:100C500006F3B1FBF9F8200C1FFA8CFE09FB181102
:100C600040EA014108FB0EF0884202FA06F20BD975
:100C70001CEB010108F1FF3A80F08880884240F2C5
:100C80008580A8F102086144091AA4B2B1FBF9F009
:100C900009FB101144EA014100FB0EFE8E4508D904
:100CA0001CEB010100F1FF346CD28E456AD9023889
:100CB000614440EA0840A0FB0294A1EB0E01A1426E
:100CC000C846A64656D353D05DB1B3EB080261EBDC
:100CD0000E0101FA07F722FA06F3F1401F43C5E9B6
:100CE000007100263146BDE8F087C2F12003D840EC
:100CF0000CFA02FC21FA03F3914001434FEA1C472E
:100D00001FFA8CFEB3FBF7F007FB10360B0C43EA1F
:100D1000064300FB0EF69E4204FA02F408D91CEBCF
:100D2000030300F1FF382FD29E422DD902386344CD
:100D30009B1B89B2B3FBF7F607FB163341EA03416D
:100D400006FB0EF38B4208D91CEB010106F1FF38BC
:100D500016D28B4214D9023E6144C91A46EA0046B3
:100D600038E72E46284605E70646E3E61846F8E645
:100D70004B45A9D2B9EB020864EB0C0E0138A3E78E
:100D80004646EAE7204694E74046D1E7D0467BE76F
:100D9000023B614432E7304609E76444023842E7E7
:100DA000704700BF2DE9F04F93B00792AA4A0F9306
:100DB0001378DDF874A05C1EE4100134042C0A944E
:100DC00000F3998055780695EB1AE400651E03EB55
:100DD000D37301245B10AC4004FA03F31193002990
:100DE00000F08C80012900F03581022908BF4F21D5
:100DF000137A54680B948B4203D8527A8A4280F05B
:100E00001F81069A002A76D00F9B013B9BB210935C
:100E1000079B013B9BB2029312FB02F303931E9BC1
:100E2000002103FB02F9531E0D9108930C910991C7
:100E30000E910A9B012B63D0022B00F0C280032B82
:100E400000F0C4800B9BD3F800B01946DDE90E23F7
:100E50000A9C1A4421440D9B0B91109953440D9305
:100E6000B3FBF9F3CF180E93DDE90813994292B260
:100E7000BFB24AD0002B77D00C9B0026C3EB0328CF
:100E8000344635461EE008998C421FD011990B421A
:100E90001C9B08BFFF230193079B00975919029BD6
:100EA0005644B6FBF9F52B449BB289B2CDE9040256
:100EB00003F0D8FB069B0134A342DDE9040208F1EC
:100EC000FF080CD00BFA04F3002CDCD1039BB8FB19
:100ED000F3F3DBB243F47F0343F47F43DBE71A46CB
:100EE0000C9B13449B46099B069ACDF830B0013306
:100EF000934209939DD113B0BDE8F08F202177E78D
:100F00000B9B93F800B01946A0E700296BD00C9B0F
:100F1000069903EB010B0026CBEB0B28CDF830B084
:100F2000DDF81CB0C3EB03253446039BB5FBF3F39C
:100F3000DBB243F47F0343F47F430193029B0097AA
:100F40000BEB04015644B6FBF9F4234489B2FF3598
:100F50009BB2CDE9040203F085FB4545DDE90402BF
:100F6000E3D1DDF830B0BEE71C4606990C9B03EBDD
:100F7000010BCBEB0B28CDF830B0DDF81CB0C3EB88
:100F800003252646039BB5FBF3F3DBB243F47F0353
:100F900043F47F430193029B00970BEB04015644FB
:100FA000B6FBF9F4234489B2FF359BB2CDE90402C4
:100FB00003F058FB4545DDE90402E3D1DDF830B02C
:100FC00091E70B9BB3F800B019463FE70B9A92F8F4
:100FD00002B053784FEA0B4B4BEA032B13781146C0
:100FE0004BEA030B32E70C9B0C46069903EB010B13
:100FF000CBEB0B28CDF830B0DDF81CB0C3EB0325EC
:101000002646039BB5FBF3F3DBB243F47F0343F4C3
:101010007F430193029B00970BEB04015644B6FB00
:10102000F9F4234489B2FF359BB2CDE9040203F001
:1010300019FB4545DDE90402E3D1DDF830B052E7A4
:101040000A9ACB1ADBB202FB03F3069A02FB0343B4
:101050000B93D6E65821CBE6040000202DE9F04F93
:1010600095B003929B4A119313785C1EE4100134EF
:10107000042C0C9400F3CF8055780995EB1AE4000A
:10108000651E03EBD37301245B10AC4004FA03F339
:101090001393002900F0C280012900F0E0810229A9
:1010A00008BF4F21137A54680D948B4203D8527AAB
:1010B0008A4280F0CA81099A002A00F0AC80119B14
:1010C000854C013B9BB21293039B013B9BB2049363
:1010D00012FB02F305931F9B002103FB02F3013A6D
:1010E0000F910A920B9110919B460E910C9B012B34
:1010F00000F09680022B00F04781032B00F048811E
:101100000D9BD3F800A01E99DDE910231A440F9B14
:101110000B44DDE90C5129440D9112990F93B3FB57
:10112000FBF301EB03081093DDE90A13994292B235
:101130001FFA88F878D0002B00F0D4800E9B00278F
:10114000C3EB03293D463E46069723E00A9FBD4276
:1011500026D013990B426149614B18BF0B4601938E
:10116000039BCDF8008099191E9B069E1E44049B8C
:101170000696B6FBFBF633449BB289B2CDE9070273
:1011800003F070FA099B0135AB42DDE9070209F172
:10119000FF0933D06FF079010AFA05F3002DD5D19C
:1011A0006FF03107059BB9FBF3F3DBB207FB03FCE0
:1011B00084FB0C7E03FB01F1E6444FEAEC7CACEBD4
:1011C000EE1C84FB017E8E44C917ACF1330CA1EBFD
:1011D000EE11A3EB83035FFA8CFC7B399B014FEA92
:1011E0000C4CC9B24CEA012184FB037C9C44DB1704
:1011F000A3EBEC133F33DBB20B43B0E71A460E9B75
:10120000134408930B9B089A0E92099A0133934258
:101210000B937FF46BAF15B0BDE8F08F202141E751
:101220000D9B93F800A06EE7002900F0BB800E999B
:10123000099B0026CB180893C1EB012AC3EB0329B5
:101240003546039BCDF8008059191E9B6FF0790538
:101250001E44059BBAFBF3F3DBB205FB03FC84FBE6
:101260000C7E6FF0310505FB03F5E6444FEAEC7C9C
:10127000ACEBEE1C84FB057EAE44ED17A5EBEE1542
:10128000ACF17B0CA3EB83035FFA8CFC333D9B0139
:10129000EDB24FEA0C2C4CEA054C84FB03751D445F
:1012A000DB17A3EBE5133F33DBB24CEA03030193F7
:1012B000049BB6FBFBF52B4489B20AF1FF0A9BB2F3
:1012C000CDE9060203F0CEF9CA45DDE90602B8D140
:1012D00098E700BF0400002081808080FF901E00FE
:1012E0009314FF000E991D46099BCB180893C1EB80
:1012F000012AC3EB03292E46039BCDF80080591920
:101300001E9B6FF031051E44059BBAFBF3F3DBB265
:1013100005FB03FC84FB0C7E6FF0790505FB03F5F0
:10132000E6444FEAEC7CACEBEE1C84FB057EAE445D
:10133000ED17A5EBEE15ACF1330CA3EB83035FFACD
:101340008CFC7B3D9B01EDB24FEA0C4C4CEA052C2A
:1013500084FB03751D44DB17A3EBE5133F33DBB2BE
:101360004CEA03030193049BB6FBFBF52B4489B2C3
:101370000AF1FF0A9BB2CDE9060203F073F9CA45F0
:10138000DDE90602B8D13DE70D9BB3F800A0BAE64F
:101390000D998B781A044B7842EA03220B7842EAC3
:1013A000030AB0E60D46099B0E99CB180893C3EBD0
:1013B00003234746C1EB012A2E469846039B00971C
:1013C00059191E9B6FF079051E44059BBAFBF3F378
:1013D000DBB205FB03FC84FB0C9E6FF0310505FBC3
:1013E00003F5E6444FEAEC7CACEBEE1C84FB059E77
:1013F000AE44ED17A5EBEE15ACF17B0CA3EB83032C
:101400005FFA8CFC333D9B01EDB24FEA0C2C4CEAA9
:10141000054C84FB03E51D44DB17A3EBE5133F33C9
:10142000DBB24CEA03030193049BB6FBFBF52B44B0
:1014300089B20AF1FF0A9BB2CDE9060203F012F964
:10144000C245DDE90602B9D1DCE60C9ACB1ADBB263
:1014500002FB03F3099A02FB03430D932BE6582189
:1014600020E600BF2DE9F04F8FB04FF0000983F860
:101470000090CDE90C23189B82F80090029083F82D
:101480000090002900F0D0804B1E012450FA83FE0A
:1014900001FB03030193CDE90711631ACDE9099418
:1014A00005930B190B94049300904FF0FF3B4E46AD
:1014B000CDF81890CDF80C904D46029B5B441A462F
:1014C0000C464FF0010C002703E0013C0127724558
:1014D0000BD012F8010F0128F9D00028F5D0724581
:1014E0004FF0000C4FF00107F3D104FB0CFC189AED
:1014F000AC45B8BFAC4682F800C0002F79D0029846
:10150000002200EB090488464FF0010A104607E06C
:1015100008F1FF3838460132D5B2A9420C440CD943
:101520002578012DF7D0002DF2D00132D5B2A94295
:1015300038464FF0000A0C44F2D80AFB08F8C445BC
:10154000189AB8BFC4465FFA8CF5157000285AD0B7
:10155000009A1278012A05D0002A42D1079A013A4E
:10156000CDE90602019A1278012A05D0002A3CD161
:10157000089A013ACDE9082013F8012F002A08BF84
:1015800006467345F8D1059A03EB010E019B1344FF
:101590000193049A009B09F10109134400935FFA37
:1015A00089F399428B44039387D8079A0A9B089939
:1015B00002FB03F30B9A01FB02F29342B8BF1346FE
:1015C0009C456746B8BF1F46189B1F70069B5BB3C0
:1015D000099B13B3002E14BF002002200FB0BDE8FA
:1015E000F08F002206900A92BCE7002209900B922D
:1015F000C2E7039B03F1010B0C9B012083F800B0B1
:101600000FB0BDE8F08F039B03F1010B0D9B384633
:1016100083F800B00FB0BDE8F08F0D9A0698022352
:1016200013700C9A1370EBE70D9A012313700C9A48
:10163000184613700FB0BDE8F08F00BF2DE9F04FD2
:101640002DED028BA1B004AFBB6197F8A830F8650F
:101650003B61002B00F05B81044611FB01F08B46DF
:10166000002800F03D81631E92461844002113F8C3
:10167000012F02B901318342F9D1002900F03081F4
:1016800001EB41039B00073323F007036A46ADEBF0
:10169000030D0DF1130308EE102A9A0823F003033B
:1016A0007A607B62BBF1000F00F0AF81BB69012B58
:1016B0000CBF01214FF0FF31B960F96DB9620BF138
:1016C000FF320023FA600BFB0212FB627A61BB63FC
:1016D000BB6A013B3B650023FB643B6D13F8015F74
:1016E0003B6565B1FB6C0133DBB29B4500F0EC80E0
:1016F000FB643B6D13F8015F3B65002DF2D1BA6BC3
:10170000796A83F800A002EB4203F86A01F823002B
:1017100001EB8303F96C59703B625D6001239A40D1
:10172000F968FA61FA6DBA6652FA81F6C7E910BB38
:101730007A697A66A3EB0B01B9654FF0FF320BEBC8
:101740000301A9463B637965AE46FD63BD64FA6655
:101750003D667B63FA6EFB6D13441A4600255846BE
:10176000012403E001380125B2420BD012F8011F19
:101770008A45F9D00029F5D0B2424FF000044FF06D
:101780000105F3D104FB00F08145B8BF8146002D6F
:1017900000F02081D7E9172100245118DC462246A9
:1017A0004FF0010807E00CF1FF3C2C460132D0B2AB
:1017B000834559440CD908788245F7D00028F2D0E7
:1017C0000132D0B283452C464FF000085944F2D87C
:1017D00008FB0CFCCC45B8BFCC465FFA8CF9002C5A
:1017E00000F00781BA6E1278924506D0002A40F0C8
:1017F00086807A6C013AC7E911247A6E1278924594
:1018000005D0002A7FD13A6C013AC7E90F4213F89C
:10181000012F002A08BFA6469E42F8D17A6EB96D04
:101820003B6E0A447A66796DBA6E0A440133BA6631
:10183000FA6E3B66DBB25A449B455E44FA6689D831
:101840007A6C7B6B396C02FB03F33A6B01FB02F29F
:101850009342B8BF1346B96BFA690A44796A634583
:1018600001EB8202B8BF63461372BB6C002B00F021
:10187000B980FB6B002B00F0B580BEF1000F16D0D5
:10188000D7F8A4300193D7F8A03000933B69013B0F
:10189000DBB20293BB69F86DC3F10303CAF1030223
:1018A000DBB2D2B25946FFF7C9FE3B6A58603B6DC6
:1018B0004FF000021A70BB6B0133BB63FB6C01334A
:1018C000DBB29B457FF414AFBB6AFA6AF96C5B44E8
:1018D000BB628A4202F10103DBB21FD0FB62F7E672
:1018E000D7F8A43083F800B0D7F8A03000207437C0
:1018F00083F800B0BD46BDEC028BBDE8F08F00223E
:10190000BC647A6379E70022FC633A637FE7184698
:101910007437BD46BDEC028BBDE8F08F7E6ABB6BB1
:101920007068347A5A1ECBB3BB690025012B01467F
:101930002B4623D0814208DC03EB430C06EB8C0CD6
:1019400045DB9CF80810A14250DC0133013ADBB2C0
:1019500003EB4301B2F1FF3F06EB81011CD0496864
:10196000E8E71D4608460133013ADBB203EB4301C9
:10197000B2F1FF3F06EB81010ED049688842F2DCEC
:1019800003EB430C06EB8C0CEBDB9CF80810A1423C
:10199000E9DD1D460C46E6E7BD632B467A6A7968A9
:1019A00003EB430302EB83029B0013F821105378EF
:1019B000D7F8A0201170D7F8A420137018EE103AB1
:1019C00074379D46BD46BDEC028BBDE8F08F1D46C9
:1019D0000846BAE7BA6BFB6913447A6A02EB8303E1
:1019E00083F808903B6ABA685A6060E71D460C4667
:1019F000ABE7BA6BFB6913447A6A02EB8303BA68FC
:101A000083F808903B6A5A6051E75868C7F838B0C5
:101A10005B46C3E72DE9F04F2DED0A8BADF5077D51
:101A2000CD4C04AF07F5927383468A46C7F89430CD
:101A30000FCC07F5BA760FC60FCC0FC60FCC0FC66A
:101A400094E80F00C54C86E80F000FCCD7F89460DF
:101A50000FC694E80700C24BC24C86E8070093E823
:101A6000030007F1B40383E80300BF4B93E80300CE
:101A7000BE4B87F8A810C7F8A40093E80300BC4B3E
:101A8000A7F8B010C7F8AC0093E8070007F1CC0541
:101A900003C5B84B25F8022B120C2A700FCB07F1A7
:101AA000E808A8E8070028F8023B1B0C88F800307B
:101AB000B14B0FCB07F1D80CACE807008CF8003025
:101AC0000FCC07F58679A9E80F0094E80300AB4C2A
:101AD00049F8040B89F800100FCC07F1F80EAEE8B6
:101AE0000F002368BBF80620AEF80030BBF80430C6
:101AF0009A4228BF1A46A24BBA641B684FF00101F4
:101B00008AF82810002433B10BF074FD9C4B1B683D
:101B10000134A342F8D8BA6C02F116039BB209EE65
:101B2000903A02F12B039BB20CEE103A931C9BB23D
:101B30000AEE903A02F12A039BB20BEE103A1346DA
:101B400037339BB20BEE903A134652083A620AF1D1
:101B50007402002108EE902A0AF1380209EE102AD8
:101B6000C7E90D1107F1D80208EE102A5A1C1533E7
:101B7000F96439637A603B600AF07EF9814958461E
:101B800002F07CFE80484FF0FF310AF0F5F8BBF818
:101B90000630BBF80490994528BF9946002307F505
:101BA000BE78C7F890304E46D7F890300024C3F383
:101BB000CF09A8F10805C7F894400DE00824CDE945
:101BC0000164CDF800C0FFF7EDF8D7F89430454533
:101BD0003344C7F8943013D015F8011BD7F894207C
:101BE00001296FF07F4C4B465846C2F3CF02E5D136
:101BF0000823CDE901634FF47F0300934B46E2E7EE
:101C0000D7F89030334408F10808C7F8903007F54A
:101C1000DE739845C8D107F58670FEF7ACFE5B4AC7
:101C2000BC6C1378574D029500FB134000264FF40F
:101C30007F03C0F34F010092019319EE902A07F53C
:101C400086735846039602F0B9FF07F1F800FEF7D5
:101C500092FE4F4A1378009200FB1340FF23C0F31B
:101C60004F01CDE902561CEE102A0193584607F1A8
:101C7000F80302F0A3FF41F2883003F005FBBBF844
:101C80000640BBF804309C4228BF1C4604EB4403CA
:101C9000DB0807F28B1807F293154FF0080918F8C4
:101CA000011FC6F3CF02CDE900495846C7F894306A
:101CB000FFF7D4F9A845D7F894302644EFD1BBF804
:101CC0000640BBF804309C4228BF1C46630807F25C
:101CD000931807F29B1600254FF0080918F8011F0A
:101CE000C5F3CF02CDE900495846C7F89430FFF755
:101CF000B5F9B045D7F894302544EFD14FF4FA60E8
:101D0000244D03F0C1FA0023C7F890300FCD07F53A
:101D1000DA740FC40FCD0FC40FCD0FC495E80F00B8
:101D200084E80F002B69A7F8A0301B0CBBF80490C7
:101D300087F8A230BBF80630994528BF994607F5C9
:101D4000DE784E46D7F890300024C3F3CF09A8F1CF
:101D50000805C7F894402DE058E5000814E700088E
:101D600030E7000838E7000850E7000858E70008A7
:101D700060E700086CE700087CE700088CE70008D3
:101D80009001002000FFFF00E00000200400002080
:101D90001000002098E500080824CDE90164CDF882
:101DA00000C0FEF7FFFFD7F8943045453344C7F82D
:101DB000943013D015F8011BD7F8942001296FF047
:101DC0007F4C4B465846C2F3CF02E5D10823CDE9FC
:101DD00001634FF47F0300934B46E2E7D7F890305E
:101DE000334408F10808C7F8903007F5FE739845AA
:101DF000A8D107F1A003C7F894304FF00809BBF849
:101E00000640BBF804309C4228BF1C46D7F89430EB
:101E100013F8015BC7F8943007F5DA7204FB05F399
:101E200005FB092607F5DE724FF00008C3F3CF0368
:101E300019FB052516F8011BC8F3CF02CDE90049AF
:101E40005846C7F89030FFF709F9AE42D7F89030FE
:101E5000A044EFD1D7F8943007F1A3029342CED13A
:101E6000BBF80650BBF804309D4228BF1D464FEA20
:101E7000E50842F21074A64A9AF829301168D3B9DD
:101E800000BF9AF82930B3B90125A14B1E6804FBA5
:101E900005F3721A9A4209D301350D2D4FF0000156
:101EA0009C4828BF012509F067FF314600BF9AF81A
:101EB0002930002BE9D09AF828305BB100BF9AF89E
:101EC0002930002BF7D1DAF82030032B0ED8904BB5
:101ED0001968D5E750460BF07DF800BF9AF8293015
:101EE000002BE8D1DAF82030032BF0D919EE102AB4
:101EF00018EE901A07F1C4000BF000F8D7F8C830BC
:101F000093FBF8F39A1E042AB5D800218248FB639C
:101F10001D4609F031FFBBF80640BBF804309C4277
:101F200007F5DA7128BF1C4604FB05F301EBC50673
:101F300007F5DE7101EBC508C3F3CF0300254FF0B1
:101F4000080916F8011BC5F3CF02CDE90049584630
:101F5000C7F89430FFF782F84645D7F89430254407
:101F6000EFD14FF4FA7003F08FF951226B4907F566
:101F7000DA700BF019FA6A4BBBF804201B68A7F85B
:101F8000A0301B0C87F8A230BBF80630934228BF64
:101F900013469846FB6B01333B64DBB2BB62002304
:101FA00007F5DE79C7F89430D7F894305D4AA2FB84
:101FB0000336C6F34F06A9F1090500240AE00920FB
:101FC000CDE90180CDF800C05846FEF7EBFE4D4547
:101FD000444418D0534B15F8011FA3FB04320129C8
:101FE0006FF07F4C3346C2F34F02E8D10923CDE9AD
:101FF00001834FF47F03009358463346FEF7D2FE29
:102000004D454444E6D1D7F89430434409F10909D9
:10201000C7F8943007F20D239945C5D107F1A00305
:10202000C7F894304FF00909BBF80650BBF80430EC
:102030003C4A9D4228BF1D46D7F8943013F8016BE7
:10204000C7F8943005FB06F3A2FB03234FF0FF32E1
:1020500019FB062407F5DA72144407F5DE724FF017
:102060000008C3F34F0319FB06262E4A14F8011F7C
:10207000A2FB0802CDE90059C2F34F02C7F8903025
:102080005846FEF7EBFFA642D7F89030A844ECD1B3
:10209000D7F8943007F1A3029A42C5D1BBF8065095
:1020A000BBF804309D4228BF1D464FEAE50942F2C5
:1020B0001074174A9AF829301168D3B900BF9AF8FA
:1020C0002930B3B90125124B1E6804FB05F3721ABF
:1020D0009A4209D301350D2D4FF000010D4828BF5C
:1020E000012509F049FE314600BF9AF82930002B3E
:1020F000E9D09AF82830BBB100BF9AF82930002BFC
:10210000F7D1DAF82030032B1AD8014B1968D5E73C
:102110009001002004010020F8000020DCE5000808
:1021200030E60008398EE33850460AF053FF00BF0E
:102130009AF82930002BDCD1DAF82030032BE4D9CF
:1021400019EE102A18EE901A07F1C4000AF0D6FE14
:10215000D7F8C83093FBF9F6A6F10308B8F1020FDF
:10216000A7D89448002109F007FEBBF80630BBF859
:102170000450914A9D4228BF1D4606EBC60905FB47
:1021800006F3A2FB032309F1FF3607F5DA721644C2
:1021900007F5DE72C3F34F0391440024092216F8B9
:1021A000011FCDE90052844AC7F89430A2FB040213
:1021B000C2F34F025846FEF751FFB145D7F89430AD
:1021C0002C44EBD14FF4FA7003F05EF8B8F1000F35
:1021D00001F04883B8F1010F3B6C01F03C83032B05
:1021E0000CBF05230323FB62FB6C13B118460BF0F5
:1021F000D3F83C6C04FB04F318460AEE103A1D4673
:102200000BF0C2F8FA6BF86402FB04023A6100EBCF
:1022100084026B1EBA604242BA61FB60421E5346A2
:102220007A61DA469B4609F027FE64484FF0FF3199
:1022300009F0A2FDBAF80490BAF8068009FB08F389
:10224000002B39D05E4C4E460025C1460BF0D2F92A
:1022500080B206FB00F1A4FB0131BAF80460C1F3BF
:10226000CF384645F2D9BAF80660B1450DD30BF028
:10227000C1F91FFA80F906FB09F9A4FB0939BAF87C
:102280000660C9F3CF394E45F1D94E4B019309F1A0
:1022900001039BB2009308F101034A469BB24146F9
:1022A000504602F0DFF9BAF80460BAF8069001353A
:1022B00009FB06F39D42C9DB3B6B424901335046A3
:1022C0003B6302F0DBFAFC6C1AEE102A0021204678
:1022D0000BF092F8BAF80660BAF80430BA69FC61FB
:1022E0009E4228BF1E460023C7E92033B046504611
:1022F0003E6CD7F83CA0C7F88830C7F88C20C7F8E8
:102300007CB0D7F88430D7F88820B3FBF6F9FB6CA3
:102310009D18D7F88C3000241FFA89F903F1FF3B90
:10232000C7F8944015F8011BD7F89440B4FBF6F2B7
:102330000129CDE901864B4692B227D06FF07F4448
:102340000094D7F894404444C7E92404FEF72AFDDA
:102350000BEB05039A45D7F89000E3DCD7F88430FF
:10236000D7F880204344C7F88430D7F88C309B1BC3
:10237000C7F88C30D7F8883092453344C7F8883096
:1023800002F1010320DDC7F88030BAE74FF47F0384
:1023900000934B46C7F89000FEF704FDD7F8942051
:1023A000D7F890000BEB050342445345C7F894203F
:1023B000B8DBD3E7F8000020398EE338EC000020CA
:1023C0000180008000FFFF00824607F1B40107F59D
:1023D000A070D7F87CB0C34DC34E0BF062F907F183
:1023E000B400FEF7C8FA07F5A07319180A22386B73
:1023F0000BF0A2F907F5A070FEF7BDFA2B78BA6CC6
:10240000029600242E4600FB132000954FF47F0512
:10241000C0F34F011AEE902A5046019507F5A073BC
:10242000039402F0CBFBB04B01931AEE902AAF4B12
:1024300000965046CDE90254214602F0BFFB07F159
:10244000A40107F5A0700BF023F90A220146786B6E
:102450000BF072F907F5A070FEF78DFA07F5A07C76
:10246000604407F1AC010BF013F90A220146B86B86
:102470000BF062F907F5A070FEF77DFA3378BA6CBD
:1024800003943546984E009500FB1320C0F34F018E
:1024900019EE902A07F5A0735046CDE9014602F0E7
:1024A0008DFB934D07F59270FEF765FA2B78BA6CA9
:1024B000009500FB1320FF25C0F34F011BEE102AEF
:1024C00007F592735046CDE90264019502F076FB60
:1024D00007F58670FEF74FFA85490B780394BA6CBE
:1024E000009100FB1320C0F34F0107F5867350469F
:1024F000CDE901561BEE902A02F060FB0123BB667A
:102500005B46D3469A46002387F89F3087F89E3073
:1025100087F89D3087F89C3087F89B30BB6E002B86
:1025200000F06881FA6CF9687B69511813F8012F83
:10253000002A00F0C7829942F8D1BB6A87F89C3024
:1025400087F89B30BB6B0533BB637B6B05337B63C9
:1025500007F1D80308EE103A4FF0010942F2107467
:10256000B9F1000F40F0AE83624A9AF82930116841
:10257000D3B900BF9AF82930B3B901255D4B1E6865
:1025800004FB05F3721A9A4209D301350D2D4FF061
:102590000001594828BF012509F0EEFB314600BF74
:1025A0009AF82930002BE9D09AF82830002B00F057
:1025B000128100BF9AF82930002BF5D1DAF82030CB
:1025C000032BD1D919EE102A18EE901A07F1BC008E
:1025D0000AF094FCD7E92F232F2A06D8796899426C
:1025E00003DA39688B427FF7C7AA396CB86CB0FB45
:1025F000F1F893FBF8F39942B2D992FBF8F88845C9
:10260000AED2F86C01FB03814218415C0029A7D1CE
:102610001E46022313703948B9660C4609F0ACFB1C
:10262000BB6C386CBC6508FB03F206FB03F3B2FB22
:10263000F0F2B3FBF0F392B29BB2C7F89420FB65C3
:102640005846C7F824A0274C23785A1ED210551C90
:10265000042D3D6700F3C9866678C7F88060EA00FC
:10266000F31A511E03EBD37301228A405B1002FA66
:1026700003F37B64237A616879674F2B0AD8627A07
:102680004E2A07D9C3F14F03DBB205FB03F306FB68
:1026900003137B67D7F88010002900F0F285BC6D2A
:1026A000174B83FB04231A19E317A3EBE2132D3B0B
:1026B000DBB21A0242EA034213433B65D7F8943077
:1026C000013B9BB2C7F88430FB6D013B9BB27B653D
:1026D00011FB01F3C7F890303B6C002201FB03FAB9
:1026E00010E000BF0400002000FFFF000CE700081E
:1026F000100000209001002004010020F8000020BC
:10270000818080804B1E7A66BB67FA66FA673A66FC
:102710003B6F012B00F0F385022B00F02786032B83
:1027200000F029867B6FD3F800B0B96CD7E9173277
:102730001A447B6E0B44D7E91C4121447967796DBB
:102740007B66B3FBFAF301EB03083B66D7E91E1384
:102750008B4292B21FFA88F800F09D85002B00F0A2
:10276000D385FB6E0026C3EB03293446354624E0AF
:10277000B96F8C4225D0796C0B423B6D08BFFF23AB
:102780000193D7F894305919BB6CCDF800801E44E2
:10279000D7F88430B6FBFAF52B44C7E922209BB268
:1027A00089B201F05FFFD7F880300134A342D7E946
:1027B000222009F1FF0900F056850BFA04F3002CE2
:1027C000D6D1D7F89030B9FBF3F3DBB243F47F03F3
:1027D00043F47F43D4E750460AF0FCFB00BF9AF86D
:1027E0002930002B7FF4E0AEDAF82030032B7FF69F
:1027F000BBAEE7E6FA6CF9687B695018BA6E13F85D
:10280000011F01B901329842F9D1002A3FF495AE77
:1028100002EB42039B0007336946FC6CBD6AC7F8B4
:102820008CA023F007030022ADEB030D07EE901AF6
:1028300007EE10BAC7F8902004AEA1469046C7F83C
:10284000942099F800A0BAF1000F00F09F8099F849
:1028500001A0BAF1000F00F0CE8099F802A0BAF101
:10286000000F00F0FD803B6C032B1DD099F803A0F6
:10287000BAF1000F00F00B83042D15D099F804A0D5
:10288000BAF1000F00F03283052D0DD099F805A0A4
:10289000BAF1000F00F03184072D05D199F806A098
:1028A000BAF1000F00F06B84D7F890303A6C013326
:1028B000C7F89030DBB29D429144C7F89430C0D83D
:1028C00017EE10BAD7F88CA07068347A08F1FF318F
:1028D000B8F1000F1ED0D7F868C0024600230EE002
:1028E0002A7A944201DA9C46144601330139DBB25C
:1028F00003EB43024D1C06EB82020AD05268904261
:10290000F3DC03EB430506EB8505E9DA9C4610464C
:10291000EBE7E04608EB480806EB880316F82820AA
:102920005B7887F89C3017EE903A87F89B209D469D
:10293000BA6A97F89B309A423FF404AE97F89C002D
:1029400082423FF4FFAD3A6C02FB03F30344FA6C9E
:10295000D45C002C00F0D58007F19F030093B96A86
:10296000F86C07F19E0307F19D02FEF77BFD81469F
:1029700000283FF4F3AD0128BB6B7FF4E4AD0A33CC
:10298000BB6307F1E80308EE103AE7E54FF00103F7
:1029900089F8003008EB480306EB830BD7F8942046
:1029A00006F823205B46083387F8B4A187F8C4A053
:1029B0008BF801A08BF808A0CBF804A007F1C402A3
:1029C0000093294607F5DA732046FEF74BFD0028F1
:1029D00000F06781012818BF5046CBF8040099F831
:1029E00001A04FF0000389F8003008F10108BAF1A6
:1029F000000F7FF432AF08EB480306EB830BD7F8E8
:102A0000942006F823205B464FF00101083389F833
:102A100001108BF8011087F8B4A187F8C4A08BF8D7
:102A200008A0CBF804A007F1C4020093294607F5DB
:102A3000DA732046FEF716FD002800F01782012801
:102A400018BF5046CBF8040099F802A04FF00003DD
:102A500089F8013008F10108BAF1000F7FF403AFE3
:102A60004FF0010389F8023008EB480306EB830BB3
:102A7000D7F8942006F823205B4608334FF0020273
:102A80008BF8012087F8B4A187F8C4A08BF808A0C0
:102A9000CBF804A007F1C4020093294607F5DA73C6
:102AA0002046FEF7DFFC002800F01683012818BF3F
:102AB0005046CBF804004FF0000389F8023008F1CB
:102AC0000108D0E6BC6A0AF095FD87F89B000AF081
:102AD00091FD97F89B30C0B29C4287F89C00F2D9D8
:102AE0003A6C02FB03F3FA6C84420244EBD9D25CE9
:102AF000002AE8D1FA6CBC620344D45C002C7FF459
:102B00002BAF11460122CA54BC48214609F034F9C2
:102B1000C7F824A0D7F848A07C645846B84C23785E
:102B20005A1ED210551C042D3D6700F3D1826678E1
:102B3000C7F88060EA00F31A511E03EBD373012239
:102B40008A405B1002FA03F37B65237A6168F966B9
:102B5000582B0AD8627A572A07D9C3F15803DBB237
:102B600005FB03F306FB0313FB66D7F8801000296F
:102B700000F00C827C6CA34B83FB04231A19E3172F
:102B8000A3EBE213013BDBB243EA032343F47F03ED
:102B90003B6597F89C303C6C0AFB03F3B3FBF4F302
:102BA0009DB297F89B30C7F894500AFB03F3B3FB30
:102BB000F4F39BB2FB65013B9BB2BB656B1E9BB202
:102BC000C7F8903011FB01F30022C7F88C3001FBED
:102BD00004F301397A667967BA66BA673A669B4642
:102BE0003B6F012B00F0DC81022B00F03782032BBE
:102BF00000F03882FB6E1B68FB67D7E91732D7E914
:102C00001B141A4421447B6EF966B96D53447B66EC
:102C1000B3FBFBF301EB03083B66D7E91D138B42C3
:102C200092B21FFA88F800F0BF81002B00F0EA8111
:102C3000BB6E0026C3EB03293446354623E0796F8B
:102C40008C4224D0796D0B423B6D08BFFF2301936A
:102C5000D7F89430CDF800805919D7F89030564401
:102C6000B6FBFBF52B44C7E921209BB289B201F0EA
:102C7000F9FCD7F880300134A342D7E9212009F1CB
:102C8000FF0900F07581FB6FA340002CD7D1D7F866
:102C90008C30B9FBF3F3DBB243F47F0343F47F439F
:102CA000D5E7FB6A029307F19C03019307F19B03AD
:102CB000009302231A4629462046FEF7BFFCCBF8B4
:102CC00004008CE65346DA469B4609F0D5F84E4898
:102CD000002109F051F897F89D60002E57D097F821
:102CE0009E40002C00F09480012E02D1012C00F0B7
:102CF0009882BAF80640BAF80430C7F894B09C42FB
:102D000028BF1C46FB6BD7F81080D7F840B00025D1
:102D100004FB03F6A94698F80010B5FBFBF2CDE9D9
:102D2000004BFB6B92B2A8EB0308504696FBFBF3FB
:102D30009BB2FEF793F9FA6B4A45A6EB04062544CD
:102D400009F10109E7DCD7F894B018EE100AFDF795
:102D500012FE2B493C6A4A780B78A4EB5202BC6CF9
:102D600000FB1340294CFF23CDE90014C0F34F01B1
:102D70000020CDE9023092B2504618EE103A01F030
:102D80001DFF42F2080002F07FFAFFF74CBA97F8F5
:102D90009E50002DD9D0BAF80630BAF804803A6CAB
:102DA000984528BF98466B1EC7F8943008FB03F37C
:102DB000B3FBF2F39AB2FB6C03EB05095B463446B6
:102DC000AB461D46386CD7F89410A9EB0B03814431
:102DD000595CB6FBF0F3CDE900809BB2C7F89020B8
:102DE0005046FEF73BF9FA6BA2424644D7F89020D2
:102DF00004F10104E6DCAB46A7E700BFF8000020C1
:102E00000400002081808080D400002000FFFF00AB
:102E1000731EBAF80420BAF80660964228BF164618
:102E20003A6C06FB03F902FB03F5FB6CB9FBF2F904
:102E30006FEA0508A8EB03081D4443461FFA89F909
:102E4000D8469B463B6C15F8011BB4FBF3F2CDE969
:102E5000006392B24B465046FEF700F9FB6B0BEB5A
:102E600005029A423444EDDBC3466EE7FB6A0293E7
:102E700007F19C03019307F19B03009302231A4679
:102E800029462046FEF7DAFBCBF80400DCE54FF0DC
:102E9000010389F8033008EB480306EB830BD7F8EE
:102EA000942006F823205B46083303228BF8012088
:102EB00087F8B4A187F8C4A08BF808A0CBF804A0C9
:102EC00007F1C4020093294607F5DA732046FEF79E
:102ED000C9FAE0B3012818BF5046CBF804004FF000
:102EE000000389F8033008F10108C5E44FF001033D
:102EF00089F8043008EB480306EB830BD7F89420DD
:102F000006F823205B46083304228BF8012087F85B
:102F1000B4A187F8C4A08BF808A0CBF804A007F1EF
:102F2000C4020093294607F5DA732046FEF79AFAA1
:102F3000002800F01381012818BF5046CBF8040088
:102F40004FF0000389F8043008F101089CE4FB6AA3
:102F5000029307F19C03019307F19B030093022363
:102F60001A4629462046FEF769FBCBF80400B6E76F
:102F70001A46BB6E1344FB67BB6FFA6FBA66D7F88D
:102F8000802001339A42BB677FF42AAE7A6C4FF6F9
:102F900001639A4200F09C8002F2FD237B64BDE550
:102FA000FB6E1B78FB6728E6002B65D0B96ED7F85F
:102FB00080300026CB18FB67C1EB0125C3EB03294A
:102FC0003446D7F89430CDF800801919D7F88C30F2
:102FD000B5FBF3F3DBB243F47F0343F47F43019388
:102FE000D7F890305644B6FBFBF42344C7E92120C0
:102FF00089B2FF359BB201F035FBA945D7E9212005
:10300000DFD1B9E7B96E1C46D7F88030CB18FB6723
:10301000C1EB0125C3EB03292646D7F89430CDF840
:1030200000801919D7F88C30B5FBF3F3DBB243F409
:103030007F0343F47F430193D7F890305644B6FBA7
:10304000FBF42344C7E9212089B2FF359BB201F08C
:1030500009FBA945D7E92120DFD18DE7FB6E1B884D
:10306000FB67CAE5F96E8B781A044B7842EA0322B3
:103070000B781343FB67C0E5B96E1C46D7F8803068
:10308000CB18FB67C1EB0125C3EB03292646D7F814
:103090009430CDF800801919D7F88C30B5FBF3F3D4
:1030A000DBB243F47F0343F47F430193D7F89030BE
:1030B0005644B6FBFBF42344C7E9212089B2FF350F
:1030C0009BB201F0CFFAA945D7E92120DFD153E720
:1030D000D7F824A083463FE4FB6A029307F19C03E0
:1030E000019307F19B03009302231A4629462046C9
:1030F000FEF7A4FACBF80400DDE44FF0010389F8F1
:10310000053008EB480306EB830BD7F8942006F84C
:1031100023205B46083305228BF8012087F8B4A1F1
:1031200087F8C4A08BF808A0CBF804A007F1C4026C
:103130000093294607F5DA732046FEF793F9002835
:103140004DD0012818BF5046CBF804004FF00003C3
:1031500089F8053008F10108FFF79EBBFB6A02936E
:1031600007F19C03019307F19B03009302231A4686
:1031700029462046FEF762FACBF80400E0E64FF05D
:10318000010389F8063008EB480306EB830BD7F8F8
:10319000942006F823205B46083306228BF8012092
:1031A00087F8B4A187F8C4A08BF808A0CBF804A0D6
:1031B00007F1C4020093294607F5DA732046FEF7AB
:1031C00051F9E8B1012818BF5046CBF804004FF080
:1031D000000389F8063008F10108FFF765BBFB6AB8
:1031E000029307F19C03019307F19B0300930223D1
:1031F0001A4629462046FEF721FACBF80400A5E737
:10320000FB6A029307F19C03019307F19B03009370
:1032100002231A4629462046FEF710FACBF804008E
:10322000D5E7BAF80630BAF80460D7F81C909E4289
:1032300028BF1E46FB6B002503F102082C463B6CA1
:1032400099F80010CDE90063B5FBF3F39BB21A4681
:103250005046FDF703FFFA6BA242C144354404F126
:103260000104ECDC71E51A46FB6E13449B46FB6FD0
:10327000D7F88020C7F86CB001339A42FB677FF41F
:1032800047AA6F4BBA6D9A4200F0AF80A2F1840357
:10329000BB65FFF7D8B9002B7AD0FB6ED7F880104A
:1032A00001EB030B0026CBEB0B29C7F86CB0D7F86A
:1032B00048B0C3EB03253446D7F89430CDF80080EE
:1032C0001919D7F89030B5FBF3F3DBB243F47F0361
:1032D00043F47F430193D7F884305E44B6FBFAF49D
:1032E0002344C7E9222089B2FF359BB201F0BAF925
:1032F000A945D7E92220DFD1D7F86CB0B7E77B6FBB
:1033000093F800B0FFF711BA1C46D7F88010FB6E97
:1033100001EB030BCBEB0B29C7F86CB0D7F884B0EB
:10332000C3EB03252646D7F894301919BB6CCDF8AA
:1033300000801E44D7F89030B5FBF3F3DBB243F4C2
:103340007F0343F47F430193B6FBFAF40BEB0403D2
:10335000C7E9222089B2FF359BB201F083F9A94564
:10336000D7E92220DFD1D7F86CB080E77B6FB3F8C4
:1033700000B0FFF7DAB97A6F92F802B053784FEAEB
:103380000B4B4BEA032B13784BEA030BFFF7CDB93A
:103390001C46D7F88010FB6E01EB030BC3EB032533
:1033A000CBEB0B292646D7F894301919BB6CCDF816
:1033B00000801E44D7F89030B5FBF3F3DBB243F442
:1033C0007F0343F47F430193D7F88430B6FBFAF4CC
:1033D0002344C7E9222089B2FF359BB201F042F9AC
:1033E000A945D7E92220DED141E7FA6BD7F824A01E
:1033F000C7F864A0931C0124C7F88830FB6CFC66F6
:103400004FF0000983463C67386C7969BE68D7F88D
:10341000108087F89E90D4437C6707EE90BABC6A10
:1034200087F89D909C46C7F87C90C7F88490B86751
:10343000C7F88000C7F89090C7F88C9092460FE1CB
:103440002CD4FFFF002A00F0578102464FF0000EF7
:10345000012593F801B0BBF1020F05D0BBF1000FBD
:1034600040F06681013A012593F802B0BBF1020FEA
:1034700000F0FF80BBF1000F40F06281032802F1F1
:10348000FF3218BF012500F0628193F803B0BBF151
:10349000020F00F06881BBF1000F40F06181013A3A
:1034A000042C18BF012500F0528193F804B0BBF141
:1034B000020F00F06081BBF1000F40F08881013AFB
:1034C000052C18BF012500F0428193F805B0BBF12F
:1034D000020F00F05981BBF1000F40F07E81013AEC
:1034E000072C08BF012540F0328193F806B0BBF1EC
:1034F000020F00F0C180BBF1000F00F07481CE46D6
:1035000011F8012F022A00F0FC80002A00F0FF8051
:10351000C7F894004FF00009012511F800B0BBF185
:10352000020F09D0BBF1000F40F00681D7F89420BC
:10353000013AC7F89420012501F1020B1BF81AB0DB
:10354000BBF1020F00F0B480BBF1000F40F0058129
:10355000D7F89420013AC7F89420032818BF012512
:1035600000F0C0807A6F16F802B0BBF1020F00F0D5
:103570001781BBF1000F40F02781D7F89420013A62
:10358000C7F89420042C18BF012500F0AB8096F8F2
:1035900000B0BBF1020F00F00B81BBF1000F40F057
:1035A0001981D7F89420013AC7F89420052C18BF48
:1035B000012500F0978016F800B0BBF1020F00F073
:1035C000FF80BBF1000F40F00B81D7F89420013A47
:1035D000C7F89420072C08BF012540F0838006F12E
:1035E000020B1BF81AB0BBF1020F64D0BBF1000F45
:1035F0007FD1D7F89420013A09FB02F29645B8BF73
:1036000096465FFA8EF99CF80020022A0AD0002A1A
:1036100040F08380D7F88020013AC7F8802001224B
:10362000C7F8842098F80020022A06D0002A7AD110
:10363000BA6F013ABA670122FA67D7F89020D7F833
:1036400088500132C7F89020D2B294420344A8EBCC
:103650000A08AC4406F10106C7F88C2040F2CB8082
:103660001A78022A7FF4EEAE024600254FF0010ED2
:10367000EFE603287FF409AF0EFB02FECE45B8BF8C
:10368000CE46002D7FF43CAFD7F88C30D7F864B02D
:1036900087F89FE0013317EE90AA87F89D307B6B87
:1036A0000A337B6307F1CC0308EE103AFFF70DBB3A
:1036B00003287FF457AFD7F8942009FB02F2964510
:1036C000B8BF96465FFA8EF9002D9CD1D7F88C30A2
:1036D000D7F864B087F89F90013317EE90AA87F867
:1036E0009E30DCE7D7F8942002FB09F29645B8BF7C
:1036F00096465FFA8EF986E74FF0010E5246754600
:10370000A7E6C7F8940000254FF0010905E74FF040
:103710000109C7F894A04D46FFE600223A6701224E
:10372000C7F884207EE70022FA660122FA6784E760
:103730004FF0000E012597E64FF000090125FBE64A
:1037400003284FF0000E18BF01257FF49EAE0EFB3C
:1037500002FECE45B8BFCE46D2E64FF00009FCE6E9
:103760004FF0000E9CE6042C86D093F804B0BBF119
:10377000020F7FF4A0AE052C3FF47EAF93F805B0A6
:10378000BBF1020F7FF4A7AE072C3FF4AEAE0EFBE9
:1037900002FECE45B8BFCE46002D7FF4B1AE73E732
:1037A000042C88D096F800B0BBF1020F7FF4F5AE80
:1037B000052C80D016F800B0BBF1020F7FF401AFEA
:1037C000072C3FF40CAF76E74FF00009DAE64FF034
:1037D000000E75E64FF00009E8E64FF0000E7FE6B8
:1037E0004FF00009F6E6013A0EFB02F24A45B8BF77
:1037F0004A46964684E6D7F880203B6FB96FD7F8E3
:1038000064A002FB03F3FA6E01FB02F29342B8BF1D
:1038100013469E45B8BF9E46D7F8843087F89FE090
:1038200017EE90BA6BB1FB6F002B7EF46CAE534673
:103830009B46022317EE90AA87F89E3087F89D30AA
:103840002DE753469B46012317EE90AA87F89E303A
:1038500087F89D3023E7032B0CBF03230123FB6272
:10386000FEF7C2BC0123FB62FEF7BEBC2C4A136804
:1038700023F0070343F0020310B51360136803F04D
:103880000703022BFAD12749274B0A6822F440424A
:1038900042F400420A601A6842F480321A601A68E0
:1038A0009203FCD51A68214942F400221A60586834
:1038B0001F4A01400A435A6059681B4A21F44031AB
:1038C0005960196841F08071196013689B01FCD53B
:1038D0009368154C23F0F0039360936823F4E0534E
:1038E00043F480539360936823F460439360936838
:1038F00023F0030343F002039360A36803F00C0377
:10390000082BFAD10B4801F0AFFC0A4801F0CEFCBD
:10391000D4F88C3023F08073C4F88C3010BD00BF15
:10392000003C024000700040003802400080BFFFB1
:10393000192A400000BD01052DE9F04FBF4AC04BD8
:10394000116841F400712DED028B1160116841F492
:1039500080611160116841F480711160596CB94A3D
:1039600041F480415964596CADF29C7D01F4804171
:1039700012911299186C40F0805018641B6C03F07F
:1039800080531193119BD168AF4B4FF6FF04214038
:103990000B43D360D268AB4CC2F30222C2F10701E1
:1039A000131D042928BF0421062B4FF0FF3303FA0F
:1039B00001F38CBF033A0022DB4393401B01DBB2CF
:1039C00084F82330FFF752FFA04BA14A1B68A2FBEB
:1039D00003239B09013BB3F1807F09D24FF0E02222
:1039E000F02053610021072384F8230091611361C3
:1039F0000025CDE93055CDE95555914A5795136BC2
:103A0000DFF86482934E43F080031363136B03F07B
:103A100080031993199B136B43F001031363136B1A
:103A200003F001031A931A9B136B43F00203136311
:103A3000136B03F002031B931B9B02271C23C8F884
:103A4000183052A9B7610C2201234046CDE9522318
:103A500001244FF00009549701F07EF952A9102279
:103A6000012340464FF00208CDE95223CDE95489A5
:103A7000569401F071F952A9022201233046CDE992
:103A80005223CDE95489569401F066F972490F2307
:103A90008A6893FAA3F3B3FA83F322F00F0204FACD
:103AA00003F313438B6030A88DF8C6703094ADF8E3
:103AB000C44001F0F1F8F16894FAA4F2B2FA82F28B
:103AC00094FAA4F30320A240B3FA83F3A34000FACC
:103AD00002F221EA020204FA03F31343F3603268AC
:103AE00094FAA4F3B3FA83F3A34000FA03F322EAAF
:103AF000030394FAA4F43360524BDFF86C81DB6863
:103B0000DFF868B1554FC3F30223C3F10702042A5B
:103B100003F1040128BF0422062988BFDD1E4FF0EF
:103B2000FF339340DB4303F00403AB404C49444A6A
:103B3000434D1B01DBB2402081F806330860136B54
:103B400043F480031363136B03F4800318933D4B1A
:103B5000189ADA68C2F30222C2F10701131D042980
:103B600028BF0421062B4FF0FF3303FA01F36FEA5D
:103B700003038CBF033A002203F0030393401B01AD
:103B8000374ADBB24FF00061002682F83B3352A87F
:103B900051602822002109F02FFCCDE933666B6CBF
:103BA00043F480536B646B6C03F480531593159B43
:103BB0002B6B43F001032B632B6B03F00103169374
:103BC000169B2B6B43F002032B632B6B03F002035A
:103BD0001793179B052335934CF250334FF0030A8C
:103BE000A02230A940460F930223CDE93023CDF81F
:103BF000C8A001F0B1F810220223CDE9302303223E
:103C00000023CDE9322330A9002205231148CDE954
:103C1000342301F0A1F8134B9A6D22F0606242F058
:103C2000C0629A659A6D22F0C00242F040029A6525
:103C30009A6D22F440329A651AE000BF003C0240BF
:103C40000038024000ED00E00003FA05000000200B
:103C5000D34D6210000402400038014000040040CF
:103C600000E100E00064024000000240003001403A
:103C70009A6D22F490729A659A6D22F400729A6598
:103C80009A6D42F480629A659A6D22F4C05242F4B1
:103C900000629A659A6D22F4C04242F400529A651D
:103CA000DA6E22F00402DA6600224FF48273CDE964
:103CB00052239FED7B8B4FF400620023CDE9542308
:103CC00000224FF40073CDE9562352A900220A23A3
:103CD0005846CDE95A238DED588B01F015F9DBF8E4
:103CE000043026AC23F01003CBF804302022C4E9C2
:103CF0000066C4E902662661314652A809F07CFBE1
:103D0000CDE93066CDE93266CDE934662B6CDFF85B
:103D1000C8B143F002032B642B6C03F0020313932E
:103D2000139B40F2E7332380D1232146A36038461A
:103D300001F072F93B684FF0804923F080033B604B
:103D4000D9F818349FED587B43F00803C9F81834AC
:103D50008DED527B9FED567B52AA012138468DEDA9
:103D6000547B569601F0A4F9D9F8183423F00403D3
:103D7000C9F818347B68DFF8649123F070037B6026
:103D8000BB6823F08003BB602B6B43F001032B6304
:103D90002B6B03F001031493149B40220223CDE903
:103DA000302330A9002202234046CDE934238DED93
:103DB000328B00F0D1FF08F01BFA45A1D1E90001D8
:103DC000082222823C4BC4F8148004222283102251
:103DD000C4E9000122840FCB0DF1700C0DF1240E0B
:103DE0008CE80F00C4E902A8C4F81C80DFF8F0A03A
:103DF000DFF8F0808EE80F004FF49B760227CDE9C4
:103E00000167F025CDE905ABCDE903892A46009588
:103E10002A4D07940897334652A9286800F0CEFA35
:103E20000646286000F0CAFB6FF07F41304600F084
:103E300025FD0F9C0121204609F074FA50B309F0CA
:103E4000ABFA04214FF4586009F06CFA1C4A1D4D7E
:103E50001D494FF4106302930123CDE90030106037
:103E60004AF644430522194808F0A0FA0FCD20ACC9
:103E70000FC495E8030020AA84E80300142130A8A9
:103E800009F090F8314630A808F080FB30A93046A0
:103E9000FDF7C0FD013CD4D0CCE700BFAFF30080FC
:103EA00000000000000000006000000000000000B2
:103EB000000000006800000034E6000898010020BF
:103EC0009C01002044E6000800600240003C0040E5
:103ED0000030014000640240914C0008654C00082D
:103EE000894C0008294C0008FEE700BFFEE700BF30
:103EF000FEE700BFFEE700BFFEE700BF704700BF60
:103F0000704700BF704700BF08B5044B186809F040
:103F100007F9034A13680133136008BDA4010020A8
:103F200090010020054B5A69D20700D47047044A1B
:103F300001211068596108F0B7BF00BF003C014083
:103F4000A40100200148032100F0A8B80064024049
:103F500008B5094B58685B681B055ABF80F4806040
:103F600040F38020012007F0D3FF034B4FF47C6225
:103F7000DA60BFF34F8F08BD006002400120704738
:103F800008B509F0D7F9162303604FF0FF3008BDDC
:103F900008B509F0CFF916230360FEE770B5161EC9
:103FA00007DD0C468D19AFF3008004F8010BA54224
:103FB000F9D1304670BD00BF70B5161E07DD0C4646
:103FC0008D1914F8010BAFF30080AC42F9D13046E3
:103FD00070BD00BF4FF0FF30704700BF4FF400537B
:103FE0004B600020704700BF0120704700207047E1
:103FF00010B50C4C0C4B0D492268591A2AB11044CB
:10400000884207D82060104610BD094A226010443B
:104010008842F7D909F08EF90C234FF0FF32036084
:10402000104610BD94010020000001200004000093
:10403000B8010020034AD2F8883043F47003C2F874
:104040008830704700ED00E0DFF834D00D480E49AD
:104050000E4A002302E0D458C4500433C4188C42E2
:10406000F9D30B4A0B4C002301E013600432A24247
:10407000FBD3FFF7DFFF09F063F9FFF75DFC704743
:104080000000012000000020740100207CCE030805
:1040900074010020B8010020FEE7000010B53D4B80
:1040A00084468E4693E8030082B002AB03E9030026
:1040B0000EF108026A44BEF1030F12F8082C4FF00B
:1040C0003F0303FA02F388BF0CF10C01324A98BF98
:1040D0000CF108010B60136833B19A6A944505D05E
:1040E000D3F84C36002BF8D102B010BDDA6A9645F1
:1040F000F6D11A6C22B15269B3F844101142EFD1D3
:10410000264A12F80E005CF8002022F001024CF85A
:1041100000205CF80020D2070CEB000103D500BFA3
:104120000A68D407FBD4D3F83C26D2B95A6A51683E
:1041300021F0020151609168080604D500BF5A6A57
:1041400091680906FAD493F8411621B9196C11B196
:10415000B3F844308B61136823F04003136002B05E
:1041600010BDB2F5803F0BD24A600022C3F83C2656
:104170005CF8003043F001034CF8003002B010BD91
:10418000A2F57F42FF3A4FF6FF744C60C3F83C261D
:10419000EEE700BF5CE6000898010020A0E70008F9
:1041A000F8B5456A2B685B0604461ED4226C1AB12A
:1041B000B4F844301B0493612B6823F42C432B6028
:1041C0002B6843F040032B600B78012B13D0022B9C
:1041D00069D0002B31D0236C13B1B4F844209A611C
:1041E0002B6823F040032B60F8BD00BF636A1B6897
:1041F0005F06DBD5F9E74E7801F1020E002E58D0AC
:1042000070460EEB060C636AA76B10F8012BA18FAA
:10421000B961DA609A68970707D400BF9A68910776
:10422000FBD59A68120603D500BF9A681206FBD424
:104230006045E8D10EEB0601C6E7A28F636AA66B64
:1042400048781204B261D8609A68960707D400BF14
:104250009A689007FBD59A68120603D500BF9A6842
:104260001206FBD48E7801F1030E16B370460EEBE6
:10427000060C636AA76B10F8012BA18FB961DA6095
:104280009A68970707D400BF9A689107FBD59A6888
:10429000120603D500BF9A681206FBD46045E8D128
:1042A0000EEB060190E748788E1C00F0EDFF3146DA
:1042B0008AE7714688E700BF70B504464089A58942
:1042C000A66901442A4488B292B21D46114613469B
:1042D0000246B04701462046FFF762FF364994F890
:1042E0004800C5F3C40201EA15216B090A4303F42F
:1042F000FC631A43012892B201D152BA92B2636AA6
:1043000019684E063ED494F8411629B9256C1DB1A2
:10431000B4F844100904A96194F8421611B9A16BCC
:10432000A58F8D611968022821F42C41196031D0C4
:104330001868D1B240F040001860D96099688907C8
:1043400003D400BF99688907FBD5120ADA609A681E
:10435000920707D400BF9A689607FBD59A681006A3
:1043600003D500BF9A681006FBD494F8412622B901
:10437000226C12B1B4F8441091611A6822F0400224
:104380001A6070BD00BF616A09684D06FAD494F8DE
:104390004800B8E7196841F400611960196841F0F4
:1043A00040011960DA609A689007DBD400BF9A6810
:1043B0009507FBD5D6E700BF00F8FFFF2DE9F84FC2
:1043C0000C46BDF828A0BDF82C909DF830809DF8D3
:1043D00048B0002900F0DA80002105461646204644
:1043E0004FF4CA621F4609F007F8DDF844C084F8AC
:1043F00048B0BCE80F0004F1240EAEE80F00BCE8A2
:104400000F00AEE80F00DCF80030CEF80030A36AF1
:10441000002B3CD0E26A6849895C5A5822F00102BC
:104420005A505A58D20703EB010005D500BF026865
:10443000D207FBD494F848B0BBF1010F0BD0BBF10D
:10444000020F0ED15A5822F4F0425A505A5842F4F0
:1044500020525A5005E05A5822F4F0425A505A5805
:104460005A505A5822F4802222F00E025A504269C1
:1044700022F0800242615A5842F010025A505A58B3
:1044800022F400725A505A5842F480625A50B7428D
:10449000394638BF3146BE4228BF3E46B8F1000F0C
:1044A00043D1A680E180A4F800A0A4F80290C4F84B
:1044B0000A80564554D8494552D80D9B002B4FD001
:1044C0000E9B002B4CD00D9A62610E9AA2610F9A3E
:1044D000E26113AB109A22620FCB4FF0000C04F193
:1044E0004C0604F1600784F8088086E80F0084F821
:1044F00040C6C4F84CC6C4F848C6E765002D45D090
:10450000D5F84C3653B101221D46D3F84C36511C18
:104510001046CAB2002BF7D184F84006C4F84856BA
:104520002046C5F84C46BDE8F88FB8F1020F20D000
:10453000B8F1010F2DD0B8F1030F11D15346A9EBFB
:1045400001003246A4F80090A4F802A0CA46994699
:104550000023A180E68060810E46A3811146A8E772
:104560004FF4CA620021204608F046FF0020BDE853
:10457000F88FAAEB06036381A9EB0103A680E18013
:10458000A4F800A0A4F80290A38192E72046BDE819
:10459000F88FAAEB0603A38153463246A4F8009095
:1045A000A4F802A0CA4699460023A180E680638150
:1045B0000E4611467DE700BFA0E70008036B10B56B
:1045C00004465BB1828E12049A61192000F05CFEF1
:1045D000236BA28E9A61192000F056FE6369207A3F
:1045E000984701462046FFF7DBFD94F85A10E26C2D
:1045F00064290B4628BF642384F85A300AB3D16A71
:10460000174801FB03F3216DA0FB0303B1F5807F85
:104610004FEA531322D00FD801291AD0102908BF0E
:1046200093631368DB0706D4136A19431162136896
:1046300043F00103136010BDB1F5805FF1D1136445
:10464000EFE7636D002BF6D0B4F8582019B19A61EA
:1046500010BD5363E5E712049A61F9E7D363E0E71D
:104660001F85EB51F0B59C4683B06145BDF8203005
:10467000099E8E46044601D9E6468C469A4202D9E6
:1046800011461A460B46A188714540F29680E08893
:10469000904240F2928061459CBF01F1FF311FFAC8
:1046A00081FC98429CBF00F1FF3083B2A1896089F0
:1046B000A7699D1A0B4411440CEB000270449BB295
:1046C000ACEB0E0C89B292B2013580B20CFB0555F1
:1046D000B84701462046FFF763FD94F841362BB9F1
:1046E000226C1AB1B4F844301B04936194F842363A
:1046F00013B9A36BA28F9A615D4B94F8482003EA2B
:104700001623C6F3C4017609194306F4FC66314347
:10471000012A636A89B200F082801868A4F84416FE
:1047200020F42C401860022A1A6848D142F4006232
:104730001A601A6842F040021A60A26A002A00F069
:104740008980E66A4B484C4910F806C003C902AF9D
:1047500007E9030006F10801032E0DEB010694445E
:1047600016F8080C8CBF0C3208323F2181401160D2
:104770005A6842F002025A600C33CCF8083004F256
:104780004463CCF80C30DCF8003023F40073CCF830
:104790000030DCF80030B5F5803F23F48063CCF8BE
:1047A00000304DD20023CCF80450C4F83C36DCF87D
:1047B000003043F00103CCF8003003B0F0BD42F00C
:1047C00040021A60A26A002ABBD1C8B2090AADB180
:1047D000D8609A68960703D400BF9A689707FBD5FC
:1047E000D9609A68920703D400BF9A689607FBD5F0
:1047F000013DEDD19A68120603D500BF9A681206F2
:10480000FBD494F8412622B9226C12B1B4F84410BA
:1048100091611A6822F040021A6003B0F0BD1A6874
:1048200049BA22F42C42A4F844161A601A6842F0DD
:1048300040021A60A26A89B2002AC6D06D0080E7E1
:10484000A5F57F454FF6FF73FF3DCCF80430C4F863
:104850003C56ACE7002DD1D0D9609A68920703D4BA
:1048600000BF9A689707FBD5013DF5D1C6E700BFA9
:1048700000F8FFFFA0E700085CE6000810B5C48858
:104880008388013C82B00022A4B2013BCDE9004103
:104890009BB21146FFF7E6FE02B010BD30B499425C
:1048A000BDF908C0039D02DD0C461946234662454A
:1048B00002DD14466246A446002B08DB84888C4245
:1048C00005DDBCF1000F02DBC488944201DC30BC82
:1048D00070471FFA8CF422EAE27221EAE171039533
:1048E00002949BB230BC92B289B2FFF7BBBE00BF4C
:1048F0002DE9F04F85B094460191A94A0F990E9F7A
:1049000002EA1122C1F3C40A4AEA020A06464A0927
:1049100090F848009DF8441002F4FC624AEA020A4A
:104920000128109A1FFA8AFA03D19AFA9AFA1FFA02
:104930008AFA9B4CC2F3C40904EA1224520949EAD8
:10494000040902F4FC6249EA020201281FFA82F912
:1049500003D199FA99F91FFA89F997F808B09B459C
:1049600002D87A7A9A4274D24FF0000B387800F16C
:10497000FF384FEAE80808F10108B8F1040F65DCD8
:104980007A687B7808FB0BFB03FB0B2B4FEAC80212
:10499000013A012505FA02F2029200295ED0002BAD
:1049A00054D09146B8F1010F4FF000020146E246A3
:1049B00030460E97164644D0B8F1020F00F0CE8074
:1049C000B8F1030F00F0CD80DBF80050C34400299C
:1049D0003CD00FFA8AF2002A29DB019C002703E071
:1049E0000134B942A4B220DD05FA07F313EA090F36
:1049F00007F10107F4D083880FFA84FC6345EFDDEB
:104A0000B0F806E00F9B9645EADDBCF1000FE7DB4E
:104A10006146CDE90202FFF74FFC0E9B1978013485
:104A2000B942DDE90202A4B2DEDC0E9B5B780136FE
:104A30009E420BDA0AF1010AB8F1010F1FFA8AFA55
:104A4000BAD19BF80050C3440029C2D105B0BDE8DB
:104A5000F08FA3EB0B0B5FFA8BFB87E7B189019D0E
:104A600074890CF1FF320A4413446A1E2244024442
:104A700028466144204492B29BB289B2B569746AF7
:104A800080B2A84701463046FFF78AFB326C1AB164
:104A9000B6F844301B049361B36BB28F9A612368FC
:104AA00023F040032360236823F42C43236096F80B
:104AB0004830022B60D0236843F0400323607B78AA
:104AC000002B33D0B8F1010F3B78029D4FF0000C62
:104AD00028D0B8F1020F60D0B8F1030F62D0DBF834
:104AE0000000C34413B3002200FA02F1A368294274
:104AF00014BF514649469B0703D400BFA3689B07D8
:104B0000FBD596F84830022B3BD1E1603B7801326F
:104B10009342E9DC7A780CF1010C624506DDB8F1CC
:104B2000010FD6D19BF80000DBE700BFA3689A070E
:104B3000FBD5A3681B0603D500BFA3681B06FBD4E7
:104B40002368326C23F040032360002A3FF47EAFD9
:104B5000B6F84430936105B0BDE8F08FBBF8005063
:104B600034E79BF802509BF801202D0445EA02250A
:104B70009BF80020154329E7236843F40063236072
:104B800099E7CBB2E360A3689B07C1F30F21BCD4C4
:104B900000BFA3689B07FBD5B7E7BBF80000A0E701
:104BA00000F8FFFF9BF802009BF80120000440EA98
:104BB00002209BF80020104393E700BF2DE9F04F3F
:104BC0001F4685B01B780E9E9DF844A0DDE90F8935
:104BD00005460C46934603B396F800C0AA88A44441
:104BE0009445284609DD7178EC888B441FFA8BFBCD
:104BF0005944A1424FF000040FDC2146CDE9029A4E
:104C0000CDE900685A46FFF773FE96F800C017F822
:104C1000013F6444A4B2002BE0D1EC81A5F810B0B0
:104C200005B0BDE8F08F00BF58B102280ED00128B2
:104C300011D003280A4814BF0023F82380F841301C
:104C400070470748482380F84130704704489C2348
:104C500080F84130704702482C2380F8413070477B
:104C60001C00002010B4074C49BA618120715BBA66
:104C7000000A110AE07061712046A271A3815DF8FB
:104C8000044B7047B000002000487047C40000206B
:104C900000487047CC00002010B403460079A8B14A
:104CA000186880B15A79012A2FD0022A1BD01AB372
:104CB00001229B79002B3AD0022B30D0032B44D019
:104CC000012B38D001205DF8044B7047214A1C6845
:104CD000116821EA04011160536823EA0403536058
:104CE0005DF8044B70471B490C6804430C604C682A
:104CF000044300224C60DCE716494C6824EA0004B7
:104D00004C600C6804430C60D3E712490C6824EA39
:104D100000040C604C68044300224C60C9E70D4B52
:104D2000996821EA00019960D9680843D860104663
:104D30005DF8044B7047074BD96821EA0001D96040
:104D40009968084398601046BDE7024B9968014393
:104D5000E9E700BF003C01402DE9F0470C6894FAF8
:104D6000A4F2B2FA82F234FA02F37DD04FF0010ECF
:104D70004FF0030C4FF00F0A17E0D0F8008093FAC1
:104D8000A3F7B7FA87F793FAA3F3B3FA83F37F0095
:104D90000CFA07F75B0028EA070705FA03F33B4321
:104DA0000360013234FA02F35ED00EFA02F32340BC
:104DB000F7D04D686F1E012F1FD8D0F8088093FAE6
:104DC000A3F7B7FA87F793FAA3F98E68B9FA89F9C6
:104DD0007F000CFA07F74FEA490928EA070706FAA5
:104DE00009F947EA090787604768CE6827EA030799
:104DF00006FB03F847EA08074760D0F80C8093FAEF
:104E0000A3F7B7FA87F793FAA3F90E69B9FA89F904
:104E10007F000CFA07F74FEA490928EA070706FA64
:104E200009F947EA0907022DC760A6D193FAA3F74B
:104E3000B7FA87F7072F1ADCD0F8208093FAA3F788
:104E4000B7FA87F793FAA3F94E69B9FA89F9BF005F
:104E50000AFA07F74FEA890928EA070706FA09F963
:104E600047EA0907076288E70020BDE8F087D0F825
:104E700024901F0A97FAA7F8B8FA88F897FAA7F7C4
:104E80004E69B7FA87F74FEA88080AFA08F8BF00B0
:104E900029EA080806FA07F748EA070747626CE7B5
:104EA000B0F5000F01D000207047134A93681B0231
:104EB00020D4106810F000601BD051680F4B10B464
:104EC0005468D2F88400D2F8842011F4800FC0F323
:104ED000881104F03F0C0A485DF8044BC2F30272DB
:104EE00018BF1846B0FBFCF001FB00F0B0FBF2F07D
:104EF00070477047034870470038024040787D0192
:104F00000024F4000080BB000246006810F040005E
:104F100028D1136830B423F47F4CD1E900352B43FA
:104F20008D684C692B43CD682B430D692B438D69EC
:104F300023432B43CD692B430D6A2CF0BF0C2B432D
:104F400043EA0C031360536823F0040343EA144359
:104F5000B5F5005F53600BD0D36923F4006330BC18
:104F6000D3617047D36923F400630120D361704794
:104F70008B8C1361F0E700BFC3695B053AD470B551
:104F80000D460446C1692B68D5E9012021F433613F
:104F90001A4321F00F016B690A4302431A432B693C
:104FA00042F40062022BE26126D000284FF4000098
:104FB0000CBF20264026FFF773FFEA68B2F5007F9A
:104FC0001FD0B0FBF6F303EB830329695B00B3FB4F
:104FD000F1F305330F49A1FB03131909881EFD28BE
:104FE000C3F3C00394BF41EA0323022313432362A4
:104FF000002070BD01207047EA681343236200203F
:1050000070BD000A00EB80035B002869B3FBF0F37E
:105010000533DFE7CDCCCCCC244A0368904230B4D2
:1050200034D0B0F1804F1DD0A2F57C42904219D00F
:1050300002F58062904215D002F58062904211D054
:1050400002F59A32904211D002F5806290420DD062
:1050500002F58062904209D08C680A880360C462BD
:1050600082620CE04A6823F070031343CD688C68B9
:105070000A8823F440732B430360C462826243694D
:1050800043F00103436130BC002070474C68CA689C
:1050900023F07003234323F44073134303608A68AF
:1050A0000B88C26283620B690363E8E7000001407A
:1050B000B1F5807F30B470D026D801294ED01029A8
:1050C00048D1036A156923F010030362036A446838
:1050D000816923F0200343EA0513156821F4E641B2
:1050E00041EA0521556823F0100343EA05135D4D9D
:1050F000A84200F09C80D5684460002281618563ED
:10510000036230BC10467047B1F5805F22D1036A5C
:10511000156923F480530362036A4468C16923F468
:10512000005343EA0533156821F4E64141EA0521BD
:10513000556823F4805343EA05334A4DA84200F0F2
:105140008B80D56844600022C1610564036230BC75
:10515000104670470122104630BC7047036A15693B
:1051600023F001030362036A4468816923F00203A8
:105170002B43156821F073012943556823F001037F
:105180002B43384DA8423ED0D5684460002281614F
:105190004563036230BC10467047036A156923F407
:1051A00080730362036A4468C16923F4007343EAAD
:1051B0000523156821F073012943556823F4807392
:1051C00043EA0523274DA84208D0D5684460002251
:1051D000C161C563036230BC10467047556923F452
:1051E000006343EA8523956924F4805444EA051456
:1051F000956823F4806343EA8523D56924F4005439
:1052000044EA4514E1E7556923F0080343EA8503BE
:10521000956924F480742C43956823F0040343EAD1
:105220008503D56924F4007444EA4504ACE7556964
:1052300023F0800343EA8513956924F4806444EAEB
:105240008504956823F0400343EA8513D56924F467
:10525000006444EAC5044EE7956924F4804444EAB6
:1052600085146EE700000140064BA3FB00304FF0B1
:10527000E0228309013B0020052153619061116107
:10528000704700BFD34D62104FF0E02382B01B691E
:105290000193421C019B18BF01304FF0E0221369BB
:1052A000DB03FCD50138FAD102B07047014B18601E
:1052B000704700BF000000200023C0E90023C0E9C0
:1052C00002317047426801F01F01F0B4C1F11F03C1
:1052D000846822FA03F38A404260621A002A4FEA85
:1052E0005303826002DB1846F0BC7047C568032D8B
:1052F000A1EB04012CDC00244460002D47D006689B
:10530000741C04603478012D4FEA042444600CD0EE
:10531000B71C076077783C432402022D446004D018
:10532000F71C0760B67834432402C5F10306F60083
:10533000B44002F1200604FA01F1F44023430024B2
:1053400002EBC502C460C0E90112F0BC1846704708
:1053500006683746741C046017F8024B0760240681
:105360004460777844EA0744F71C44600760B778E4
:1053700044EA0724371D44600760F678203234433E
:10538000043D04FA01F1D440C5602343DBE729461C
:10539000D5E700BF10B404688368611AC3EBC1038A
:1053A000981A5DF8044B704730B1036823B158690F
:1053B000003818BF012070474FF0FF30704700BF22
:1053C000002800F0C9800368002B00F0C5800A782F
:1053D000FF2A40F0C1804A782DE9F04F02F0E00446
:1053E000E02C40F0B6804FEAD20C12F0180F1ABF32
:1053F0006FEA0C0C0CF0010C4FF0020C83F800C0AB
:1054000091F801E0CEF3410ECEF10409C3F8049007
:105410004D78ED4305F001059D608A781709DF603E
:105420008A78C2F381021A618E78C6F340065E6103
:105430008C7804F001049C6191F803804FEA98187D
:1054400083F81C80CC78C4F301141C62CC78C4F3BC
:10545000C0045C62CC78C4F380049C62CC78032ADC
:1054600004F00304DC6274D0B9F1040F71D00F2F83
:105470006FD002EBC20402EB8404DFF8F8A06400F2
:105480004FF0DE0B0BFB0C445444B8F1010F5C638E
:1054900006D00024B8F1030F1C6201D1012400E002
:1054A0000224C0F8D0970CEB4C0909EB020AC0F8B3
:1054B000BC472B4C80F8D4C754F82A40C0F8C047EA
:1054C000CEF1030E09EB0E0A264CBCF1000F34F9A5
:1054D0001A400CBF4FF0020A4FF0010A4FEA4C0C81
:1054E00094FBFAF4C0F8C4A7C0F8C8472FB3C9EBBF
:1054F0000919CEEB0E1EC2EB0212CE444A44BE4442
:105500003A44194F194C37F91220194F34F91E40FB
:10551000B8F1030F18BF0CF1010C37F91C70D21B46
:10552000C4EB441704EB8704E400C0F8B847141F29
:1055300005B1941F2644C0F8CC671DB91D63042033
:10554000BDE8F08F8A8852BA92B206201A63BDE88D
:10555000F08F4FF0FF30F3E74FF0FF30704700BFA0
:10556000703D0108943D010850400108603C01086D
:1055700044400108A83D01082DE9F04F8BB00028F8
:1055800001F06180D0F800B00646BBF1000F01F0D9
:105590005A8044680494002C01F055809BF80080E8
:1055A000B8F1000F00F0ED809BF81C300691032B42
:1055B00006AD0CBF09221122082100232846CDE99F
:1055C000073305920992FFF77DFE049C20609BF84B
:1055D0001C30032B0CBF012102212846FFF772FE6D
:1055E0006060D6F8C437002B40F3C380D6F8BC37D0
:1055F000049A0392002B4FF00002029240F3B9800C
:10560000039C0027B2460C212846FFF75BFE0921C8
:10561000A0622846FFF756FE0821E0622846FFF701
:1056200051FE20639BF80030002B0CBF04210921A0
:105630002846FFF747FE6063DDE9070101F1FF3E01
:105640004300BEF1000F07934FEAD070CDF820E081
:10565000C0F2B581A063002800F0D2800221284664
:10566000FFF730FEDDE9073E0EF1FF315A00DE0F95
:105670000029E063019607920891C0F2EF834FEA98
:10568000D26C9B01324622644A1F002A079308927B
:10569000C0F29A844FEAD36E5B01511F0029C4F80F
:1056A00044C007930891C0F228825A0FDB00C4F867
:1056B00048E0A1F1030C4FF0000EF445C4F84CE0B3
:1056C0000793CDF820C0C0F25A834FEA537EDB0027
:1056D0002265ACF10302002A07930892C0F24482CB
:1056E000590FDB00C4F854E00793D31E002B089336
:1056F000C0F20C83A165002840F09181E36D6063E6
:10570000C4E90A00C3F114032366DDE9073C9BF8F2
:105710000020D90F5B00002A00F0B08000220CF1BD
:10572000FF36002E626607930896C0F2B580D80F48
:105730005B00721E002AA16607930892C0F21081D6
:10574000DAF8BC37E0660137BB4204F148043FF7A2
:105750005AAF029A013211460292DAF8C4279142F6
:10576000564606DA039A002B02F1900203923FF7A5
:1057700047AF049B1B68C6F8D83705980BB0BDE847
:10578000F08F9BF81C300691032B06AD0CBF112344
:1057900020230921284605930993CDE90788FFF7BF
:1057A00091FD20609BF81C30032B0CBF05210321C9
:1057B0002846FFF787FDD6F8BC376060002B7FF7DF
:1057C00010AF04F1180707EB0319DDE90731BC46F8
:1057D0008E464146ACF110040EF1FF30DF0F002879
:1057E0004FEA430307930890C0F28580864644F849
:1057F000047BA445F0D10CF1100CCC45EAD1F0E6C5
:10580000AEF105065901002EC4E90F004FEAD36C32
:1058100007910896C0F24782C90E9B02721F002AA8
:10582000C4F844C007930892C0F20C82D80E5B0102
:10583000A2F1050EBEF1000FA1640793CDF820E0A0
:10584000C0F22881E06404212846FFF73BFDDDE932
:105850000732A2F1030CD900BCF1000FE0650791FB
:10586000CDF820C04FEA5370C0F2E080C90F1B0191
:1058700020669BF80020002A7FF450AF0CF1FF3E19
:10588000BEF1000F0793CDF820E0C0F2DE830A4698
:10589000F446D90F5B0042E7099A032ACCF10100D4
:1058A00040F31A83069B0CF11F069E46A2F1040CDE
:1058B0005A1C06921EF8022BCDF818E01206079229
:1058C00093F801E042EA0E4203F1030E0792CDF88D
:1058D00018E093F802E042EA0E2203F1040E079268
:1058E000CDF818E0DB78CDF824C01A4302FA00F3B3
:1058F000F24011431BE7DDF82480CEF10103B8F13B
:10590000030F019340F3668106988246421C06927B
:105910001AF8022BCDF818A01206079290F801A0F1
:1059200042EA0A4200F1030A0792CDF818A090F863
:1059300002A042EA0A2A021DCDF81CA00692C278F3
:105940000EF11F0E42EA0A02A8F1040802FA03F35C
:1059500022FA0EF2CDF824801743CDE9073E46E740
:1059600009990329C6F1010C40F3F48206F11F03E3
:10597000069EB646721C06921EF8022BCDF818E061
:105980001206079296F801E042EA0E4206F1030E73
:105990000792CDF818E096F802E042EA0E2206F1EE
:1059A000040E0792CDF818E0F6783243043902FA73
:1059B0000CF6DA4009911043CDE90763C0E6099A75
:1059C000032AC1F1010340F31182069E01F11F0E6B
:1059D000B446111F721C06921CF8022BCDF818C099
:1059E0001206079296F801C042EA0C4206F1030C37
:1059F0000792CDF818C096F802C042EA0C2206F1D0
:105A0000040C0792CDF818C0F6780991324302FAD7
:105A100003F322FA0EF21043CDE9073E1AE60228FC
:105A200000F00A830723E3650D236DE6099E032E2C
:105A3000C2F1030340F34483DDF818C0E6460CF1DD
:105A4000010106911EF8021BCDF818E00906079126
:105A50009CF801E041EA0E410CF1030E0791CDF8EC
:105A600018E09CF802E041EA0E210CF1040E0791C7
:105A7000CDF818E09CF803C01D324CEA010101FA90
:105A800003F3043ED14008430996D90F5B009446C6
:105A90000892EDE6DDF824C0BCF1030FC2F1050168
:105AA00040F30385069E02F11B03B646721C069264
:105AB0001EF8022BCDF818E01206079296F801E0C6
:105AC00042EA0E4206F1030E0792CDF818E096F86E
:105AD00002E042EA0E2206F1040E0792CDF818E029
