:020000040800F2
:1000000000000120013E0008A13C0008A53C0008BA
:10001000A93C0008AD3C0008B13C0008000000000D
:10002000000000000000000000000000B53C0008D7
:10003000B93C000800000000BD3C0008C13C0008BD
:10004000513E0008513E0008513E0008513E000854
:10005000513E0008513E0008DD3C0008513E0008BA
:10006000513E0008513E0008513E0008513E000834
:10007000513E0008513E0008513E0008513E000824
:10008000093D0008513E0008513E000800000000F4
:10009000000000000000000000000000513E0008C9
:1000A000513E0008513E0008513E0008513E0008F4
:1000B000513E0008513E0008513E0008513E0008E4
:1000C000513E0008513E0008513E0008513E0008D4
:1000D000513E0008513E0008513E0008000000005B
:1000E000513E0008513E0008513E0008000000004B
:1000F000000000000000000000000000513E000869
:1001000000000000513E0008513E0008513E00082A
:1001100000000000000000000000000000000000DF
:10012000513E0008513E0008513E0008FD3C0008C9
:10013000513E000800000000000000000000000028
:10014000000000000000000000000000513E000818
:10015000513E0008513E0008513E0008513E000843
:10016000513E0008513E0008000000000000000061
:10017000000000000000000000000000000000007F
:1001800000000000513E00080000000000000000D8
:04019000513E0008D4
:1001A00010B5054C237833B9044B13B10448AFF3B1
:1001B00000800123237010BD7401002000000000A6
:1001C000E0E2000808B5034B1BB103490348AFF355
:1001D000008008BD0000000078010020E0E2000877
:1001E0002DE9F04F82B001904FF000744FF000788D
:1001F0004FF000054FF0000952F804CB52F804EB21
:100200000868CB6DC0FB0C45D1F88000CEF1000E24
:10021000C3FB0E45D1F8DC30C0FB0C89C3FB0E8953
:1002200052F804CB52F804EB48688B6DC0FB0C45C8
:10023000D1F88400CEF1000EC3FB0E45D1F8D830C2
:10024000C0FB0C89C3FB0E8952F804CB52F804EBB7
:1002500088684B6DC0FB0C45D1F88800CEF1000ECC
:10026000C3FB0E45D1F8D430C0FB0C89C3FB0E890B
:1002700052F804CB52F804EBC8680B6DC0FB0C4578
:10028000D1F88C00CEF1000EC3FB0E45D1F8D03072
:10029000C0FB0C89C3FB0E8952F804CB52F804EB67
:1002A0000869CB6CC0FB0C45D1F89000CEF1000E74
:1002B000C3FB0E45D1F8CC30C0FB0C89C3FB0E89C3
:1002C00052F804CB52F804EB48698B6CC0FB0C4528
:1002D000D1F89400CEF1000EC3FB0E45D1F8C83022
:1002E000C0FB0C89C3FB0E8952F804CB52F804EB17
:1002F00088694B6CC0FB0C45D1F89800CEF1000E1C
:10030000C3FB0E45D1F8C430C0FB0C89C3FB0E897A
:1003100052F804CB52F804EBC8690B6CC0FB0C45D7
:10032000D1F89C00CEF1000EC3FB0E45D1F8C030D1
:10033000C0FB0C89C3FB0E8901984FF4FE4E4EF0B2
:10034000FF0E4FEA946444EA851404F30F044FEA65
:10035000986848EA891808F30F080480A0F802801A
:1003600002F5707201F580514FF000744FF0007883
:100370004FF000054FF0000952F804CB0868D1F89F
:100380008030C0FB0C45C3FB0C8952F804CB486895
:10039000D1F88430C0FB0C45C3FB0C8952F804CB68
:1003A0008868D1F88830C0FB0C45C3FB0C8952F833
:1003B00004CBC868D1F88C30C0FB0C45C3FB0C895A
:1003C00052F804CB0869D1F89030C0FB0C45C3FB50
:1003D0000C8952F804CB4869D1F89430C0FB0C4525
:1003E000C3FB0C8952F804CB8869D1F89830C0FB64
:1003F0000C45C3FB0C8952F804CBC869D1F89C307A
:10040000C0FB0C45C3FB0C8901984FF4FE4E4EF027
:10041000FF0E4FEA946444EA851404F30F044FEA94
:10042000986848EA891808F30F08A0F84040A0F837
:100430004280A2F57872A1F570614FF00F0C00F1C7
:100440000400CDF800C001904FF000744FF0007828
:100450004FF000764FF0007A4FF000054FF00009A2
:100460004FF000074FF0000B52F804CB52F804EBAA
:100470000868CB6DC0FB0C45C0FB0E67CEF1000ECB
:10048000C3FB0C67C3FB0E45D1F8DC30D1F880000C
:10049000C3FB0E89C3FB0CABCEF1000EC0FB0C8975
:1004A000C0FB0EAB52F804CB52F804EB48688B6DDE
:1004B000C0FB0C45C0FB0E67CEF1000EC3FB0C6702
:1004C000C3FB0E45D1F8D830D1F88400C3FB0E89A8
:1004D000C3FB0CABCEF1000EC0FB0C89C0FB0EAB16
:1004E00052F804CB52F804EB88684B6DC0FB0C4506
:1004F000C0FB0E67CEF1000EC3FB0C67C3FB0E45BD
:10050000D1F8D430D1F88800C3FB0E89C3FB0CAB03
:10051000CEF1000EC0FB0C89C0FB0EAB52F804CB31
:1005200052F804EBC8680B6DC0FB0C45C0FB0E67AE
:10053000CEF1000EC3FB0C67C3FB0E45D1F8D030E3
:10054000D1F88C00C3FB0E89C3FB0CABCEF1000EBF
:10055000C0FB0C89C0FB0EAB52F804CB52F804EB85
:100560000869CB6CC0FB0C45C0FB0E67CEF1000EDA
:10057000C3FB0C67C3FB0E45D1F8CC30D1F890001B
:10058000C3FB0E89C3FB0CABCEF1000EC0FB0C8984
:10059000C0FB0EAB52F804CB52F804EB48698B6CED
:1005A000C0FB0C45C0FB0E67CEF1000EC3FB0C6711
:1005B000C3FB0E45D1F8C830D1F89400C3FB0E89B7
:1005C000C3FB0CABCEF1000EC0FB0C89C0FB0EAB25
:1005D00052F804CB52F804EB88694B6CC0FB0C4515
:1005E000C0FB0E67CEF1000EC3FB0C67C3FB0E45CC
:1005F000D1F8C430D1F89800C3FB0E89C3FB0CAB13
:10060000CEF1000EC0FB0C89C0FB0EAB52F804CB40
:1006100052F804EBC8690B6CC0FB0C45C0FB0E67BD
:10062000CEF1000EC3FB0C67C3FB0E45D1F8C03002
:10063000D1F89C00C3FB0E89C3FB0CABCEF1000EBE
:10064000C0FB0C89C0FB0EAB01F5807101984FF423
:10065000FE4E4EF0FF0E4FEA946444EA851404F314
:100660000F044FEA986848EA891808F30F084FEA20
:10067000966646EA871606F30F064FEA9A6A4AEA32
:100680008B1A0AF30F0ADDF800C000EBCC0E2EF82F
:10069000026B2EF802AB20F8024B20F8028BBCF163
:1006A000010C7FF4CEAE02B0BDE8F08F2DE9F04F23
:1006B00082B001904FF000744FF0000552F804CB67
:1006C00052F804EB0868CB6DCEF1000EC0FB0C4570
:1006D000C3FB0E4552F804CB52F804EB48688B6D0F
:1006E000CEF1000EC0FB0C45C3FB0E4552F804CB07
:1006F00052F804EB88684B6DCEF1000EC0FB0C4540
:10070000C3FB0E4552F804CB52F804EBC8680B6DDE
:10071000CEF1000EC0FB0C45C3FB0E4552F804CBD6
:1007200052F804EB0869CB6CCEF1000EC0FB0C450F
:10073000C3FB0E4552F804CB52F804EB48698B6CAE
:10074000CEF1000EC0FB0C45C3FB0E4552F804CBA6
:1007500052F804EB88694B6CCEF1000EC0FB0C45DF
:10076000C3FB0E4552F804CB52F804EBC8690B6C7E
:10077000CEF1000EC0FB0C45C3FB0E4501984FF4B3
:10078000FE4E4EF0FF0E4FEA946444EA851404F3E3
:100790000F04048002F5707201F580514FF000746F
:1007A0004FF0000552F804CB0868C0FB0C4552F826
:1007B00004CB4868C0FB0C4552F804CB8868C0FBEA
:1007C0000C4552F804CBC868C0FB0C4552F804CB6A
:1007D0000869C0FB0C4552F804CB4869C0FB0C45C6
:1007E00052F804CB8869C0FB0C4552F804CBC869A9
:1007F000C0FB0C4501984FF4FE4E4EF0FF0E4FEA41
:10080000946444EA851404F30F040484A2F5787216
:10081000A1F570614FF00F0C00F10200CDF800C09F
:1008200001904FF000744FF000764FF000054FF04C
:10083000000752F804CB52F804EB0868CB6DC0FBFC
:100840000C45C0FB0E67CEF1000EC3FB0E45C3FB8B
:100850000C6752F804CB52F804EB48688B6DC0FB70
:100860000C45C0FB0E67CEF1000EC3FB0E45C3FB6B
:100870000C6752F804CB52F804EB88684B6DC0FB50
:100880000C45C0FB0E67CEF1000EC3FB0E45C3FB4B
:100890000C6752F804CB52F804EBC8680B6DC0FB30
:1008A0000C45C0FB0E67CEF1000EC3FB0E45C3FB2B
:1008B0000C6752F804CB52F804EB0869CB6CC0FB10
:1008C0000C45C0FB0E67CEF1000EC3FB0E45C3FB0B
:1008D0000C6752F804CB52F804EB48698B6CC0FBF0
:1008E0000C45C0FB0E67CEF1000EC3FB0E45C3FBEB
:1008F0000C6752F804CB52F804EB88694B6CC0FBD0
:100900000C45C0FB0E67CEF1000EC3FB0E45C3FBCA
:100910000C6752F804CB52F804EBC8690B6CC0FBAF
:100920000C45C0FB0E67CEF1000EC3FB0E45C3FBAA
:100930000C6701F5807101984FF4FE4E4EF0FF0EEA
:100940004FEA946444EA851404F30F044FEA966670
:1009500046EA871606F30F06DDF800C000EB8C0EA2
:100960002EF8026B20F8024BBCF1010C7FF456AF5D
:1009700002B0BDE8F08F034613F8012B002AFBD12B
:10098000181A013870470000000000000000000045
:1009900001F0FF01102A2BDB10F0070F08D010F830
:1009A000013B013A8B422DD010F0070F42B3F6D134
:1009B000F0B441EA012141EA014122F007047FF04D
:1009C00000070023F0E80256083C85EA010586EAA4
:1009D000010685FA47F5A3FA87F586FA47F6A5FAE0
:1009E00087F68EB9EED1F0BC01F0FF0102F00702EC
:1009F00032B110F8013B013A83EA010313B1F8D197
:100A00000020704701387047002D06BF3546033877
:100A1000073815F0010F07D1013015F4807F02BFB0
:100A2000013015F4C03F0130F0BC0138704700BF01
:100A30007BB972B90029BEBF00204FF0004106E02B
:100A400008BF00281CBF6FF000414FF0FF3000F0DE
:100A5000A7B9ADF1080C6DE904CE002909DB002B24
:100A60001ADB00F035F8DDF804E0DDE9022304B01C
:100A70007047404261EB4101002B1BDB00F028F87E
:100A8000DDF804E0DDE9022304B0404261EB4101FE
:100A9000524263EB43037047524263EB430300F05F
:100AA00017F8DDF804E0DDE9022304B0404261EB11
:100AB00041017047524263EB430300F009F8DDF84F
:100AC00004E0DDE9022304B0524263EB43037047C4
:100AD0002DE9F047089D04468E46002B4DD18A42F1
:100AE000944669D9B2FA82F252B101FA02F3C2F124
:100AF000200120FA01F10CFA02FC41EA030E9440B5
:100B00004FEA1C48210CBEFBF8F61FFA8CF708FBD5
:100B100016E341EA034306FB07F199420AD91CEBAD
:100B2000030306F1FF3080F01F81994240F21C81DF
:100B3000023E63445B1AA4B2B3FBF8F008FB103327
:100B400044EA034400FB07F7A7420AD91CEB04045C
:100B500000F1FF3380F00A81A74240F2078164442C
:100B6000023840EA0640E41B00261DB1D4400023B1
:100B7000C5E900433146BDE8F0878B4209D9002D15
:100B800000F0EF800026C5E9000130463146BDE89F
:100B9000F087B3FA83F6002E4AD18B4202D3824209
:100BA00000F2F980841A61EB030301209E46002DB8
:100BB000E0D0C5E9004EDDE702B9FFDEB2FA82F20D
:100BC000002A40F09280A1EB0C014FEA1C471FFA6B
:100BD0008CFE0126200CB1FBF7F307FB131140EA52
:100BE00001410EFB03F0884208D91CEB010103F11F
:100BF000FF3802D2884200F2CB804346091AA4B2E1
:100C0000B1FBF7F007FB101144EA01440EFB00FEB4
:100C1000A64508D91CEB040400F1FF3102D2A64519
:100C200000F2BB800846A4EB0E0440EA03409CE7B8
:100C3000C6F12007B34022FA07FC4CEA030C20FA65
:100C400007F401FA06F31C43F9404FEA1C4900FA85
:100C500006F3B1FBF9F8200C1FFA8CFE09FB181102
:100C600040EA014108FB0EF0884202FA06F20BD975
:100C70001CEB010108F1FF3A80F08880884240F2C5
:100C80008580A8F102086144091AA4B2B1FBF9F009
:100C900009FB101144EA014100FB0EFE8E4508D904
:100CA0001CEB010100F1FF346CD28E456AD9023889
:100CB000614440EA0840A0FB0294A1EB0E01A1426E
:100CC000C846A64656D353D05DB1B3EB080261EBDC
:100CD0000E0101FA07F722FA06F3F1401F43C5E9B6
:100CE000007100263146BDE8F087C2F12003D840EC
:100CF0000CFA02FC21FA03F3914001434FEA1C472E
:100D00001FFA8CFEB3FBF7F007FB10360B0C43EA1F
:100D1000064300FB0EF69E4204FA02F408D91CEBCF
:100D2000030300F1FF382FD29E422DD902386344CD
:100D30009B1B89B2B3FBF7F607FB163341EA03416D
:100D400006FB0EF38B4208D91CEB010106F1FF38BC
:100D500016D28B4214D9023E6144C91A46EA0046B3
:100D600038E72E46284605E70646E3E61846F8E645
:100D70004B45A9D2B9EB020864EB0C0E0138A3E78E
:100D80004646EAE7204694E74046D1E7D0467BE76F
:100D9000023B614432E7304609E76444023842E7E7
:100DA000704700BF2DE9F04F95B0CDE90F32AF4A43
:100DB0001F9F1378567807965D1E0124ED10254479
:100DC0000A95F31AED0003EBD373013D2341AC40C8
:100DD00004FA03F3139353680C93002900F0828004
:100DE000012900F040810229137A08BF4F218B426C
:100DF0007CD9079A002A00F08B800F9B013B9BB2A5
:100E00001193109B013B9BB2039312FB02F30493DB
:100E1000209B03FB02F6531E09930A9B0021012B22
:100E20000D918B460B9108910E91B24600F0828095
:100E3000022B00F0DF80032B00F0E080042B02D1B6
:100E40000C9B1B680893DDE90E230C990A9C1A443D
:100E500021440D9B0C9111993B440D93B3FBFAF384
:100E6000CE180E9309990B9B994292B2B6B265D0F7
:100E7000002B00F092804FF00008CBEB0B29CDF84F
:100E800048B04446DDF840B045461EE009998C4222
:100E90001FD013990B421E9B08BFFF230193039B96
:100EA00000960BEB0501B844B8FBFAF52B449BB256
:100EB00089B2CDE9050203F0B1FA079B0134A342E0
:100EC000DDE9050209F1FF0925D0089BA340002CAC
:100ED000DCD1049BB9FBF3F3DBB243F47F0343F4AF
:100EE0007F43DBE72021137A8B4282D8527A8A42F1
:100EF000FFF47FAF0A9ACB1ADBB202FB03F3079928
:100F00000C9A01FB0323079A0C93002A7FF475AF18
:100F100015B0BDE8F08FDDF848B00BEB03090B9B73
:100F2000079A013393420B93CB46F1D00A9B012BD6
:100F30007FF47EAF0C9B1B78089384E7002965D073
:100F4000079B0BEB03090025C9EB0928CDF8489056
:100F5000DDF84090CBEB0B2B2C46049BBBFBF3F353
:100F6000DBB243F47F0343F47F430193039B00967A
:100F700009EB04013D44B5FBFAF4234489B20BF1BB
:100F8000FF0B9BB2CDE9050203F048FAC345DDE94A
:100F90000502E2D1DDF84890C1E71C46079B0BEB48
:100FA0000309C9EB0928CDF84890DDF84090CBEB58
:100FB0000B2B2546049BBBFBF3F3DBB243F47F030F
:100FC00043F47F430193039B009609EB04013D44E6
:100FD000B5FBFAF4234489B20BF1FF0B9BB2CDE9C8
:100FE000050203F01BFAC345DDE90502E2D1DDF895
:100FF000489094E70C9B1B88089324E70C9A13787D
:10100000B2F8012003EB122308931CE7079B0BEBBC
:101010000309C9EB0928CDF84890DDF840900C464B
:10102000CBEB0B2B0D46049BBBFBF3F3DBB243F482
:101030007F0343F47F430193039B009609EB040174
:101040003D44B5FBFAF4234489B20BF1FF0B9BB28C
:10105000CDE9050203F0E2F9C345DDE90502E2D17D
:10106000DDF848905BE758213DE700BF0400002011
:101070002DE9F04F95B001240292A44A1093137801
:10108000567807965D1EED1025440B95F31AED007A
:1010900003EBD373013D2341AC4004FA03F31393F4
:1010A00053680D93002900F0AF80012900F0E08122
:1010B0000229137A08BF4F218B4240F2AA80079A77
:1010C000002A00F0B880109B914E013B9BB2119317
:1010D000029B013B9BB2039312FB02F304931F9B01
:1010E00003FB02FB531E0A930B9B0021012B0E9165
:1010F00089460C9108910F9100F0B080022B00F00E
:101100005C81032B00F05D81042B02D10D9B1B68D9
:101110000893DDE90F231E990B9C1A440E9B0B4488
:101120000D990E9321440D911199B3FBFBF3CF1848
:101130000F930A990C9B994292B2BFB200F0928031
:10114000002B00F0EB804FF00008C9EB092ACDF826
:1011500048904446DDF878900997454620E00A9F7C
:10116000BC4223D013990B426A496B4B18BF0B4604
:101170000193029B5919099B0093039BC844B8FB38
:10118000FBF52B449BB289B2CDE9050203F046F989
:10119000079B0134A342DDE905020AF1FF0A4DD0A5
:1011A000089B6FF07901A340002CD8D16FF0310774
:1011B000049BBAFBF3F3DBB207FB03FC86FB0C7E5C
:1011C00003FB01F1E6444FEAEC7CACEBEE1C86FB42
:1011D000017E8E44C917ACF1330CA1EBEE11A3EBE9
:1011E00083035FFA8CFC7B399B014FEA0C4CC9B23C
:1011F0004CEA012186FB037C9C44DB17A3EBEC1338
:101200003F33DBB20B43B3E72021137A8B423FF627
:1012100056AF527A8A42FFF452AF0B9ACB1ADBB226
:1012200002FB03F307990D9A01FB0323079A0D9321
:10123000002A7FF448AF15B0BDE8F08FDDF8489084
:101240004B4409930C9B079ADDF824900133934299
:101250000C93F0D00B9B012B7FF450AF0D9B1B78B0
:10126000089356E7002900F0B480079B4FF0000870
:101270004B440993C9EB0924C3EB032A4546029B5F
:10128000009759191E9B6FF079059844049BB4FB95
:10129000F3F3DBB205FB03FC86FB0C9E6FF031051C
:1012A00005FB03F5E6444FEAEC7CACEBEE1C86FB59
:1012B000059EAE44ED17A5EBEE15ACF17B0CA3EB50
:1012C00083035FFA8CFC333D9B01EDB24FEA0C2C9B
:1012D0004CEA054C86FB03E51D44DB17A3EBE51345
:1012E0003F33DBB24CEA03030193039BB8FBFBF5EE
:1012F0002B4489B2FF349BB2CDE9050203F08EF88E
:101300005445DDE90502BAD19CE700BF0400002086
:1013100081808080FF901E009314FF001D46079B74
:101320004B440993C9EB0924C3EB032AA846029B4B
:10133000009759191E9B6FF031059844049BB4FB2C
:10134000F3F3DBB205FB03FC86FB0C9E6FF0790523
:1013500005FB03F5E6444FEAEC7CACEBEE1C86FBA8
:10136000059EAE44ED17A5EBEE15ACF1330CA3EBE7
:1013700083035FFA8CFC7B3D9B01EDB24FEA0C4C82
:101380004CEA052C86FB03E51D44DB17A3EBE513B4
:101390003F33DBB24CEA03030193039BB8FBFBF53D
:1013A0002B4489B2FF349BB2CDE9050203F036F835
:1013B0005445DDE90502BAD144E70D9B1B8808932B
:1013C000A7E60D9A1378B2F8012003EB12230893D5
:1013D0009FE6079B4B440D460993C9EB0924C3EBD9
:1013E000032A8846029B009759191E9B6FF07905C6
:1013F0009844049BB4FBF3F3DBB205FB03FC86FBD0
:101400000C9E6FF0310505FB03F5E6444FEAEC7CDA
:10141000ACEBEE1C86FB059EAE44ED17A5EBEE157E
:10142000ACF17B0CA3EB83035FFA8CFC333D9B0197
:10143000EDB24FEA0C2C4CEA054C86FB03E51D444B
:10144000DB17A3EBE5133F33DBB24CEA0303019355
:10145000039BB8FBFBF52B4489B2FF349BB2CDE96B
:10146000050202F0DBFF5445DDE90502BAD1E9E6E9
:101470005821CAE62DE9F04F8FB04FF0000983F8EC
:101480000090CDE90C23189B82F80090029083F81D
:101490000090002900F0D0804B1E012450FA83FEFA
:1014A00001FB03030193CDE90711631ACDE9099408
:1014B00005930B190B94049300904FF0FF3B4E469D
:1014C000CDF81890CDF80C904D46029B5B441A461F
:1014D0000C464FF0010C002703E0013C0127724548
:1014E0000BD012F8010F0128F9D00028F5D0724571
:1014F0004FF0000C4FF00107F3D104FB0CFC189ADD
:10150000AC45B8BFAC4682F800C0002F79D0029835
:10151000002200EB090488464FF0010A104607E05C
:1015200008F1FF3838460132D5B2A9420C440CD933
:101530002578012DF7D0002DF2D00132D5B2A94285
:1015400038464FF0000A0C44F2D80AFB08F8C445AC
:10155000189AB8BFC4465FFA8CF5157000285AD0A7
:10156000009A1278012A05D0002A42D1079A013A3E
:10157000CDE90602019A1278012A05D0002A3CD151
:10158000089A013ACDE9082013F8012F002A08BF74
:1015900006467345F8D1059A03EB010E019B1344EF
:1015A0000193049A009B09F10109134400935FFA27
:1015B00089F399428B44039387D8079A0A9B089929
:1015C00002FB03F30B9A01FB02F29342B8BF1346EE
:1015D0009C456746B8BF1F46189B1F70069B5BB3B0
:1015E000099B13B3002E14BF002002200FB0BDE8EA
:1015F000F08F002206900A92BCE7002209900B921D
:10160000C2E7039B03F1010B0C9B012083F800B0A0
:101610000FB0BDE8F08F039B03F1010B0D9B384623
:1016200083F800B00FB0BDE8F08F0D9A0698022342
:1016300013700C9A1370EBE70D9A012313700C9A38
:10164000184613700FB0BDE8F08F00BF2DE9F04FC2
:101650002DED028BA3B004AFFB6197F8B030386476
:101660007B61002B00F06781924611FB01F28B46F3
:101670003A62002A00F03C81431E9818002113F8BA
:10168000012F02B901318342F9D1002900F03081E4
:1016900001EB41039B003A6A073323F007036946D5
:1016A0000732ADEB030D08EE101AD20869460DF1B2
:1016B0001303A1EBC20295469A0823F00303BB6211
:1016C00004ABBA607B66BBF1000F00F0B281FA692F
:1016D0000BF1FF31012A08BF01204FF0000218BFB3
:1016E0004FF0FF300BFB01333A63F96078603B61E8
:1016F000FA62FA633B6B3B6600233A6E7B653B6C98
:101700009C5C74B13B6E01333B667B6D0133DBB295
:101710009B4500F004813A6E7B653B6C9C5C002C21
:10172000F0D17D6E3A6A194628460BF00DFD3B6EEE
:10173000F96B05F803A02A46D7E90A0501EB410336
:10174000A14600F8235000EB8303786D5C607B6258
:10175000587001239940B961F9683A6752FA81F4E7
:10176000C7E912BB3A69FA66A3EB0B01B9654FF002
:10177000FF320BEB03017B63F965CE46C7F844905B
:10178000C7F850907A67C7F86890BB637A6F7B6E32
:1017900013441A46002658464FF0010C03E0013866
:1017A0000126A2420BD012F8011F8A45F9D0002968
:1017B000F5D0A2424FF0000C4FF00106F3D100FB30
:1017C0000CFCCC45B8BFCC46002E00F01781D7E901
:1017D000192100255118D9462A464FF0010807E083
:1017E00009F1FF3935460132D0B2834559440CD94D
:1017F00008785045F7D00028F2D00132D0B28345A6
:1018000035464FF000085944F2D809FB08F8C445A2
:10181000B8BFC4465FFA8CF9002D00F0FE803A6F25
:101820001278924505D0002A71D1FA6C013AC7E9C5
:101830001325FA6E1278924505D0002A6BD1BA6C46
:10184000013AC7E9115213F8012F002A08BFAE462A
:101850009C42F8D1FA6EB96DBB6E0A44FA66F96D16
:101860003A6F0A4401333A677A6FBB66DBB25A4477
:101870009B455C447A6789D8FA6CBB6BB96C02FBF8
:1018800003F37A6B01FB02F29342B8BF13469C4507
:10189000FA6BB8BF9C46BB691344BA6A02EB830378
:1018A00083F808C03B6D002B00F0B0807B6C002BF0
:1018B00000F0AC80BEF1000F16D0D7F8AC30019329
:1018C000D7F8A83000937B69013BDBB20293FB6938
:1018D000786EC3F10303CAF10302DBB2D2B25946F8
:1018E000FFF7B4FE7B6A5860FB6B0133FB6309E7CB
:1018F000D7F8AC3083F800B0D7F8A83000207C3798
:1019000083F800B0BD46BDEC028BBDE8F08F00222D
:101910003D65BA638DE700227D647A6393E73B6B94
:10192000FA6A796D5B443B638A4202F10103DBB2E0
:1019300008D0FB62DEE618467C37BD46BDEC028B64
:10194000BDE8F08FBE6AFB6B7068347A5A1ECBB369
:10195000FB690025012B01462B4623D0814208DC80
:1019600003EB430C06EB8C0C45DB9CF80810A14202
:1019700050DC0133013ADBB203EB4301B2F1FF3F2C
:1019800006EB81011CD04968E8E71D460846013393
:10199000013ADBB203EB4301B2F1FF3F06EB8101F9
:1019A0000ED049688842F2DC03EB430C06EB8C0C4A
:1019B000EBDB9CF80810A142E9DD1D460C46E6E78A
:1019C000FD632B46BA6AB96803EB430302EB83025B
:1019D0009B0013F821105378D7F8A8201170D7F87E
:1019E000AC20137018EE103A7C379D46BD46BDEC16
:1019F000028BBDE8F08F1D460846BAE7FA6BBB695B
:101A00001344BA6A02EB830383F808C07B6A7A68DE
:101A10005A6069E71D460C46ABE7FA6BBB69134495
:101A2000BA6A02EB83037A6883F808907B6A5A608B
:101A30005AE7BB6AC7F83CB058685B46C2E700BFCC
:101A40002DE9F04F2DED0A8BADF50D7DCE4C04AF99
:101A500007F59E7383468A46C7F8AC300FCC07F56E
:101A6000C6760FC60FCC0FC60FCC0FC694E80F007A
:101A7000C64C86E80F000FCCD7F8AC600FC694E8D0
:101A80000700C34BC34C86E8070093E8030007F147
:101A9000CC0383E80300C04B93E80300BF4B87F8F7
:101AA000C010C7F8BC0093E80300BD4BA7F8C810EE
:101AB000C7F8C40093E8070007F1E40503C5B94B74
:101AC00025F8022B120C2A700FCB07F58078A8E8B6
:101AD000070028F8023B1B0C88F80030B24B0FCBF4
:101AE00007F1F00CACE807008CF800300FCC07F5DC
:101AF0009279A9E80F0094E80300AC4C49F8040B74
:101B000089F800100FCC07F5887EAEE80F00236837
:101B1000BBF80620AEF80030BBF804309A4228BF6C
:101B20001A46A34B7A651B684FF001018AF828100A
:101B3000002433B10BF02EFC9D4B1B680134A342F3
:101B4000F8D87A6D02F116039BB209EE903A02F1D1
:101B50002B039BB20CEE103A931C9BB20AEE103A88
:101B600002F12A039BB20AEE903A134637339BB236
:101B70000BEE103A134652083A630AF1740208EE6B
:101B8000902A0AF1380209EE102A07F1F00200212A
:101B90003A645A1C1533F96579643965B964BA60D9
:101BA0007B600AF039F88349584602F043FD8248C9
:101BB0004FF0FF3109F0B0FFBBF80490BBF80630DE
:101BC000994528BF994600234D4607F5CA78C7F8BE
:101BD000A830D146D7F8A8300024C3F3CF0AA8F123
:101BE0000806C7F8AC400DE00824CDE90154CDF853
:101BF00000C0FFF7D7F8D7F8AC30B0452B44C7F892
:101C0000AC3013D016F8011BD7F8AC2001296FF0C7
:101C10007F4C53465846C2F3CF02E5D10823CDE9A5
:101C200001534FF47F0300935346E2E7D7F8A830FF
:101C30002B4408F10808C7F8A83007F5EA734345B4
:101C4000C8D107F59270FEF796FE5C4A7C6D13785A
:101C5000584D029500FB134000264FF47F03C0F35C
:101C60004F010092019319EE902A07F5927358469E
:101C7000039602F073FE07F58870FEF77CFE504A6B
:101C80001378009200FB1340FF23C0F34F01CDE90E
:101C900002561CEE102A0193584607F5887302F08D
:101CA0005DFE41F2883003F0BFF9BBF80640BBF897
:101CB00004309C4228BF1C4604EB4403CA46DB08A0
:101CC00007F2A31807F2AB154FF0080918F8011F27
:101CD000C6F3CF02CDE900495846C7F8AC30FFF74C
:101CE000C7F94545D7F8AC302644EFD1BBF80640DC
:101CF000BBF804309C4228BF1C46630807F2AB18AF
:101D000007F2B31600254FF0080918F8011FC5F3B4
:101D1000CF02CDE900495846C7F8AC30FFF7A8F923
:101D20004645D7F8AC302544EFD14FF4FA60254D45
:101D300003F07AF90023C7F8A8300FCD07F5E67451
:101D40000FC40FCD0FC40FCD0FC495E80F0084E86A
:101D50000F002B69A7F8B8301B0CBBF8049087F86C
:101D6000BA30BBF80630994528BF99464D4607F56D
:101D7000EA78D146D7F8A8300024C3F3CF0AA8F1F7
:101D80000806C7F8AC402DE0F8E20008B4E400080B
:101D9000D0E40008D8E40008F0E40008F8E4000803
:101DA00000E500080CE500081CE500082CE500082B
:101DB0009001002000FFFF00E00000200400002050
:101DC0001000002038E300080824CDE90154CDF8C4
:101DD00000C0FEF7E7FFD7F8AC3046452B44C7F804
:101DE000AC3013D016F8011BD7F8AC2001296FF0E6
:101DF0007F4C53465846C2F3CF02E5D10823CDE9C4
:101E000001534FF47F0300935346E2E7D7F8A8301D
:101E10002B4408F10808C7F8A83007F505734345B7
:101E2000A8D1CA4607F1B809BBF80650BBF8043080
:101E300019F8012B9D4207F5E6704FF0080128BF05
:101E40001D4605FB02F302FB010607F5EA704FF0A1
:101E50000008C3F3CF0311FB020416F8011B08228C
:101E6000CDE900525846C8F3CF02C7F8AC30FFF7AF
:101E7000FFF8B442D7F8AC30A844EED107F1BB0369
:101E80009945D1D1BBF80650BBF804309D4228BF1C
:101E90001D464FEAE50842F21074A34A9AF8293029
:101EA0001168D3B900BF9AF82930B3B901259E4B08
:101EB0001E6804FB05F3721A9A4209D301350D2DF1
:101EC0004FF00001994828BF012509F025FE314651
:101ED00000BF9AF82930002BE9D09AF828305BB17E
:101EE00000BF9AF82930002BF7D1DAF82030032B05
:101EF0000ED88D4B1968D5E750460AF03BFF00BF5E
:101F00009AF82930002BE8D1DAF82030032BF0D9E9
:101F100019EE102A18EE901A07F1DC000AF0BEFE46
:101F2000D7F8E03093FBF8F39A1E042AB5D80021C5
:101F30007F48BB651D4609F0EFFDBBF80640BBF8C6
:101F400004309C4207F5E67128BF1C4604FB05F3EC
:101F500001EBC50607F5EA7101EBC508C3F3CF0332
:101F600000254FF0080916F8011BC5F3CF02CDE993
:101F700000495846C7F8AC30FFF77AF84645D7F81D
:101F8000AC302544EFD14FF4FA7003F04DF85122F4
:101F9000684907F5E6700BF0D7F8674BBBF80420EB
:101FA0001B68A7F8B8301B0C87F8BA30BBF80630AE
:101FB000934228BF13469846BB6D01337B66DBB264
:101FC000FB64002307F5EA79C7F8AC304546D7F83B
:101FD000AC305A4AA2FB0338C8F34F08A9F10906EE
:101FE00000240AE00920CDE90150CDF800C0584690
:101FF000FEF7D8FEB1452C4418D0504B16F8011FFF
:10200000A3FB043201296FF07F4C4346C2F34F0219
:10201000E8D10923CDE901534FF47F0300935846DB
:102020004346FEF7BFFEB1452C44E6D1D7F8AC30AD
:102030002B4409F10909C7F8AC3007F2252399456B
:10204000C5D107F1B809BBF80660BBF8043019F830
:10205000012B3A499E4228BF1E4606FB02F3A1FB14
:1020600003134FF0FF34092111FB024507F5E67019
:10207000054407F5EA704FF00008C3F34F0311FB66
:102080000204092215F8011FCDE900622B4AC7F8A6
:10209000AC30A2FB0802C2F34F025846FEF7E8FF3D
:1020A000AC42D7F8AC30B044EBD107F1BB034B45A1
:1020B000C9D1BBF80650BBF804309D4228BF1D466D
:1020C0004FEAE50942F21074174A9AF8293011686C
:1020D000D3B900BF9AF82930B3B90125124B1E6855
:1020E00004FB05F3721A9A4209D301350D2D4FF006
:1020F00000010E4828BF012509F00EFD314600BF42
:102100009AF82930002BE9D09AF82830C3B100BFE3
:102110009AF82930002BF7D1DAF82030032B1BD89E
:10212000014B1968D5E700BF900100200401002091
:10213000F80000207CE30008D0E30008398EE33883
:1021400050460AF017FE00BF9AF82930002BDBD169
:10215000DAF82030032BE3D919EE102A18EE901A82
:1021600007F1DC000AF09AFDD7F8E03093FBF9F6AE
:10217000A6F10308B8F1020FA6D89548002109F08E
:10218000CBFCBBF80630BBF80450924A9D4228BFF6
:102190001D4606EBC60905FB06F3A2FB032309F166
:1021A000FF3607F5E672164407F5EA72C3F34F03EC
:1021B00091440024092216F8011FCDE90052854AF6
:1021C000C7F8AC30A2FB0402C2F34F025846FEF738
:1021D0004FFFB145D7F8AC302C44EBD14FF4FA7037
:1021E00002F022FFB8F1000F00F00287B8F1010FF2
:1021F0007B6E00F0F686032B0CBF05230323BB6325
:10220000FB6D13B118460AF097FF7C6E04FB04F1D6
:1022100008460D46F9630AF087FF6B1EC318FB6181
:10222000AB083B6125F003037B61BB6DF86504FBE4
:102230000303BB6200EB8403FB6043423B62431E2B
:102240007B635346DA469B4609F0E6FC62484FF052
:10225000FF3109F061FCBAF80490BAF8068009FB76
:1022600008F3002B39D05D4C4E460025C1460BF0DB
:1022700091F880B206FB00F1A4FB0131BAF80460CA
:10228000C1F3CF384645F2D9BAF80660B1450DD34F
:102290000BF080F81FFA80F906FB09F9A4FB093955
:1022A000BAF80660C9F3CF394E45F1D94C4B0193CA
:1022B00009F101039BB2009308F101034A469BB266
:1022C0004146504602F0AAF8BAF80460BAF80690FF
:1022D000013509FB06F39D42C9DB7B6C40490133A4
:1022E00050467B6402F0A6F9FC6DFA6B0021204693
:1022F0000AF052FFBAF80660BAF804303A6AFC6293
:102300009E4228BF1E460023C7E92732B0465046EA
:102310007E6ED7F858A0C7F8A430C7F89830C7F831
:1023200094B0D7F89C30D7F8A420B3FBF6F9FB6D36
:102330009C18D7F8A030C7F8AC401FFA89F90025DF
:1023400003F1FF3BD7F8AC30B5FBF6F213F8011BF5
:10235000C7F8AC300129CDE901864B4692B226D0B0
:102360006FF07F440094C7F8A800FEF71BFDD7F874
:10237000AC30D7F8A8005B449A454544E2DCD7F876
:102380009C30D7F898204344C7F89C30D7F8A03049
:102390009B1BC7F8A030D7F8A43092453344C7F848
:1023A000A43002F101031DDDC7F89830B9E74FF4FE
:1023B0007F0300934B46C7F8A800FEF7F3FCD7F85D
:1023C000AC30D7F8A8005B449A454544BADCD6E760
:1023D000F8000020398EE338EC00002001800080F6
:1023E00000FFFF00824607F1CC0107F5AC70D7F87B
:1023F00094B0B64DB64E0BF024F807F1CC00FEF7C2
:10240000BAFA07F5AC7319180A22786C0BF064F865
:1024100007F5AC70FEF7AFFA2B787A6D02960024C0
:102420002E4600FB132000954FF47F05C0F34F01AB
:102430001AEE102A5046019507F5AC73039402F08A
:102440008DFAA34B01931AEE102AA24B0096504628
:10245000CDE90254214602F081FA07F1BC0107F5EB
:10246000AC700AF0E5FF0A220146B86C0BF034F8B4
:1024700007F5AC70FEF77FFA07F5AC7C604407F116
:10248000C4010AF0D5FF0A220146386D0BF024F88A
:1024900007F5AC70FEF76FFA33787A6D0394354622
:1024A0008B4E009500FB1320C0F34F0119EE902ACC
:1024B00007F5AC735046CDE9014602F04FFA864D60
:1024C00007F59E70FEF757FA2B787A6D009500FBA2
:1024D0001320FF25C0F34F011AEE902A07F59E73D3
:1024E0005046CDE90264019502F038FA07F5927082
:1024F000FEF741FA78490B7803947A6D009100FB5E
:102500001320C0F34F0107F592735046CDE90156F1
:102510001BEE102A02F022FA01237B675B46D346AA
:102520009A46002387F8B73087F8B63087F8B53079
:1025300087F8B43087F8B3307B6F002B00F07781D9
:102540007B6BF96913F8012F002A00F0BE829942D3
:10255000F8D1FB6C87F8B43087F8B3303B6D0533A6
:102560003B65BB6C0533BB6407F1F0034FF0010919
:102570003B6442F21074B9F1000F40F07284574A84
:102580009AF829301168D3B900BF9AF82930B3B945
:102590000125524B1E6804FB05F3721A9A4209D3B7
:1025A00001350D2D4FF000014D4828BF012509F0E0
:1025B000B3FA314600BF9AF82930002BE9D09AF8D7
:1025C0002830002B00F0248100BF9AF82930002B1E
:1025D000F5D1DAF82030032BD1D919EE102A18EEF4
:1025E000901A07F1D4000AF059FBD7E935232F2AB6
:1025F00006D8B968994203DA79688B427FF7D1AA85
:10260000796E786DB0FBF1F893FBF8F38B42B2D2A0
:1026100092FBF8F88845AED2F86D01FB03814218B1
:10262000415C0029A7D11E46022313702D4879670B
:102630000C4609F071FA7B6D786EFC6608FB03F2BC
:1026400006FB03F3B2FBF0F2B3FBF0F392B29BB2E2
:10265000C7F8AC203B675846C7F818A0224A1B4D64
:1026600082FB043211192B78E217A2EBE1122D3A0A
:10267000591ED2B2C9104E1C14026978C7F89810BE
:1026800044EA02442243CB1AF10003EBD37301392D
:102690003A6601225B108A4002FA03F37B622B7ACE
:1026A0006C68C7F88C604F2BC7F884401ED86A7AD4
:1026B0004E2A1BD9C3F14F03D7F89810DBB206FBA3
:1026C00003F301FB0343C7F884300FE0040000204C
:1026D00000FFFF00ACE40008100000209001002083
:1026E00004010020F800002081808080D7F8982025
:1026F000002A00F0478500231946FB67D7F8AC3065
:10270000D7F854A0C7F88810013B9BB2C7F8A8308F
:102710003B6FC7F89410013B9BB2BB6612FB02F300
:10272000C7F8A4307B6EB96702FB03F6531EC7F8E7
:102730009030C7F88010B346D7F88C30012B00F0EA
:10274000A684022B00F0D784032B00F0DB84042B3B
:1027500004D1D7F884301B68C7F89430BA6F3B6F48
:10276000D7F88410D7F88C401A442144FB6FC7F87F
:102770008410B96E5344FB67B3FBFBF3CE18BB6701
:10278000D7F89010D7F88830994292B2B6B200F0DC
:102790004E84002B00F08284D7F880304FF0000880
:1027A000C3EB03294446454623E0D7F890108C42FA
:1027B00024D0796A0B423B6E08BFFF230193D7F800
:1027C000AC3000965919D7F8A830D044B8FBFBF5C7
:1027D0002B44C7E927209BB289B201F01FFED7F82E
:1027E00098300134A342D7E9272009F1FF0900F00E
:1027F0000384D7F89430A340002CD6D1D7F8A43066
:10280000B9FBF3F3DBB243F47F0343F47F43D5E733
:1028100050460AF0AFFA00BF9AF82930002B7FF437
:10282000CEAEDAF82030032B7FF6A9AED5E61A46F5
:10283000F8697B6B13F8011F01B901329842F9D195
:10284000002A3FF486AE02EB42039B00FA6BFD6D5B
:10285000C7F89CA0073323F007030732694622F02C
:102860000702ADEB030D0DF1100900230BEE901ADA
:1028700008EE10BAADEB020DF96CD7F810B0C7F83E
:10288000A090C7F8AC300DF11008C7F8A830C7F811
:10289000A4309946D7F8ACA0002415F80A30002BD4
:1028A00042D00134E4B2A1420AF1010AF5D8D7F8C6
:1028B000A830D7F8AC20786E0133C7F8A830DBB267
:1028C00002449942C7F8AC20C7F8A430E2D84E467B
:1028D000D7F8A090D7F89CA0D9F8040099F8084040
:1028E00018EE10BA711E002E00F0A2807E6F024614
:1028F00000230FE02A7AA24201DD1E46144601336E
:102900000139DBB203EB43024D1C09EB820200F0FC
:102910008F8052689042F2DC03EB430509EB85059A
:10292000E8DA1E461046EAE72B68C8F80030BBF12B
:10293000020F6B68C8F8043038D0AB68C8F80830AC
:10294000BBF1030F32D0EB68C8F80C30BBF1040FB9
:102950002CD02B69C8F81030BBF1050F26D06B695D
:10296000C8F81430BBF1060F20D0AB69C8F8183096
:10297000BBF1070F1AD0EB69C8F81C30BBF1080F88
:1029800014D02B6AC8F82030BBF1090F0ED06B6A47
:10299000C8F82430BBF10A0F08D0AB6AC8F8283059
:1029A000BBF10C0F04BFEB6AC8F82C30FE6B7869E2
:1029B00086420FD02B5C08F80030431C9E4209DD94
:1029C000EA5C08F80320831C9E423246C4BFEA5CDE
:1029D00008F80320D7E928204FF0010308F80A304F
:1029E00009EB490302EB830602F8230033464FF05C
:1029F000000C08330022726087F8CCC187F8DCC075
:102A0000747086F808C007F1DC0200934046C7F8EE
:102A1000981007F5E673FEF72DFDD7F898100028FB
:102A200040D0012818BF0020706009F1010938E783
:102A300006EB460209EB820319F822205B7887F83F
:102A4000B4301BEE903A87F8B3209D46FA6C97F8A5
:102A5000B3309A423FF482AD97F8B40082423FF41B
:102A60007DAD7A6E02FB03F30344FA6DD45C002C57
:102A700049D007F1B7030093F96CF86D07F1B6037D
:102A800007F1B502FEF7F6FC814600283FF471AD70
:102A900001283B6D7FF463AD0A333B6507F5807316
:102AA0003B6466E5BB6B029307F1B403019307F146
:102AB000B30300930223C7F898101A464046FEF766
:102AC000C5FDD7F898107060AFE7FC6C0AF062FCA7
:102AD00087F8B3000AF05EFC97F8B330C0B29C42AE
:102AE00087F8B400F2D97A6E02FB03F3FA6D8442E0
:102AF0000244EBD9D25C002AE8D1FA6DFC640344AD
:102B0000D45C002CB5D111460122CA54B9482146E3
:102B100009F002F87E6D3C66DE46C7F824A0254623
:102B2000B54CB64B227883FB05135919531EDB10A5
:102B300001331846C7F88C306378C7F898309A1A72
:102B4000EB17A3EBE113013BDBB243EA032343F4AE
:102B50007F0197F8B430F9660546C10006FB03F320
:102B6000786EB3FBF0F31FFA83FC97F8B330786EFE
:102B7000C7F8ACC002EBD272013906FB03F3B3FB1A
:102B8000F0F398B2012303FA01F15210237A786727
:102B90009140B966582B6168C7F884100DD8627AE5
:102BA000572A0AD9C3F15803D7F89820DBB205FB9E
:102BB00003F302FB0313C7F88430D7F89820002AE8
:102BC00000F04B817B6F013B9BB23B67D7F8AC3089
:102BD000013B9BB2C7F8A83012FB02F30021C7F8F3
:102BE000A4307B6EF967C7E9241102FB03F0531E82
:102BF0008346C7F88830B967B246C7F88010704678
:102C0000D7F88C30012B00F0B180022B00F0E1806E
:102C1000032B00F0E480042B04D1D7F884301B6828
:102C2000C7F89430D7E91D32D7F88410D7F88C4014
:102C30001A442144FB6FC7F88410396F5344FB6773
:102C4000B3FBFBF3CE18BB67D7F88810D7F89030EA
:102C50008B4292B2B6B259D0002B00F08D80D7F8DB
:102C600080304FF00008C3EB03294446454622E07C
:102C7000D7F888108C4223D0B96E0B42FB6E08BF88
:102C8000FF230193D7F8AC3000965919D7F8A83034
:102C9000D044B8FBFBF52B44C7E927209BB289B28F
:102CA00001F0BCFBD7F898300134A342D7E92720C4
:102CB00009F1FF090ED0D7F89430A340002CD7D1EA
:102CC000D7F8A430B9FBF3F3DBB243F47F0343F44A
:102CD0007F43D6E71A46D7F880301344C7F88030D0
:102CE000D7F89030D7F8982001339A42C7F890303F
:102CF00086D13A6E4FF601639A425646864600F0F8
:102D0000AC8002F2FD233B661D4609E7002B77D01D
:102D1000D7F88010D7F898304FF000080B44C7F868
:102D20008030C1EB0125C3EB03294446D7F8AC3012
:102D300000961919D7F8A430B5FBF3F3DBB243F4CE
:102D40007F0343F47F430193D7F8A830D044B8FB06
:102D5000FBF42344C7E9272089B2FF359BB201F079
:102D60005DFBA945D7E92720E0D1B9E7D7F8843042
:102D70001B78C7F8943055E7D7F880101C46D7F871
:102D800098300B44C7F88030C1EB0125C3EB032911
:102D9000A046D7F8AC3000961919D7F8A430B5FB87
:102DA000F3F3DBB243F47F0343F47F430193D7F89B
:102DB000A830D044B8FBFBF42344C7E9272089B2EC
:102DC000FF359BB201F02AFBA945D7E92720E0D1C6
:102DD00086E7D7F884301B88C7F8943022E7D7F805
:102DE00084201378B2F8012003EB1223C7F8943043
:102DF00018E700BFF80000200400002081808080D8
:102E0000D7F880101C46D7F898300B44C7F88030AC
:102E1000C1EB0125C3EB0329A046D7F8AC300096DF
:102E20001919D7F8A430B5FBF3F3DBB243F47F03F1
:102E300043F47F430193D7F8A830D044B8FBFBF4A8
:102E40002344C7E9272089B2FF359BB201F0E6FA97
:102E5000A945D7E92720E0D142E7D7F824A0F346D7
:102E600007E65346DA469B4608F0D6FEC1480021E5
:102E700008F052FE97F8B560002E51D097F8B64092
:102E8000002C00F08380012E02D1012C00F0B983C8
:102E9000BAF80640BAF80430D7F828809C4228BF18
:102EA0001C46BB6D002504FB03F6A9467A6E98F814
:102EB0000010CDE90042BB6D5046A8EB030896FB1D
:102EC000F2F3B5FBF2F29BB292B2FEF7D1F8BA6D13
:102ED0004A45A6EB0406254409F10109E6DC3D6CF0
:102EE0002846FDF748FDA4493C6B4A780B78A4EBD3
:102EF00052027C6D00FB1340A04CFF23CDE900146F
:102F0000C0F34F010020CDE9023092B250462B466B
:102F100001F024FD42F2080002F086F8FFF794B9B0
:102F200097F8B650002DDAD0BAF80630BAF8048017
:102F30007A6E984528BF98466B1EC7F8AC3008FBE0
:102F400003F3B3FBF2F39AB2FB6D03EB05095B46A7
:102F50003446AB461D46786ED7F8AC10A9EB0B0390
:102F60008144595CB6FBF0F3CDE900809BB2C7F811
:102F7000A8205046FEF77CF8BA6DA2424644D7F826
:102F8000A82004F10104E6DCAB46A8E7BAF8063055
:102F9000BAF804507A6E9D4206F1FF3628BF1D46EE
:102FA00002FB06F305FB06F6B6FBF2F9FA6D6FEAD3
:102FB00003081FFA89F9D618A8EB02087B6E16F8E9
:102FC000011BB4FBF3F2CDE9005392B24B465046DD
:102FD000FEF74EF8BB6D08EB060293422C44EDDC85
:102FE0007DE7032B0CBF03230123BB63FFF708B965
:102FF0000123BB63FFF704B91A46D7F880301344A6
:10300000C7F88030D7F88830D7F8982001339A4233
:10301000C7F888307FF490AB594BFA6E9A4200F0B3
:10302000B180A2F18403FB661C46FFF717BB0029A1
:1030300073D0D7F88010D7F898304FF000080B44C1
:10304000C7F88030C1EB0125C3EB03294446D7F80C
:10305000AC3000961919D7F8A430B5FBF3F3DBB206
:1030600043F47F0343F47F430193D7F8A830D0445F
:10307000B8FBFBF42344C7E9272089B2FF359BB294
:1030800001F0CCF94D45D7E92720E0D1BAE7D7F8D0
:1030900084301B78C7F89430FFF760BBD7F88010F6
:1030A0001C46D7F898300B44C7F88030C1EB012597
:1030B000C3EB0329A046D7F8AC3000961919D7F80E
:1030C000A430B5FBF3F3DBB243F47F0343F47F4357
:1030D0000193D7F8A830D044B8FBFBF42344C7E9E8
:1030E000272089B2FF359BB201F098F94D45D7E909
:1030F0002720E0D186E7D7F884301B88C7F89430C2
:10310000FFF72CBBD7F884201378B2F8012003EB2B
:103110001223C7F89430FFF721BB0C46D7F898303C
:10312000D7F880100B44C7F88030C1EB0125C3EB02
:103130000329A046D7F8AC3000961919D7F8A43067
:10314000B5FBF3F3DBB243F47F0343F47F43019316
:10315000D7F8A830D044B8FBFBF42344C7E92720B4
:1031600089B2FF359BB201F059F94D45D7E92720C7
:10317000E0D147E7D40000200400002000FFFF005A
:103180002CD4FFFFBC6DD7F818A0796E7E6BC7F802
:1031900084A0A21C0123C7F8A420FA6DC7F88830C8
:1031A0004FF000098346C7F88C30E34307EE90BA2E
:1031B000F868D7F82880FD6C87F8B69087F8B59046
:1031C0009446C7F89890C7F8A090C7F89410C7F82D
:1031D0009C10C7F8A890C7F89030C7F8AC60CB46F1
:1031E000CA460DE1002B00F059810C4600234FF038
:1031F000010992F801E0BEF1020F06D0BEF1000F06
:1032000040F06281013C4FF0010992F802E0BEF10A
:10321000020F00F0FE80BEF1000F40F05D81032937
:1032200004F1FF3418BF4FF0010900F05D8192F8FE
:1032300003E0BEF1020F00F06281BEF1000F40F02A
:103240005C81013C042D18BF4FF0010900F04C8156
:1032500092F804E0BEF1020F00F05981BEF1000FB8
:1032600040F08B81013C052D18BF4FF0010900F0A3
:103270003B8192F805E0BEF1020F00F05081BEF1F3
:10328000000F40F08081013C072D08BF4FF001097D
:1032900040F02A8192F806E0BEF1020F00F0BC80F7
:1032A000BEF1000F00F07181DE46D7F8AC4014F893
:1032B000013FC7F8AC40022B00F0EB80002B00F080
:1032C000F1800B4600244FF00109D7F8AC6016F8E6
:1032D00001B0BBF1020F06D0BBF1000F40F0F88047
:1032E000013B4FF00109D7F8AC6006F1020BBE6D4F
:1032F0001BF816B0BBF1020F00F0A980BBF1000F64
:1033000040F0F980013B032918BF4FF0010900F09C
:10331000B880D7F8906010F806B0BBF1020F00F04B
:103320000D81BBF1000F40F00781013B042D18BF58
:103330004FF0010900F0A58090F800B0BBF1020F3A
:1033400000F00481BBF1000F40F01981013B052D15
:1033500018BF4FF0010900F0948010F801B0BBF1E4
:10336000020F00F0FB80BBF1000F40F00A81013B2F
:10337000072D08BF4FF0010940F08380BE6D00F1BA
:10338000020B1BF816B0BBF1020F63D0BBF1000FAC
:103390007CD1013B04FB03F39E45B8BF9E465FFA18
:1033A0008EFB9CF80030022B0AD0002B40F0858069
:1033B000D7F89C30013BC7F89C300123C7F8A030F8
:1033C00098F80030022B09D0002B6FD1D7F8943039
:1033D000013BC7F894300123C7F89830BB6DA8EBC8
:1033E0000308D7F8A4300AF1010A9C445FFA8AF373
:1033F0009D420A4400F10100C7F8A83040F2CD8098
:103400001378022B7FF4EEAE0C464FF00009012337
:10341000EFE603297FF40BAF03FB04FEDE45B8BFE4
:10342000DE46B9F1000F7FF440AFD7F8A830D7F8E7
:1034300084B087F8B7E0013317EE90AA87F8B5306B
:10344000BB6C0A33BB6407F1E4033B640CE503295E
:103450007FF45FAF04FB03F39E45B8BF9E465FFA5F
:103460008EFBB9F1000F9CD1D7F8A830D9460133B3
:1034700017EE90AAD7F884B087F8B79087F8B630DF
:10348000DEE704FB03F39E45B8BF9E465FFA8EFB62
:1034900087E70B464FF00009012416E70123BC6DB6
:1034A0009946A6E60124BB6DA1460EE70023C7F8A6
:1034B00088300123C7F8983090E70023C7F88C3094
:1034C0000123C7F8A0307BE700234FF001099CE6F9
:1034D00000244FF0010906E703294FF0000318BF4D
:1034E0004FF001097FF4A3AE04FB03F35B45B8BFC3
:1034F0005B469E46D9E6002405E70023A2E6042D9C
:103500008AD092F804E0BEF1020F7FF4A7AE052D39
:1035100082D092F805E0BEF1020F7FF4B0AE072D25
:103520003FF4B8AE03FB04FEDE45B8BFDE46B9F19A
:10353000000F7FF4BAAE78E70024F7E6042D89D0B7
:1035400090F800B0BBF1020F7FF4FCAE052D81D0E6
:1035500010F801B0BBF1020F7FF405AF072D3FF467
:103560000DAF04FB03F39E45B8BF9E465FFA8EFB8A
:10357000B9F1000F7FF415AF76E7002373E600245E
:10358000E5E60024F4E600237EE6013C03FB04F4B8
:103590005C45B8BF5C46A64687E6D7F89C20D7F8BE
:1035A0008C30D7F89410D7F884A002FB03F3D7F837
:1035B000882001FB02F29342B8BF13469E45B8BF74
:1035C0009E46D7F8A03087F8B7E017EE90BA73B1EF
:1035D000D7F89830002B7EF4A4AF53469B460223C5
:1035E00017EE90AA87F8B63087F8B53028E753462B
:1035F0009B46012317EE90AA87F8B63087F8B530BE
:103600001EE7BAF80630BAF80460D7F82C909E424C
:1036100028BF1E46BB6D002503F102082C467B6EB9
:1036200099F80010CDE90063B5FBF3F39BB21A469D
:103630005046FDF71DFDBA6DA242C144354404F168
:103640000104ECDC4BE400BF2C4A136823F00703B1
:1036500043F0020310B51360136803F00703022B55
:10366000FAD12749274B0A6822F4404242F400422B
:103670000A601A6842F480321A601A689203FCD514
:103680001A68214942F400221A6058681F4A014012
:103690000A435A6059681B4A21F44031596019683D
:1036A00041F08071196013689B01FCD59368154C3B
:1036B00023F0F0039360936823F4E05343F48053C2
:1036C0009360936823F460439360936823F003034B
:1036D00043F002039360A36803F00C03082BFAD1B4
:1036E0000B4801F091FC0A4801F0B0FCD4F88C3092
:1036F00023F08073C4F88C3010BD00BF003C024042
:1037000000700040003802400080BFFF192A4000CE
:1037100000BD0105000000002DE9F04FBC4ABD4B83
:10372000116841F400712DED028B1160116841F4B4
:1037300080611160116841F480711160596CB64A62
:1037400041F480415964596CADF29C7D01F4804193
:1037500012911299186C40F0805018641B6C03F0A1
:1037600080531193119BD168AC4B4FF6FF0421405D
:103770000B43D360D268A84CC2F30222C2F1070106
:10378000131D042928BF0421062B4FF0FF3303FA31
:1037900001F38CBF033A0022DB4393401B01DBB2F1
:1037A00084F82330FFF750FF9D4B9E4A1B68A2FB15
:1037B00003239B09013BB3F1807F09D24FF0E02244
:1037C000F02053610021072384F8230091611361E5
:1037D0000025CDE93055CDE955558E4A5795136BE7
:1037E000914E924843F080031363136B03F0800300
:1037F0001993199B136B43F001031363136B03F0CD
:1038000001031A931A9B136B43F002031363136BA8
:1038100003F002031B931B9B02271C23836152A905
:10382000B7611C220123CDE95223549701F064F9BA
:1038300002220123CDE9522352A90222002330465D
:10384000CDE95423569501F057F979490F238A6839
:1038500093FAA3F30124B3FA83F322F00F0204FADC
:1038600003F313438B6030A88DF8C6703094ADF825
:10387000C44001F0E1F8F16894FAA4F2B2FA82F2DD
:1038800094FAA4F30320A240B3FA83F3A34000FA0E
:1038900002F221EA020204FA03F31343F3603268EE
:1038A00094FAA4F3B3FA83F3A34000FA03F322EAF1
:1038B000030394FAA4F43360574BDFF87081DB689C
:1038C000DFF87CB15B4FC3F30223C3F10702042A84
:1038D00003F1040128BF0422062988BFDD1E4FF032
:1038E000FF339340DB4303F00403AB405249494AA2
:1038F000484D1B01DBB2402081F806330860136B92
:1039000043F480031363136B03F480031893424B57
:10391000189ADA68C2F30222C2F10701131D0429C2
:1039200028BF0421062B4FF0FF3303FA01F36FEA9F
:1039300003038CBF033A002203F0030393401B01EF
:103940003D4ADBB24FF00061002682F83B3352A8BB
:1039500051602822002109F01FFCCDE933666B6C11
:1039600043F480536B646B6C03F480531593159B85
:103970002B6B43F001032B632B6B03F001031693B6
:10398000169B2B6B43F002032B632B6B03F002039C
:103990001793179B052335934CF250334FF0030ACE
:1039A000A02230A940460F930223CDE93023CDF861
:1039B000C8A001F0A1F810220223CDE93023032290
:1039C0000023CDE9322330A9002205231648CDE992
:1039D000342301F091F8194B9A6D22F0606242F0A5
:1039E000C0629A659A6D22F0C00242F040029A6568
:1039F0009A6D22F440329A659A6D22F490729A651B
:103A00009A6D22F400729A659A6D42F4806219E010
:103A1000003C02400038024000ED00E00003FA05DF
:103A200000000020D34D621000040240000002405C
:103A3000003801400004004000E100E00064024062
:103A4000003001409A659A6D22F4C05242F400623F
:103A50009A659A6D22F4C04242F400529A65DA6E79
:103A600022F00402DA6600224FF48273CDE9522379
:103A70009FED798B4FF400620023CDE9542300229F
:103A80004FF40073CDE9562352A900220A23584669
:103A9000CDE95A238DED588B01F006F9DBF804309F
:103AA00026AC23F01003CBF804302022C4E90066D2
:103AB000C4E902662661314652A809F06DFBCDE9E2
:103AC0003066CDE93266CDE934662B6CDFF8C0B1E3
:103AD00043F002032B642B6C03F002031393139B3C
:103AE00040F2E73323808B232146A360384601F060
:103AF00063F93B684FF0804923F080033B60D9F8BD
:103B000018349FED577B43F00803C9F818348DED46
:103B1000527B9FED557B52AA012138468DED547B97
:103B2000569601F095F9D9F8183423F00403C9F832
:103B300018347B68DFF85C9123F070037B60BB680E
:103B400023F08003BB602B6B43F001032B632B6BD3
:103B500003F001031493149B40220223CDE9302388
:103B600030A9002202234046CDE934238DED328B6B
:103B700000F0C2FF08F00CFA43A1D1E900010822CD
:103B800022823B4BC4F81480042222831022C4E911
:103B9000000122840FCB0DF1700C0DF1240E8CE886
:103BA0000F00C4E902A8C4F81C80DFF8ECA0DFF81D
:103BB000EC808EE80F004FF49B760227CDE9016779
:103BC000F025CDE905ABCDE903892A460095294DBD
:103BD00007940897334652A9286800F0CBFA0646A6
:103BE000286000F0C7FB6FF07F41304600F022FDF7
:103BF0000F9C0121204609F065FA50B309F09CFAA8
:103C000004214FF4586009F05DFA1B4A1B4D1C4912
:103C10004FF4106302930123CDE9003010604AF69F
:103C200044430522174808F091FA0FCD20AC0FC489
:103C300095E8030020AA84E80300142130A809F0C5
:103C400081F8314630A808F071FB30A93046FDF705
:103C5000F7FE013CD4D0CCE70000000000000000DB
:103C6000600000000000000000000000680000008C
:103C7000D4E30008980100209C010020E4E3000840
:103C800000600240003C00400030014000640240FF
:103C9000314A0008054A0008294A0008C9490008B5
:103CA000FEE700BFFEE700BFFEE700BFFEE700BF84
:103CB000FEE700BF704700BF704700BF704700BFFE
:103CC00008B5044B186809F0FBF8034A1368013380
:103CD000136008BDA401002090010020054B5A6923
:103CE000D20700D47047044A01211068596108F0D6
:103CF000ABBF00BF003C0140A401002001480321EC
:103D000000F0A8B80064024008B5094B58685B6829
:103D10001B055ABF80F4806040F38020012007F02B
:103D2000C7FF034B4FF47C62DA60BFF34F8F08BDCF
:103D3000006002400120704708B509F0CBF9162356
:103D400003604FF0FF3008BD08B509F0C3F9162332
:103D50000360FEE770B5161E07DD0C468D19AFF344
:103D6000008004F8010BA542F9D1304670BD00BFB8
:103D700070B5161E07DD0C468D1914F8010BAFF354
:103D80000080AC42F9D1304670BD00BF4FF0FF302B
:103D9000704700BF4FF400534B600020704700BFD6
:103DA000012070470020704710B50C4C0C4B0D499A
:103DB0002268591A2AB11044884207D82060104658
:103DC00010BD094A226010448842F7D909F082F9EF
:103DD0000C234FF0FF320360104610BD9401002009
:103DE0000000012000040000B8010020034AD2F8BE
:103DF000883043F47003C2F88830704700ED00E06B
:103E0000DFF834D00D480E490E4A002302E0D458A2
:103E1000C4500433C4188C42F9D30B4A0B4C002312
:103E200001E013600432A242FBD3FFF7DFFF09F089
:103E300057F9FFF771FC70470000012000000020D7
:103E4000740100201CCC030874010020B80100207C
:103E5000FEE7000010B53D4B84468E4693E8030014
:103E600082B002AB03E903000EF108026A44BEF11E
:103E7000030F12F8082C4FF03F0303FA02F388BF38
:103E80000CF10C01324A98BF0CF108010B60136869
:103E900033B19A6A944505D0D3F84C36002BF8D14B
:103EA00002B010BDDA6A9645F6D11A6C22B1526999
:103EB000B3F844101142EFD1264A12F80E005CF814
:103EC000002022F001024CF800205CF80020D2070C
:103ED0000CEB000103D500BF0A68D407FBD4D3F86C
:103EE0003C26D2B95A6A516821F0020151609168AA
:103EF000080604D500BF5A6A91680906FAD493F8F7
:103F0000411621B9196C11B1B3F844308B611368B3
:103F100023F04003136002B010BDB2F5803F0BD216
:103F20004A600022C3F83C265CF8003043F00103ED
:103F30004CF8003002B010BDA2F57F42FF3A4FF6B8
:103F4000FF744C60C3F83C26EEE700BFFCE30008BA
:103F50009801002040E50008F8B5456A2B685B062B
:103F600004461ED4226C1AB1B4F844301B04936189
:103F70002B6823F42C432B602B6843F040032B6009
:103F80000B78012B13D0022B69D0002B31D0236C7E
:103F900013B1B4F844209A612B6823F040032B60DE
:103FA000F8BD00BF636A1B685F06DBD5F9E74E7892
:103FB00001F1020E002E58D070460EEB060C636A1B
:103FC000A76B10F8012BA18FB961DA609A68970787
:103FD00007D400BF9A689107FBD59A68120603D5EB
:103FE00000BF9A681206FBD46045E8D10EEB0601CB
:103FF000C6E7A28F636AA66B48781204B261D860E4
:104000009A68960707D400BF9A689007FBD59A680C
:10401000120603D500BF9A681206FBD48E7801F110
:10402000030E16B370460EEB060C636AA76B10F80E
:10403000012BA18FB961DA609A68970707D400BF96
:104040009A689107FBD59A68120603D500BF9A6853
:104050001206FBD46045E8D10EEB060190E74878E4
:104060008E1C00F0E1FF31468AE7714688E700BF09
:1040700070B504464089A589A66901442A4488B2DE
:1040800092B21D46114613460246B04701462046ED
:10409000FFF762FF364994F84800C5F3C40201EA0D
:1040A00015216B090A4303F4FC631A43012892B2F9
:1040B00001D152BA92B2636A19684E063ED494F89E
:1040C000411629B9256C1DB1B4F844100904A96141
:1040D00094F8421611B9A16BA58F8D611968022859
:1040E00021F42C41196031D01868D1B240F0400061
:1040F0001860D9609968890703D400BF9968890757
:10410000FBD5120ADA609A68920707D400BF9A6852
:104110009607FBD59A68100603D500BF9A6810066B
:10412000FBD494F8412622B9226C12B1B4F84410A1
:1041300091611A6822F040021A6070BD00BF616A86
:1041400009684D06FAD494F84800B8E7196841F4B4
:1041500000611960196841F040011960DA609A68DD
:104160009007DBD400BF9A689507FBD5D6E700BF60
:1041700000F8FFFF2DE9F84F0C46BDF828A0BDF868
:104180002C909DF830809DF848B0002900F0DA802E
:1041900000210546164620464FF4CA621F4608F025
:1041A000FBFFDDF844C084F848B0BCE80F0004F120
:1041B000240EAEE80F00BCE80F00AEE80F00DCF8FC
:1041C0000030CEF80030A36A002B3CD0E26A684988
:1041D000895C5A5822F001025A505A58D20703EB10
:1041E000010005D500BF0268D207FBD494F848B09F
:1041F000BBF1010F0BD0BBF1020F0ED15A5822F4C4
:10420000F0425A505A5842F420525A5005E05A5837
:1042100022F4F0425A505A585A505A5822F48022E6
:1042200022F00E025A50426922F0800242615A582E
:1042300042F010025A505A5822F400725A505A58FA
:1042400042F480625A50B742394638BF3146BE42C6
:1042500028BF3E46B8F1000F43D1A680E180A4F804
:1042600000A0A4F80290C4F80A80564554D84945E5
:1042700052D80D9B002B4FD00E9B002B4CD00D9A8B
:1042800062610E9AA2610F9AE26113AB109A2262E8
:104290000FCB4FF0000C04F14C0604F1600784F8DA
:1042A000088086E80F0084F840C6C4F84CC6C4F8FD
:1042B00048C6E765002D45D0D5F84C3653B10122EC
:1042C0001D46D3F84C36511C1046CAB2002BF7D10C
:1042D00084F84006C4F848562046C5F84C46BDE868
:1042E000F88FB8F1020F20D0B8F1010F2DD0B8F13E
:1042F000030F11D15346A9EB01003246A4F80090F8
:10430000A4F802A0CA4699460023A180E6806081F5
:104310000E46A3811146A8E74FF4CA620021204649
:1043200008F03AFF0020BDE8F88FAAEB060363818E
:10433000A9EB0103A680E180A4F800A0A4F80290F4
:10434000A38192E72046BDE8F88FAAEB0603A3817C
:1043500053463246A4F80090A4F802A0CA469946F3
:104360000023A180E68063810E4611467DE700BFF1
:1043700040E50008036B10B504465BB1828E120461
:104380009A61192000F050FE236BA28E9A611920C9
:1043900000F04AFE6369207A984701462046FFF7FD
:1043A000DBFD94F85A10E26C64290B4628BF6423A5
:1043B00084F85A300AB3D16A174801FB03F3216D20
:1043C000A0FB0303B1F5807F4FEA531322D00FD82F
:1043D00001291AD0102908BF93631368DB0706D49C
:1043E000136A19431162136843F00103136010BD8F
:1043F000B1F5805FF1D11364EFE7636D002BF6D068
:10440000B4F8582019B19A6110BD5363E5E712045E
:104410009A61F9E7D363E0E71F85EB51F0B59C465D
:1044200083B06145BDF82030099E8E46044601D90F
:10443000E6468C469A4202D911461A460B46A18896
:10444000714540F29680E088904240F2928061454A
:104450009CBF01F1FF311FFA81FC98429CBF00F123
:10446000FF3083B2A1896089A7699D1A0B4411446A
:104470000CEB000270449BB2ACEB0E0C89B292B212
:10448000013580B20CFB0555B84701462046FFF7C1
:1044900063FD94F841362BB9226C1AB1B4F844305C
:1044A0001B04936194F8423613B9A36BA28F9A61EF
:1044B0005D4B94F8482003EA1623C6F3C40176093D
:1044C000194306F4FC663143012A636A89B200F09D
:1044D00082801868A4F8441620F42C401860022A40
:1044E0001A6848D142F400621A601A6842F0400229
:1044F0001A60A26A002A00F08980E66A4B484C499B
:1045000010F806C003C902AF07E9030006F108016D
:10451000032E0DEB0106944416F8080C8CBF0C32E8
:1045200008323F21814011605A6842F002025A600D
:104530000C33CCF8083004F24463CCF80C30DCF8CF
:10454000003023F40073CCF80030DCF80030B5F50F
:10455000803F23F48063CCF800304DD20023CCF8A8
:104560000450C4F83C36DCF8003043F00103CCF8CA
:10457000003003B0F0BD42F040021A60A26A002A87
:10458000BBD1C8B2090AADB1D8609A68960703D406
:1045900000BF9A689707FBD5D9609A68920703D441
:1045A00000BF9A689607FBD5013DEDD19A681206C7
:1045B00003D500BF9A681206FBD494F8412622B9AD
:1045C000226C12B1B4F8441091611A6822F04002D2
:1045D0001A6003B0F0BD1A6849BA22F42C42A4F85C
:1045E00044161A601A6842F040021A60A26A89B240
:1045F000002AC6D06D0080E7A5F57F454FF6FF7312
:10460000FF3DCCF80430C4F83C56ACE7002DD1D0C7
:10461000D9609A68920703D400BF9A689707FBD5C0
:10462000013DF5D1C6E700BF00F8FFFF40E50008F7
:10463000FCE3000810B5C4888388013C82B00022E6
:10464000A4B2013BCDE900419BB21146FFF7E6FE63
:1046500002B010BD30B49942BDF908C0039D02DD1F
:104660000C4619462346624502DD14466246A446BE
:10467000002B08DB84888C4205DDBCF1000F02DBD7
:10468000C488944201DC30BC70471FFA8CF422EAE3
:10469000E27221EAE171039502949BB230BC92B2BE
:1046A00089B2FFF7BBBE00BF2DE9F04F85B094463D
:1046B0000191A94A0F990E9F02EA1122C1F3C40A7F
:1046C0004AEA020A06464A0990F848009DF8441052
:1046D0007C6802F4FC624AEA020A0128109A1FFA76
:1046E0008AFA03D19AFA9AFA1FFA8AFA9A4DC2F311
:1046F000C40905EA1225520949EA050902F4FC62D7
:1047000049EA020201281FFA82F903D199FA99F9BC
:104710001FFA89F93A7A9A4202D8787A984279D27D
:10472000002238787B7800F1FF384FEAE80808F17A
:10473000010802FB08F203FB024B4FEAC802013AF0
:10474000012505FA02F20292002966D0002B54D00E
:104750004FF0000AB8F1010F014615463046E14618
:1047600056460E9744D0B8F1020F49D0B8F1030F66
:1047700049D0B8F1040F08BFDBF800A0C3440029FA
:104780003BD00FFA89F2002A28DB019C002703E0C6
:1047900001348F42A4B21FDA0AFA07F32B4207F161
:1047A0000107F5D083880FFA84FC6345F0DDB0F88B
:1047B00006E00F9B9645EBDDBCF1000FE8DB6146A0
:1047C000CDE90202FFF754FC0E9B197801348F42A9
:1047D000DDE90202A4B2DFDB0E9B5B7801369E426C
:1047E0000BDA09F10109B8F1010F1FFA89F9BAD101
:1047F0009BF800A0C3440029C3D105B0BDE8F08FE9
:10480000BBF800A0BAE79BF800A0BBF801200AEBB8
:10481000122AB3E79B1ADAB283E7B189019D748942
:104820000CF1FF320A4413446A1E22440244284613
:104830006144204492B29BB289B2B569746A80B275
:10484000A84701463046FFF787FB326C1AB1B6F82D
:1048500044301B049361B36BB28F9A61236823F0D9
:1048600040032360236823F42C43236096F84830E8
:10487000022B03D1236843F400632360236843F0D1
:10488000400323607B78002B36D00020B8F1010F65
:104890003B78029D84462BD0B8F1020F52D0B8F17C
:1048A000030F52D0B8F1040F08BFDBF80000C34477
:1048B00013B3002200FA02F1A368294214BF514643
:1048C00049469B0703D400BFA3689B07FBD596F816
:1048D0004830022B28D1E1603B7801329342E9DC79
:1048E0007A780CF1010C624506DDB8F1010FD3D1E5
:1048F0009BF80000DBE700BFA3689A07FBD5A3681D
:104900001B0603D500BFA3681B06FBD42368326CCB
:1049100023F040032360002A3FF46FAFB6F8443021
:10492000936105B0BDE8F08FC1F30F2EC9B2E1600D
:10493000A3689B0703D400BFA3689907FBD5C4F8FD
:104940000CE0C9E7BBF80000B1E79BF80000BBF83A
:10495000012000EB1220AAE700F8FFFF2DE9F04F3D
:104960001F4685B01B780E9E9DF844A0DDE90F8997
:1049700005460C46934603B396F800C0AA88A444A3
:104980009445284609DD7178EC888B441FFA8BFB2F
:104990005944A1424FF000040FDC2146CDE9029AB0
:1049A000CDE900685A46FFF77FFE96F800C017F879
:1049B000013F6444A4B2002BE0D1EC81A5F810B013
:1049C00005B0BDE8F08F00BF58B102280ED0012815
:1049D00011D003280A4814BF0023F82380F841307F
:1049E00070470748482380F84130704704489C23AB
:1049F00080F84130704702482C2380F841307047DE
:104A00001C00002010B4074C49BA618120715BBAC8
:104A1000000A110AE07061712046A271A3815DF85D
:104A2000044B7047B000002000487047C4000020CD
:104A300000487047CC00002010B403460079A8B1AC
:104A4000186880B15A79012A2FD0022A1BD01AB3D4
:104A500001229B79002B3AD0022B30D0032B44D07B
:104A6000012B38D001205DF8044B7047214A1C68A7
:104A7000116821EA04011160536823EA04035360BA
:104A80005DF8044B70471B490C6804430C604C688C
:104A9000044300224C60DCE716494C6824EA000419
:104AA0004C600C6804430C60D3E712490C6824EA9C
:104AB00000040C604C68044300224C60C9E70D4BB5
:104AC000996821EA00019960D9680843D8601046C6
:104AD0005DF8044B7047074BD96821EA0001D960A3
:104AE0009968084398601046BDE7024B99680143F6
:104AF000E9E700BF003C01402DE9F0470C6894FA5B
:104B0000A4F2B2FA82F234FA02F37DD04FF0010E31
:104B10004FF0030C4FF00F0A17E0D0F8008093FA23
:104B2000A3F7B7FA87F793FAA3F3B3FA83F37F00F7
:104B30000CFA07F75B0028EA070705FA03F33B4383
:104B40000360013234FA02F35ED00EFA02F323401E
:104B5000F7D04D686F1E012F1FD8D0F8088093FA48
:104B6000A3F7B7FA87F793FAA3F98E68B9FA89F928
:104B70007F000CFA07F74FEA490928EA070706FA07
:104B800009F947EA090787604768CE6827EA0307FB
:104B900006FB03F847EA08074760D0F80C8093FA51
:104BA000A3F7B7FA87F793FAA3F90E69B9FA89F967
:104BB0007F000CFA07F74FEA490928EA070706FAC7
:104BC00009F947EA0907022DC760A6D193FAA3F7AE
:104BD000B7FA87F7072F1ADCD0F8208093FAA3F7EB
:104BE000B7FA87F793FAA3F94E69B9FA89F9BF00C2
:104BF0000AFA07F74FEA890928EA070706FA09F9C6
:104C000047EA0907076288E70020BDE8F087D0F887
:104C100024901F0A97FAA7F8B8FA88F897FAA7F726
:104C20004E69B7FA87F74FEA88080AFA08F8BF0012
:104C300029EA080806FA07F748EA070747626CE717
:104C4000B0F5000F01D000207047134A93681B0293
:104C500020D4106810F000601BD051680F4B10B4C6
:104C60005468D2F88400D2F8842011F4800FC0F385
:104C7000881104F03F0C0A485DF8044BC2F302723D
:104C800018BF1846B0FBFCF001FB00F0B0FBF2F0DF
:104C900070477047034870470038024040787D01F4
:104CA0000024F4000080BB000246006810F04000C1
:104CB00028D1136830B423F47F4CD1E900352B435D
:104CC0008D684C692B43CD682B430D692B438D694F
:104CD00023432B43CD692B430D6A2CF0BF0C2B4390
:104CE00043EA0C031360536823F0040343EA1443BC
:104CF000B5F5005F53600BD0D36923F4006330BC7B
:104D0000D3617047D36923F400630120D3617047F6
:104D10008B8C1361F0E700BFC3695B053AD470B5B3
:104D20000D460446C1692B68D5E9012021F43361A1
:104D30001A4321F00F016B690A4302431A432B699E
:104D400042F40062022BE26126D000284FF40000FA
:104D50000CBF20264026FFF773FFEA68B2F5007FFC
:104D60001FD0B0FBF6F303EB830329695B00B3FBB1
:104D7000F1F305330F49A1FB03131909881EFD2820
:104D8000C3F3C00394BF41EA032302231343236206
:104D9000002070BD01207047EA68134323620020A1
:104DA00070BD000A00EB80035B002869B3FBF0F3E1
:104DB0000533DFE7CDCCCCCC244A0368904230B435
:104DC00034D0B0F1804F1DD0A2F57C42904219D072
:104DD00002F58062904215D002F58062904211D0B7
:104DE00002F59A32904211D002F5806290420DD0C5
:104DF00002F58062904209D08C680A880360C46220
:104E000082620CE04A6823F070031343CD688C681B
:104E10000A8823F440732B430360C46282624369AF
:104E200043F00103436130BC002070474C68CA68FE
:104E300023F07003234323F44073134303608A6811
:104E40000B88C26283620B690363E8E700000140DC
:104E5000B1F5807F30B470D026D801294ED010290A
:104E600048D1036A156923F010030362036A44689A
:104E7000816923F0200343EA0513156821F4E64114
:104E800041EA0521556823F0100343EA05135D4DFF
:104E9000A84200F09C80D56844600022816185634F
:104EA000036230BC10467047B1F5805F22D1036ABF
:104EB000156923F480530362036A4468C16923F4CB
:104EC000005343EA0533156821F4E64141EA052120
:104ED000556823F4805343EA05334A4DA84200F055
:104EE0008B80D56844600022C1610564036230BCD8
:104EF000104670470122104630BC7047036A15699E
:104F000023F001030362036A4468816923F002030A
:104F10002B43156821F073012943556823F00103E1
:104F20002B43384DA8423ED0D568446000228161B1
:104F30004563036230BC10467047036A156923F469
:104F400080730362036A4468C16923F4007343EA0F
:104F50000523156821F073012943556823F48073F4
:104F600043EA0523274DA84208D0D56844600022B3
:104F7000C161C563036230BC10467047556923F4B4
:104F8000006343EA8523956924F4805444EA0514B8
:104F9000956823F4806343EA8523D56924F400549B
:104FA00044EA4514E1E7556923F0080343EA850321
:104FB000956924F480742C43956823F0040343EA34
:104FC0008503D56924F4007444EA4504ACE75569C7
:104FD00023F0800343EA8513956924F4806444EA4E
:104FE0008504956823F0400343EA8513D56924F4CA
:104FF000006444EAC5044EE7956924F4804444EA19
:1050000085146EE700000140064BA3FB00304FF013
:10501000E0228309013B0020052153619061116169
:10502000704700BFD34D62104FF0E02382B01B6980
:105030000193421C019B18BF01304FF0E02213691D
:10504000DB03FCD50138FAD102B07047014B186080
:10505000704700BF000000200023C0E90023C0E922
:1050600002317047426801F01F01F0B4C1F11F0323
:10507000846822FA03F38A404260621A002A4FEAE7
:105080005303826002DB1846F0BC7047C568032DED
:10509000A1EB04012CDC00244460002D47D00668FD
:1050A000741C04603478012D4FEA042444600CD051
:1050B000B71C076077783C432402022D446004D07B
:1050C000F71C0760B67834432402C5F10306F600E6
:1050D000B44002F1200604FA01F1F4402343002415
:1050E00002EBC502C460C0E90112F0BC184670476B
:1050F00006683746741C046017F8024B07602406E4
:105100004460777844EA0744F71C44600760B77846
:1051100044EA0724371D44600760F67820323443A0
:10512000043D04FA01F1D440C5602343DBE729467E
:10513000D5E700BF10B404688368611AC3EBC103EC
:10514000981A5DF8044B704730B1036823B1586971
:10515000003818BF012070474FF0FF30704700BF84
:10516000002800F0C9800368002B00F0C5800A7891
:10517000FF2A40F0C1804A782DE9F04F02F0E004A8
:10518000E02C40F0B6804FEAD20C12F0180F1ABF94
:105190006FEA0C0C0CF0010C4FF0020C83F800C00D
:1051A00091F801E0CEF3410ECEF10409C3F804906A
:1051B0004D78ED4305F001059D608A781709DF60A1
:1051C0008A78C2F381021A618E78C6F340065E6166
:1051D0008C7804F001049C6191F803804FEA9818E0
:1051E00083F81C80CC78C4F301141C62CC78C4F31F
:1051F000C0045C62CC78C4F380049C62CC78032A3F
:1052000004F00304DC6274D0B9F1040F71D00F2FE5
:105210006FD002EBC20402EB8404DFF8F8A0640054
:105220004FF0DE0B0BFB0C445444B8F1010F5C63F0
:1052300006D00024B8F1030F1C6201D1012400E064
:105240000224C0F8D0970CEB4C0909EB020AC0F815
:10525000BC472B4C80F8D4C754F82A40C0F8C0474C
:10526000CEF1030E09EB0E0A264CBCF1000F34F907
:105270001A400CBF4FF0020A4FF0010A4FEA4C0CE3
:1052800094FBFAF4C0F8C4A7C0F8C8472FB3C9EB21
:105290000919CEEB0E1EC2EB0212CE444A44BE44A4
:1052A0003A44194F194C37F91220194F34F91E405E
:1052B000B8F1030F18BF0CF1010C37F91C70D21BA9
:1052C000C4EB441704EB8704E400C0F8B847141F8C
:1052D00005B1941F2644C0F8CC671DB91D63042096
:1052E000BDE8F08F8A8852BA92B206201A63BDE8F0
:1052F000F08F4FF0FF30F3E74FF0FF30704700BF03
:10530000103B0108343B0108F03D0108003A010858
:10531000E43D0108483B01082DE9F04F8BB000281F
:1053200001F06180D0F800B00646BBF1000F01F03B
:105330005A8044680494002C01F055809BF800804A
:10534000B8F1000F00F0ED809BF81C300691032BA4
:1053500006AD0CBF09221122082100232846CDE901
:10536000073305920992FFF77DFE049C20609BF8AD
:105370001C30032B0CBF012102212846FFF772FECF
:105380006060D6F8C437002B40F3C380D6F8BC3732
:10539000049A0392002B4FF00002029240F3B9806E
:1053A000039C0027B2460C212846FFF75BFE09212B
:1053B000A0622846FFF756FE0821E0622846FFF764
:1053C00051FE20639BF80030002B0CBF0421092103
:1053D0002846FFF747FE6063DDE9070101F1FF3E64
:1053E0004300BEF1000F07934FEAD070CDF820E0E4
:1053F000C0F2B581A063002800F0D28002212846C7
:10540000FFF730FEDDE9073E0EF1FF315A00DE0FF7
:105410000029E063019607920891C0F2EF834FEAFA
:10542000D26C9B01324622644A1F002A07930892DD
:10543000C0F29A844FEAD36E5B01511F0029C4F871
:1054400044C007930891C0F228825A0FDB00C4F8C9
:1054500048E0A1F1030C4FF0000EF445C4F84CE015
:105460000793CDF820C0C0F25A834FEA537EDB0089
:105470002265ACF10302002A07930892C0F244822D
:10548000590FDB00C4F854E00793D31E002B089398
:10549000C0F20C83A165002840F09181E36D606348
:1054A000C4E90A00C3F114032366DDE9073C9BF855
:1054B0000020D90F5B00002A00F0B08000220CF120
:1054C000FF36002E626607930896C0F2B580D80FAB
:1054D0005B00721E002AA16607930892C0F2108139
:1054E000DAF8BC37E0660137BB4204F148043FF705
:1054F0005AAF029A013211460292DAF8C427914259
:10550000564606DA039A002B02F1900203923FF707
:1055100047AF049B1B68C6F8D83705980BB0BDE8A9
:10552000F08F9BF81C300691032B06AD0CBF1123A6
:1055300020230921284605930993CDE90788FFF721
:1055400091FD20609BF81C30032B0CBF052103212B
:105550002846FFF787FDD6F8BC376060002B7FF741
:1055600010AF04F1180707EB0319DDE90731BC465A
:105570008E464146ACF110040EF1FF30DF0F0028DB
:105580004FEA430307930890C0F28580864644F8AB
:10559000047BA445F0D10CF1100CCC45EAD1F0E627
:1055A000AEF105065901002EC4E90F004FEAD36C95
:1055B00007910896C0F24782C90E9B02721F002A0B
:1055C000C4F844C007930892C0F20C82D80E5B0165
:1055D000A2F1050EBEF1000FA1640793CDF820E003
:1055E000C0F22881E06404212846FFF73BFDDDE995
:1055F0000732A2F1030CD900BCF1000FE06507915E
:10560000CDF820C04FEA5370C0F2E080C90F1B01F3
:1056100020669BF80020002A7FF450AF0CF1FF3E7B
:10562000BEF1000F0793CDF820E0C0F2DE830A46FA
:10563000F446D90F5B0042E7099A032ACCF1010036
:1056400040F31A83069B0CF11F069E46A2F1040C40
:105650005A1C06921EF8022BCDF818E0120607928B
:1056600093F801E042EA0E4203F1030E0792CDF8EF
:1056700018E093F802E042EA0E2203F1040E0792CA
:10568000CDF818E0DB78CDF824C01A4302FA00F315
:10569000F24011431BE7DDF82480CEF10103B8F19D
:1056A000030F019340F3668106988246421C0692DE
:1056B0001AF8022BCDF818A01206079290F801A054
:1056C00042EA0A4200F1030A0792CDF818A090F8C6
:1056D00002A042EA0A2A021DCDF81CA00692C27856
:1056E0000EF11F0E42EA0A02A8F1040802FA03F3BF
:1056F00022FA0EF2CDF824801743CDE9073E46E7A3
:1057000009990329C6F1010C40F3F48206F11F0345
:10571000069EB646721C06921EF8022BCDF818E0C3
:105720001206079296F801E042EA0E4206F1030ED5
:105730000792CDF818E096F802E042EA0E2206F150
:10574000040E0792CDF818E0F6783243043902FAD5
:105750000CF6DA4009911043CDE90763C0E6099AD7
:10576000032AC1F1010340F31182069E01F11F0ECD
:10577000B446111F721C06921CF8022BCDF818C0FB
:105780001206079296F801C042EA0C4206F1030C99
:105790000792CDF818C096F802C042EA0C2206F132
:1057A000040C0792CDF818C0F6780991324302FA3A
:1057B00003F322FA0EF21043CDE9073E1AE602285F
:1057C00000F00A830723E3650D236DE6099E032E8F
:1057D000C2F1030340F34483DDF818C0E6460CF140
:1057E000010106911EF8021BCDF818E00906079189
:1057F0009CF801E041EA0E410CF1030E0791CDF84F
:1058000018E09CF802E041EA0E210CF1040E079129
:10581000CDF818E09CF803C01D324CEA010101FAF2
:1058200003F3043ED14008430996D90F5B00944628
:105830000892EDE6DDF824C0BCF1030FC2F10501CA
:1058400040F30385069E02F11B03B646721C0692C6
:105850001EF8022BCDF818E01206079296F801E028
:1058600042EA0E4206F1030E0792CDF818E096F8D0
:1058700002E042EA0E2206F1040E0792CDF818E08B
:10588000F6783243ACF1040C02FA01F1DA40CDF8BB
:1058900024C01043CDE90713A4E6DDF824C0BCF111
:1058A000030FC2F1050340F35383DDF8188002F1C2
:1058B0001B01C14608F10102069219F8022BCDF82E
:1058C00018901206079298F8019042EA094208F1EE
:1058D00003090792CDF8189098F8029042EA092936
:1058E00008F10402CDF81C90069298F80320ACF160
:1058F000040CCDF824C042EA090C0CFA03F32CFA8C
:1059000001FC4EEA0C0EA0E5DDF82480B8F1030F8F
:10591000CCF1030340F3DE820CF11D02DDF818C068
:10592000E1460CF10101069119F8021BCDF818901F
:10593000090607919CF8019041EA09410CF103091D
:105940000791CDF818909CF8029041EA09290CF1D2
:105950000401CDF81C9006919CF8031041EA09015E
:10596000A8F1040801FA03F3D140CDF824804EEAEF
:10597000010E85E50791B8F1000F00F02D85DDF8E7
:1059800018A00AF1010206929AF80020B8F1010F5E
:105990004FEA0222079212D00AF1020306939AF804
:1059A00001301A431202B8F1020F079207D00AF130
:1059B000030306939AF802A04AEA02021202C8F10F
:1059C000030A4FEACA0A02FA0AF2019B0EF11F0EFD
:1059D00022FA0EFE47EA0E0702FA03F300EBC80EA6
:1059E00009918AE6DDF824C0BCF1030FC6F1050376
:1059F00040F3A68306F11B02069EB646701C069075
:105A00001EF8020BCDF818E00006079096F801E0AA
:105A100040EA0E4006F1030E0790CDF818E096F824
:105A200002E040EA0E2006F1040E0790CDF818E0DF
:105A3000F6783043ACF1040C00FA03F3D040CDF813
:105A400024C00143C2E5DDF82480B8F1030FCEF194
:105A5000050240F3038306990EF11B064B1C8E468C
:105A600006931EF8023BCDF818E01B06079391F849
:105A700001E043EA0E4301F1030E0793CDF818E06D
:105A800091F802E043EA0E2301F1040E0793CDF8EA
:105A900018E0C978194301FA02F3A8F10400F140B3
:105AA0004CEA010C0990D90E5B0187E5DDF824E092
:105AB000BEF1030FC2F1030940F38F82DDF818C075
:105AC00002F11D03E0460CF10102069218F8022BC8
:105AD000CDF81880120607929CF8018042EA08422D
